:020000040800F2
:20000000800E00201D0200082502000827020008290200082B0200082D020008000000000C
:200020000000000000000000000000002F020008310200080000000033020008D106000830
:20004000370200083702000837020008370200083702000837020008370200083702000898
:20006000370200083702000837020008370200083702000837020008370200083702000878
:20008000370200083702000837020008370200083702000837020008370200083702000858
:2000A000370200083702000837020008370200083702000837020008000000003702000879
:2000C0003702000800000000000000003702000800000000370200083702000837020008DB
:2000E00037020008370200080000000000000000000000000000000000000000000000007E
:2001000000000000000000000000000000000000000000000000000037020008370200085D
:200120000000000000000000000000000000000000000000000000000000000000000000BF
:200140003702000837020008000000003702000837020008370200083702000837020008D8
:200160003702000837020008000000000000000000000000000000000000000000000000FD
:20018000000000003702000800F002F800F037F80AA090E8000C82448344AAF10107DA4598
:2001A00001D100F02CF8AFF2090EBAE80F0013F0010F18BFFB1A43F00103184774100000D7
:2001C000841000000023002400250026103A28BF78C1FBD8520728BF30C148BF0B60704762
:2001E0001FB500F00FFF9DE8030000F0A3F900F0ABF81FBD10B5002000F035F910BD00F0EA
:2002000057F91146FFF7ECFF00F0FEFD00F0EFF903B4FFF7EFFF03BC00F0F2FD0948804742
:2002200009480047FEE7FEE7FEE7FEE7FEE7FEE7FEE7FEE7FEE7FEE704480549054A064BFA
:2002400070470000E50600088901000880080020800E0020800A0020800A002070470B46B0
:200260000146184600F083B8032A40F2308010F0030C00F0158011F8013BBCF1020F624462
:2002800098BF11F801CB00F8013B38BF11F8013BA2F1040298BF00F801CB38BF00F8013BE3
:2002A00011F0030300F07A80083AC0F0088051F8043B083A51F804CBA0E80810F5E7121D46
:2002C0005CBF51F8043B40F8043BAFF30080D20724BF11F8013B11F801CB48BF11F8012BD0
:2002E00024BF00F8013B00F801CB48BF00F8012B70474FF0000200B51346944696462039E3
:2003000022BFA0E80C50A0E80C50B1F12001BFF4F7AF090728BFA0E80C5048BF0CC05DF815
:2003200004EB890028BF40F8042B08BF704748BF20F8022B11F0804F18BF00F8012B7047AB
:20034000704770477047000070B5064C7C44064D7D4403E0206820448047241DAC42F9D19E
:2003600070BD0000F00E0000F00E000070472DE9F041074615460E46102000F045F80400F9
:200380000AD06760C4E9026500F03AF80168216004600020BDE8F0810120FBE710B5203AE0
:2003A000C0F00B80B1E81850A0E81850B1E81850A0E81850203ABFF4F5AF5FEA027C24BFC5
:2003C000B1E81850A0E8185044BF18C918C0BDE810405FEA827C24BF51F8043B40F8043B52
:2003E00008BF7047D20728BF31F8023B48BF11F8012B28BF20F8023B48BF00F8012B7047FF
:20040000004870473800002070B5064600F076F8056806F10B0020F00704B4429CBF0020BB
:2004200070BD2B466A68BAB11068A04210D304F1080188423CBF5068586007D351681019B5
:2004400041601168091B016058601460101D70BD13465268002AE7D12146284600F056F86F
:200460000028DED170BD2DE9F0410646FFF7C8FF8046454613E016B1E068B0420ED120687C
:200480002860D4E90101D8F800708847204600F087F8D8F80000B842EBD100E025462C68CC
:2004A000002CE8D1BDE8F08100487047000000207546FFF7F9FFAE4605006946534620F028
:2004C0000700854618B020B5FFF7B6FEBDE820404FF000064FF000074FF000084FF0000BE2
:2004E000AC46ACE8C009ACE8C009ACE8C009ACE8C00921F007018D467047000000487047F4
:2005000008000020704770477047704738B504460A4600206946AFF30080002808BF38BD7B
:2005200002460099204600F06BF8012038BD012000F080B8F8B5AFF30080054600200C4636
:20054000102000BF0646A819A0420DD9324669460020AFF30080070008BF00F06BF80098B5
:20056000A04218BF0546C419FFF7C8FF05600746F01D20F007004619284600F00AF8B44252
:2005800008BFF8BDA21B31463868BDE8F84000F037B800210160C0E9011070471020704775
:2005A00070B50446051FFFF7A9FF0068002C14BF446870BD002C18BFAC423CBF20466468AC
:2005C000F8D301680A18AA4218BF456003D12A6805461144016028684119A1421CBF6C6082
:2005E00070BD6168696021680844286070BD10B50446AFF300802046BDE81040FFF708BE6A
:20060000034640688C46002818BF88423CBF03464068F8D318681844884207D00CF103001A
:2006200020F00700001D411A521A0146081D0A60FFF7B6BF10B500F009F8BDE81040AFF331
:200640000080002801D000F0DBBB704710B5012805D0002103A000F021F8012010BD09A1BC
:20066000F8E7000053494752544D454D3A204F7574206F662068656170206D656D6F727935
:20068000000000003A2048656170206D656D6F727920636F727275707465640070B5054661
:2006A0000C460A2000E06D1C00F0ACFB35B128780028F8D102E0641C00F0A4FB14B12078F9
:2006C0000028F8D1BDE870400A2000F09BBB000040F67800C2F2000001680131016000F016
:2006E00003BB00004EF68850CEF20000016841F47001016041F20001C4F202010A6842F05F
:2007000001020A604A684CF20C03CFF67F031A404A600A684FF6FF73CFF6F6631A400A6017
:200720000A6822F480220A604A6822F4FE024A60CA6A22F00F02CA620A6B4FF6CC43CFF6A2
:2007400000731A400A6300228A604FF0006140F8801C704700F03EBB40F21440C4F60000FF
:20076000016821F010010160EFF3108072B641F60001C0F600010A68486882F308884EF699
:200780000852CEF200021160411C00D0004700F075F8000010B5D30757D142F21003C4F237
:2007A000020300BF53F8044CE407FBD11C6824060BD540F22314C4F2675443F80C4C48F6EA
:2007C000AB14CCF6EF5443F80C4C1C6844F002041C60441C5C601C6844F040041C6000BF35
:2007E00053F8044CE407FBD153F8044CA4062CD54FF0200C43F804CC1C6824F002041C60D1
:200800001C68FAB14FF0000E44F001041C602EF001040C5B2EF8004053F8044CE407FBD165
:2008200053F8044CA40658BF10BD43F804CC1C6824F001041C600EF102041FFA84FE1C6847
:200840009645E1D344F08000186010BD10B54EF21004CEF2000441F63F70606000F006F89F
:200860000020A0600720206010BD00004EF62350CEF20000F021017070470000BFF34F8FA4
:200880004EF60C50CEF20000016801F4E0610422C0F2FA5211430160BFF34F8F00BFFDE74D
:2008A000002904BF00207047B0B54FF6FF724FF0000C48F2084E00BF10F80C3082EA030409
:2008C000082300BF8EEA5402E50708BF6208013B1446F7D10CF1010C8C45EDD1D04300BA7F
:2008E000000CB0BD41F21400C4F20200016841F44021016040F20040C4F60000016821F476
:2009000040710160016841F480710160416921F010014161704700002DE9F041B4B0984627
:2009200016460D46074608AC2046B021FFF7E1FC38468021224600F0ADF8012E08D056BBC9
:2009400008A928460A2200F051F834B0BDE8F081B8F1000F1FD00020CDE90600CDE90400DC
:2009600028686968AA68EB688DE80F0008A928460A2200F03BF8284641461022102300F075
:2009800079F89DE80F00C8F80C30C8F80820C8F80410C8F8000034B0BDE8F08181B0027835
:2009A0008DF8002002798DF80120027A8DF80220027B8DF803204A4202F003026B469A5CFF
:2009C0000270C1F1050202F003029A5C0271C1F1060202F003029A5C0272C1F1030101F0CA
:2009E0000301595C017301B070470000F0B581B016460C46054601EB021100F017F8022E65
:200A000009D300BF013EF7B204EB0711284600F0DBF8012FF6D80020215C2A5C51402954EC
:200A200001301028F8D101B0F0BD000010B50446002000BF0A5C235C5A40225401301028DA
:200A4000F8D1601C0121FFF7A9FFA01C0221FFF7A5FFE01C0321FFF7A1FF002041F22E11D0
:200A6000C0F60001225C8A5C225401301028F9D110BD0000884288BF1A46002A08BF7047CC
:200A800011F801CB037883EA0C0300F8013B013AF6D170472DE9F04F83B014460D46014621
:200AA000EA082046FFF7E0FB69091C20019100EB81005FFA80FAC5F34718D0455BD200260F
:200AC00041F22E07C0F600074546DDF804B0D94604EB850050F8040C02905FFA89F05FFA35
:200AE0008BF181421ED102A800F04EF89DF808009DF809109DF80A209DF80B30795C8DF8B4
:200B00000910B95C8DF80A10F95C8DF80B10F1B21AA2515C385C48408DF808000198814400
:200B200001361AE0B8F1080F17D105F00700042813D19DF808009DF809109DF80A209DF831
:200B40000B30385C8DF80800785C8DF80900B85C8DF80A00F85C8DF80B00A5EB080054F86C
:200B600020000299484044F825000BF1010B5FFA8BF55545ACD303B0BDE8F08F01020408F1
:200B8000102040801B3600000178427802704288A0F80120C170704780B54FF0000C4FF045
:200BA000000E00BFCB0718BF8CEA000C43B202EAD31383EA40000EF1010E4908BEF1080FA4
:200BC000F0D35FFA8CF080BD2DE9F04F89B08346002005AE1BF800200B5C5A40325401302B
:200BE0001028F7D1002700BFF55D0395F01990F8019090F8028090F803A085EA09000490C2
:200C000088EA0A0102914840C1B209201B22FFF7C3FF064685EA0800C1B204201B22FFF71E
:200C2000BBFF019089EA0A00C1B25C4685EA0A0B04201B22FFF7B0FF5FFA8BF1A34680EA25
:200C4000060484EA0A0502201B22FFF7A5FF68400BEB0705E870019846400298C1B286EA76
:200C6000080A02201B22FFF797FF80EA0A00A87084EA090489EA0800C1B202201B22FFF72D
:200C80008BFF60406870039886EA00040498C1B202201B22FFF780FF05AE60400BF8070003
:200CA0000437102FA0D10BF101000121FFF776FE0BF102000221FFF771FE0BF10300032117
:200CC000FFF76CFE002041F22E11C0F6000100BF1BF800208A5C0BF8002001301028F7D13F
:200CE00009B0BDE8F08F000040F26000C2F20000016801310160704740F26002C2F20002D4
:200D0000116841F288330B4443F61C0CC4F2010CDCF8001089060FD411689942F8D9DCF8AA
:200D20000010890742BFDCF8041041F00201CCF804100121002202E0BCF808200021027089
:200D40000846704743F61C01C4F201010A685206FCD588817047000041F21401C4F2020124
:200D60000A6842F400220A6040F60002C4F60002136823F470631360136843F420631360CB
:200D8000136A43F4EE031362536823F0100353604A6842F480424A6041F20021C0F27A01D0
:200DA000B1FBF0F043F60001C4F20101C8604FF480508860086840F00D00086070470000C6
:200DC00040F26001C2F2000100220A60704700007047000010B540F67604C2F2000420463E
:200DE000FFF7EEFF40F6D150C0F6000040F20002C0F600022146BDE81040FFF730BA0000DB
:200E0000FEE700007047000086B0FFF76BFCFFF71DFD41F21400C4F20200016841F40021D5
:200E20000160FFF75FFD40F2144BC4F6000BDBF8000040F01000CBF800004FF49640FFF7C4
:200E40008BFF4FF0000A0DF117076D4640F26404C2F20004002600E001268DF817A03846B7
:200E6000FFF74AFF18B1F007F6D1FFF775FCDBF8000020F01000CBF800009DF81700BA2801
:200E8000EAD13846FFF738FF0028E5D19DF81700FB2803D1FFF760FC9DF81700FE2816D160
:200EA0004FF0FF30CDE90000042600BFA819FFF723FFF11E022902D801360028F6D04FF6CE
:200EC000F870C0F2800029460822FFF763FC9DF81700BF28C0D1204640F61201FFF709FABE
:200EE0004FF000084FF000095FEAC97072D104EB08063046FFF700FF00286BD13078BA2848
:200F00000ED18DF800A02846FFF7F6FE002861D19DF80000002818BF012049EA000901E049
:200F20004FF0000908F10100B8F5016F8046DBD95FEAC9704ED194F8108894F811682046A8
:200F40004FF40161FFF7ACFC46EA0821814241D1B9460026CDE90266CDE90066274641F221
:200F60001E04C0F6000400BFB919204601222B46FFF7D2FC06F1100086B2B6F5016FF3D326
:200F800097F800807E78A7F800A0B81C40F60E01FFF786FC46EA082181423C4612D1A078E3
:200FA000E17841EA002047F6722188420AD1DBF8000040F01000CBF80000606800BAB0F51B
:200FC000684F0FD9BA20FFF7BDFEC220FFF7BAFE4F4641E7BA20FFF7B5FEC220FFF7B2FE8F
:200FE00001263AE741F60001C0F60001084404F110014FF40062FFF7CDFBBA20FFF7A2FE95
:20100000C120E3E7F1EE100A4FF6FF71C0F2C03120EA010040F04070E1EE100A70478714AE
:2010200043BE37983690C16A1616EFBC6D84637C777BF26B6FC53001672BFED7AB76CA82C0
:20104000C97DFA5947F0ADD4A2AF9CA472C0B7FD9326363FF7CC34A5E5F171D8311504C7CE
:2010600023C31896059A071280E2EB27B27509832C1A1B6E5AA0523BD6B329E32F8453D13B
:2010800000ED20FCB15B6ACBBE394A4C58CFD0EFAAFB434D338545F9027F503C9FA851A320
:2010A000408F929D38F5BCB6DA2110FFF3D2CD0C13EC5F974417C4A77E3D645D1973608147
:2010C0004FDC222A908846EEB814DE5E0BDBE0323A0A4906245CC2D3AC629195E479E7C865
:2010E000376D8DD54EA96C56F4EA657AAE08BA78252E1CA6B4C6E8DD741F4BBD8B8A703EDA
:20110000B5664803F60E613557B986C11D9EE1F8981169D98E949B1E87E9CE5528DF8CA157
:20112000890DBFE6426841992D0FB054BB1652096AD53036A538BF40A39E81F3D7FB7CE31D
:2011400039829B2FFF87348E4344C4DEE9CB547B9432A6C2233DEE4C950B42FAC34E082E2B
:20116000A16628D924B2765BA2496D8BD12572F8F66486689816D4A45CCC5D65B6926C7001
:201180004850FDEDB9DA5E154657A78D9D8490D8AB008CBCD30AF7E45805B8B34506D02CB3
:2011A0001E8FCA3F0F02C1AFBD0301138A6B3A9111414F67DCEA97F2CFCEF0B4E67396AC31
:2011C0007422E7AD3585E2F937E81C75DF6E47F11A711D29C5896FB7620EAA18BE1BFC5679
:2011E0003E4BC6D279209ADBC0FE78CD5AF41FDDA8338807C731B11210592780EC5F605142
:201200007FA919B54A0D2DE57A9F93C99CEFA0E03B4DAE2AF5B0C8EBBB3C83539961172B2E
:20122000047EBA77D626E169146355210C7D00004412000800000020800E0000C401000866
:0412400015F5FFFFA2
:20180000801E0020791A0008811A0008831A0008851A0008871A0008891A0008000000002C
:201820000000000000000000000000008B1A00088D1A0008000000008F1A000875640008BA
:20184000931A0008931A0008931A0008931A0008931A0008931A000801450008931A000847
:20186000931A0008931A0008931A0008ED440008931A0008931A0008931A0008931A00083C
:20188000931A0008931A000849200008931A0008931A0008931A0008931A0008931A0008E4
:2018A000931A0008931A0008931A0008931A0008F56500081966000800000000931A0008B6
:2018C000931A00080000000000000000931A000800000000D9660008931A0008C56800086D
:2018E000931A0008931A00080000000000000000000000000000000000000000000000007E
:20190000000000000000000000000000000000000000000000000000931A0008931A00085D
:201920000000000000000000000000000000000000000000000000000000000000000000A7
:20194000931A0008931A000800000000931A000891550008931A0008931A0008931A00085B
:20196000931A0008931A0008000000000000000000000000000000000000000000000000FD
:2019800000000000931A000800F002F800F065F80AA090E8000C82448344AAF10107DA45DE
:2019A00001D100F05AF8AFF2090EBAE80F0013F0010F18BFFB1A43F001031847F08F000096
:2019C000109000000A444FF0000C10F8013B13F0070408BF10F8014B1D1108BF10F8015B08
:2019E000641E05D010F8016B641E01F8016BF9D113F0080F1EBF10F8014BAD1C0C1B09D156
:201A00006D1E58BF01F801CBFAD505E014F8016B01F8016B6D1EF9D59142D6D37047000042
:201A20000023002400250026103A28BF78C1FBD8520728BF30C148BF0B6070471FB508F0B1
:201A4000D2FD00F0A5FA04000020002108F038F8401C60601FBD10B510BD00F074FA11467C
:201A6000FFF7ECFF07F084F900F0A4FA03B4FFF7F2FF03BC00F0DEF90948804709480047AF
:201A8000FEE7FEE7FEE7FEE7FEE7FEE7FEE7FEE7FEE7FEE704480549054A064B7047000063
:201AA0008D6400088919000880140020801E0020801600208016002053EA020C00F0698081
:201AC0002DE9F04B4FF00006002B1FBFB3FA83F503FA05F424FA05F65E4012BF1643B2FABF
:201AE00082F502FA05F4C5F120051EBF22FA05FC44EA0C04203556EA044C4FEA144418BF1A
:201B0000641C4FF000084FF00009904271EB030C39D3002919BFB1FA81F701FA07F6B0FAA7
:201B200080F700FA07F6C7F120071EBF20FA07FC46EA0C062037B6FBF4FCA7EB0507103F37
:201B400007F01F0BCBF120060CFA0BFB2CFA06F644BFB3460026202FA4BF5E464FF0000B92
:201B60005BEA060C08BF4FF0010B19EB0B09ABFB027C48EB0608C01B06FB02CC0BFB03CC00
:201B800071EB0C01C1E70B46024641464846BDE8F08B13B54FF000004FF00001AFF30080FD
:201BA000BDE81C407047B2F120030AD5C2F1200301FA02F120FA03F300FA02F041EA0301D9
:201BC000704700FA03F14FF00000704770B5064600F0A0F80468054630460A22002100F007
:201BE0009DF82C6070BD40EA0103024630B59B0710D14FF0013400E008C208C91D1B9D43B2
:201C000015EAC41FF8D013F0FF0102F8011B0DD01B0AF8E711F8013B002B02F8013B05D0A5
:201C200011F8013B002B02F8013BF3D130BD032A40F2308010F0030C00F0158011F8013B65
:201C4000BCF1020F624498BF11F801CB00F8013B38BF11F8013BA2F1040298BF00F801CBD0
:201C600038BF00F8013B11F0030300F08F80083AC0F0088051F8043B083A51F804CBA0E84F
:201C80000810F5E7121D5CBF51F8043B40F8043BAFF30080D20724BF11F8013B11F801CB0F
:201CA00048BF11F8012B24BF00F8013B00F801CB48BF00F8012B704710B5044610F0030F0A
:201CC00008BF11F0030F40F015804FF0013E121FC0F20E8051F8043BA3EB0E0C2CEA030C21
:201CE0001CEACE1C08BF40F8043BF0D0A1F1040102F10402521E08DB11F8013B002B00F8AB
:201D0000013BF7D1114600F073F8204610BD70477047704700487047201400202DE9F04715
:201D200091460F4680460446002614F8015B2DB100F08AF80068405DC007F6D12B2D02D0CC
:201D40002D2D18D0641E4A463946204600F084F827B13968A14201D1C7F800804FF002042C
:201D600071050BD54042002803DDFFF7D3FF0460A007BDE8F08746F48066E4E70028F8DAAF
:201D8000FFF7C8FF04606FF00040F2E710B5203AC0F00B80B1E81850203AA0E81850B1E86C
:201DA0001850A0E81850BFF4F5AF5FEA027C24BFB1E81850A0E8185044BF18C918C0BDE878
:201DC00010405FEA827C24BF51F8043B40F8043B08BF7047D20728BF31F8023B48BF11F8D6
:201DE000012B28BF20F8023B48BF00F8012B70474FF000020429C0F0128010F0030C00F0EA
:201E00007C80CCF1040CBCF1020F18BF00F8012BA8BF20F8022BA1EB0C0100F06EB85FEA9C
:201E2000C17C24BF00F8012B00F8012B48BF00F8012B704701491820ABBEFEE72600020060
:201E4000004870472014002010B500F0A1F8001D10BD00BF6D7C00002DE9F05F82461546C7
:201E60008B4600270AF10104B9460078302801D09DB113E014F8010B0127782803D0582856
:201E800001D045B10AE00DB1102D07D1002714F8010B102502E0082500E00A250026B04610
:201EA0000EE005FB080005FB06F101271FFA80F801EB1046B6F5803F00D3B94614F8010BE6
:201EC000294600F069F80028EBDABBF1000F05D00FB1641E00E05446CBF80040B9F1000F4D
:201EE00006D0FFF717FF02210160C81EBDE8F09F48EA0640FAE74FF0000200B513469446E0
:201F00009646203922BFA0E80C50A0E80C50B1F12001BFF4F7AF090728BFA0E80C5048BFE5
:201F20000CC05DF804EB890028BF40F8042B08BF704748BF20F8022B11F0804F18BF00F851
:201F4000012B704770477546FFF77AFFAE4605006946534620F00700854618B020B5FFF707
:201F600099FDBDE820404FF000064FF000074FF000084FF0000B21F00701AC46ACE8C00942
:201F8000ACE8C009ACE8C009ACE8C0098D46704700487047401400203A2800D2303820F081
:201FA0002002412A01D3A2F13700884201D34FF0FF30704710B50446AFF300802046BDE8F7
:201FC0001040FFF753BD00004FF0013C50F8042B51F8043B9A4221D1A2EB0C03934313EAF3
:201FE000CC1317D150F8042B51F8043B9A4215D1A2EB0C03934313EACC130BD150F8042BB8
:2020000051F8043B9A4209D1A2EB0C03934313EACC13DBD04FF00000704700BFD01A01BA2F
:20202000B1FA81F101F0180122FA01F0CB40C1F12001DBB2C0B2C01A2CFA01F3D11A9143DC
:2020400011EAC311E6D1704710B54FF0A040006800F0800040B180204FF0A041086001204D
:202060000249087005F020FB10BD00007012002001480068704700005C02002030B502460B
:20208000A74B1A6000201B680446401CA54D45F8243040F263750346401CA24C44F82350BC
:2020A0009F4B1B681F330446401C9E4D45F824309B4B1B6815330446401C45F82430984B74
:2020C0001B6813330446401C45F82430944B1B685B1D0446401C45F8243040F2627503469D
:2020E000401C904C44F823508D4B1B685B1C0446401C8C4D45F82430894B1B689B1C0446BF
:20210000401C45F82430864B1B68DB1C0446401C45F82430824B1B681B1D0446401C45F8E5
:2021200024307F4B1B68DB1D0446401C45F824307B4B1B689B1D0446401C45F82430784BD4
:202140001C6817340346401C45F82340002107E0002301EB4104744D05F834304B1CD9B2FB
:202160000D29F5DD714BDB6943F000736F4CE36123465B6943F4802363616D4B1B6823F495
:2021800040336B4C236023461B6823F44023236023461B6843F420232360231D1B6823F4E6
:2021A0000073241D2360624B0C331B6823F440335F4C0C34236023461B6843F400332360A8
:2021C0005B4B5B6A43F09904594B5C62594B1B6843F00103574C236000BF564B1B1D1B68C3
:2021E00003F00103002BF8D0534B5B69062B25D2DFE803F003080D13191F504B4D4C1C34CA
:2022000023601BE04E4B4B4C1C34236016E04B4B1B3B484C1C34236010E0484B243B454C81
:202220001C3423600AE0464B243B424C1C34236004E0444B3F4C1C34236000BF00BF424BB4
:202240001B6843F00103404C2360231D1B6823F00103241D23603C4B0C331B6843F0010397
:20226000394C0C342360384B14331B6823F00103354C143423600023334C403423600024A9
:20228000314B44331C60304B1C331B6843F001032D4C1C3423602C4B1B1D1B6823F00203B5
:2022A000294C241D2360284B0C331B6843F00203254C0C342360244B14331B6823F00203F3
:2022C000214C1434236000241F4B48331C601B1D1C601D4B1C331B6843F002031A4C1C3465
:2022E0002360194B1B6823F00103174C2360114B1B6843F010030F4C236023461B6823F075
:202300000103236023461B6823F00203236000BF084B1B1D1B6803F00103002BF8D130BD0A
:202320005C020020A00F0020D80F0020001002400004004800640040100000202C001C008F
:202340002C00050001001E00006600402DE9F0410023DFF878C3DCF800C00CF0080CBCF1BA
:20236000000F00D00123DFF864C30CF1040CDCF800C00CF0080CBCF1000F01D043F00203E6
:20238000DFF848C3ACF1040CDCF800C00CF0010CBCF1000F01D043F00403DFF830C3ACF1E3
:2023A000040CDCF800C00CF4807CBCF1000F01D043F00803DFF814C3ACF1040CDCF800C0C3
:2023C0000CF4803CBCF1000F01D043F01003DFF8FCC2ACF1080CDCF800C00CF0040CBCF1DB
:2023E000000F01D043F02003DFF8E0C2ACF1080CDCF800C00CF0080CBCF1000F01D043F019
:202400004003DFF8C8C2ACF1080CDCF800C00CF0040CBCF1000F7DD0DFF8B0C20CF10C0C60
:20242000DCF800703D0E3F023C0EDCF800C00CF0010CBCF1000F00D00122602D01DB42F09B
:202440000202602C01DB42F00402802D01DB42F00802802C01DB42F01002DFF870C20CF141
:202460000C0CDCF800C00CF0040CBCF1000F01D042F02002DFF854C2DCF800C00CF0100C2A
:20248000BCF1000F01D042F04002DFF840C20CF1040CDCF800C00CF0100CBCF1000F01D01C
:2024A00042F08002DFF824C20CF10C0CDCF800C02CF0050CDFF8148208F10C08C8F800C0DB
:2024C000DFF808C2DCF800C02CF0100CDFF8FC81C8F800C008F1040CDCF800C02CF0100CE6
:2024E00008F10408C8F800C04FF6FF7CDFF8E081C8F800C04FF0000CC8F804C0C4468CF882
:2025000008308CF809208CF80A408CF80B50DFF8BCC100E00CE0ACF1080CDCF800C00CF0C8
:20252000040CDFF8A881A8F10808C8F800C0CAE0DFF898C1DCF800C00CF0030CBCF1000F2D
:2025400050D0DFF890C1DCF800C00CF0020CBCF1000F2CD14FF0010CDFF87481C8F800C044
:20256000DFF868C1ACF10C0CDCF8B801DCF8BC1188F808004FEA1028DFF854C18CF8098086
:202580004FEA10488CF80A804FEA10688CF80B808CF80C104FEA11288CF80D804FEA114827
:2025A0008CF80E804FEA11688CF80F8005E04FF6FC7CDFF81C81C8F800C0DFF818C1DCF82A
:2025C0000060C6F3475CDFF80881C8F804C0DFF8FCC0DCF800C04CF0200CDFF8F080C8F8C5
:2025E00000C070E0DFF8E4C00CF1040CDCF800C00CF0030CBCF1000F58D0DFF8D0C0ACF1BC
:202600000C0CDCF8C0C10CF0020CBCF1000F2CD14FF0010CDFF8B880C8F800C0DFF8ACC06C
:20262000ACF10C0CDCF8C801DCF8CC1188F808004FEA1028DFF898C08CF809804FEA1048D1
:202640008CF80A804FEA10688CF80B808CF80C104FEA11288CF80D804FEA11488CF80E80E5
:202660004FEA11688CF80F8005E04FF6FC7CDFF86080C8F800C0DFF854C0ACF10C0CDCF848
:20268000C061C6F3475CDFF84880C8F804C0DFF83CC00CF1040CDCF800C04CF0200CDFF8E7
:2026A0002C8008F10408C8F800C00CE04FF6FF7CDFF81C80C8F800C04FF0010CC8F804C07A
:2026C000C4468CF80830BDE8F08100000C64004028110020B065004070B5002008E000EBA8
:2026E0004004BC4D15F83440012C00D102E0401C0E28F4D300BF0E2800D170BDB64C54F892
:20270000201000EB4004B34D05EBC404E47A250600EB4004AF4E06EBC404A47A45EA04459E
:2027200000EB400406EBC404647A45EA042400EB400506EBC5052D7A44EA050200EB400486
:20274000354605EBC404E47B250600EB400406EBC404A47B45EA044500EB400406EBC40455
:20276000647B45EA042400EB400506EBC5052D7B44EA0503994C24688C4217D1984C2468C3
:2027800004F08064002C10D0964C2260241D2360944C083C246844F00104924D083D2C6094
:2027A000002400EB400506F8354011E18B4C64688C4219D18A4C246804F00064002CF4D05B
:2027C000884C10342260241D2360864C0834246844F00105834C08342560002400EB4005E3
:2027E0007C4E06F83540F3E07C4CA4688C4219D17B4C246804F08054002CD6D0794C203437
:202800002260241D2360774C1834246844F00105744C18342560002400EB40056D4E06F8FF
:202820003540D5E06D4C24684FF6FF75AC421ED100246C4D083D2C604C052C600825694C26
:20284000241F2560241D2260241D2360654C083C246844F00104634D083D2C605F4C2160C2
:20286000002400EB40055B4E06F83540B0E05B4C64684FF6FF75AC421DD10025594C08344A
:2028800025604D0525600825241D2560241D2260241D2360534C0834246844F00105514C24
:2028A000083425604D4C6160002400EB4005494E06F835408CE0494CA4684FF6FF75AC42EB
:2028C0001DD10025474C183425604D0525600825241D2560241D2260241D2360414C183457
:2028E000246844F001053F4C183425603B4CA160002400EB4005374E06F8354068E0384C16
:20290000246804F08064F4B10024364D083D2C604C052C600825334C241F2560241D226022
:20292000241D23602F4C083C246844F001042D4D083D2C60294C2160002400EB4005254E47
:2029400006F8354044E0264C246804F00064ECB10025244C083425604D0525600825241D52
:202960002560241D2260241D23601E4C0834246844F001051B4C08342560184C616000246E
:2029800000EB4005134E06F8354021E0144C246804F08054E4B10025124C183425604D0543
:2029A00025600825241D2560241D2260241D23600C4C1834246844F001050A4C1834256087
:2029C000064CA160002400EB4005024E06F8354000BF92E6D80F0020A00F002060020020FE
:2029E000086400408865004010B52DED028B0124F74890ED280AB4EE400AF1EE10FA05D0D5
:202A00009FEDF40A80ED280A002426E0F04890ED280A10EE101A084607F074FD41EC180B4E
:202A20009FEDED0B53EC102B07F012FB06D2B2EE080AE74880ED280A00240EE0E44890ED81
:202A4000280ADFEDE70AB4EEE00AF1EE10FA04DD9FEDE30A80ED280A0024DD4890ED290A20
:202A6000B4EE400AF1EE10FA05D09FEDDE0A80ED290A00242EE0D64890ED290A10EE101A70
:202A8000084607F03FFD41EC180B9FEDD30B53EC102B07F0DDFA06D2B2EE080ACC4880EDA8
:202AA000290A002416E0CA4890ED290A10EE101A084607F027FD41EC180B9FEDCB0B53EC85
:202AC000102B07F0FFFB05D29FEDC50AC04880ED290A0024BE4890ED2A0AB4EE400AF1EE4A
:202AE00010FA05D09FEDC20A80ED2A0A00242EE0B74890ED2A0A10EE101A084607F002FDB0
:202B000041EC180B9FEDB40B53EC102B07F0A0FA06D2B2EE080AAE4880ED2A0A002416E0D4
:202B2000AB4890ED2A0A10EE101A084607F0EAFC41EC180B9FEDAF0B53EC102B07F0C2FBDA
:202B400005D29FEDAE0AA24880ED2A0A0024A04890ED2B0AB4EE400AF1EE10FA05D09FEDDB
:202B6000A80A80ED2B0A00242EE0994890ED2B0A10EE101A084607F0C5FC41EC180B9FED32
:202B8000960B53EC102B07F063FA06D2B2EE080A8F4880ED2B0A002416E08D4890ED2B0A22
:202BA00010EE101A084607F0ADFC41EC180B9FED910B53EC102B07F085FB05D29FED8F0A9A
:202BC000834880ED2B0A0024814890ED2C0AB4EE400AF1EE10FA05D09FED7E0A80ED2C0A87
:202BE00000242EE07A4890ED2C0A10EE101A084607F088FC41EC180B9FED820B53EC102B5A
:202C000007F026FA06D29FED810A714880ED2C0A002416E06E4890ED2C0A10EE101A084659
:202C200007F070FC41EC180B9FED790B53EC102B07F048FB05D29FED780A654880ED2C0AE8
:202C40000024634890ED2D0AB4EE400AF1EE10FA05D09FED6B0A80ED2D0A00242EE05C48CC
:202C600090ED2D0A10EE101A084607F04BFC41EC180B9FED590B53EC102B07F0E9F906D281
:202C8000B2EE080A524880ED2D0A002416E0504890ED2D0A10EE101A084607F033FC41EC15
:202CA000180B9FED540B53EC102B07F00BFB05D29FED520A464880ED2D0A0024444890ED71
:202CC0002E0AB4EE400AF1EE10FA05D09FED4C0A80ED2E0A002424E03D4890ED2E0A10EE2B
:202CE000101A084607F00EFC41EC180B9FED4B0B53EC102B07F0ACF906D29FED4A0A3448DF
:202D000080ED2E0A00240CE0314890ED2E0AB5EEC00AF1EE10FA04DD9FED3C0A80ED2E0A22
:202D20000024414890ED000AB4EE400AF1EE10FA05D0B1EE040A80ED000A002426E03A48E5
:202D4000006807F0DFFB41EC180B9FED380B53EC102B07F07DF906D29FED360A324880EDA9
:202D6000000A002412E03048006807F0CBFB41EC180B9FED310B53EC102B07F0A3FA05D299
:202D80009FED2F0A284880ED000A00242D4890ED000AB4EE400AF1EE10FA05D09FED2A0AFD
:202DA00080ED000A002464E02648006807F0AAFB41EC180B9FED130B53EC102B07F048F916
:202DC00044D29FED120A1F4880ED000A002450E0940000200000F0420000000000002840B5
:202DE000000096430000C0420000000000C07240CDCC5C420000000000006940000048431B
:202E000066666642000000000000000000000000000000000018F54000C0A8470000000042
:202E2000000069C0000048C36C01002000000000000049C0000048C2000000000000494035
:202E40000000484270010020A4703D3E0B48006807F058FB41EC180B9FED090B53EC102B59
:202E600007F030FA05D2B7EE000A044880ED000A00242046BDEC028B10BD000070010020CA
:202E8000000000000000F03F0248007800F080007047000064010020004870471000002066
:202EA000842070470048704750010020142070470048704794000020BC2070470148007855
:202EC000704700006401002010B511480079114988608021104803F025FD0F49091F0860E7
:202EE000B8210E4803F01EFD0C49091F0860FFF77BFD30B10A48007840F08000084908701E
:202F000005E00748007820F080000549087010BD340200205001002014000020980000202F
:202F20006401002010B502F089FA00200149087010BD00005011002010B500231A461946FB
:202F4000184602F0CBFA002009490870094981F86000002107488166C166522180F8681066
:202F6000452180F869100120024981F8600010BD50110020D80F002000200A4908700A4922
:202F800081F86000002108488166C166522180F86810452180F869100120034981F86000D9
:202FA0007047000050110020D80F0020014800787047000050110020002001490870704740
:202FC000501100202DE9F0414FF0FF340026DD48006800F00800DB49091D096801F0080157
:202FE0000843D849091F096801F001010843D549091F096801F480710843D249091F0968F2
:2030000001F480310843CF490839096801F004010843CC490839096801F008010843002880
:2030200078D0FFF793F9C848006801283FD104F04BFDFFF71DF81730C3494968884237D1F8
:20304000C148007A41280BD1BF48407A4C2807D1BD48807A4C2803D102F0BAFA002411E099
:20306000B948007A52280BD1B748407A432807D1B548807A4F2803D102F07AFC002401E0D4
:203080004FF0FF340020B14981F83801002201F59C718A60CA60002C01DA4E2100E05921E9
:2030A000AA4880F840110120A84981F8380145E1A548406840F26171884206D1A248D0E98E
:2030C0000221104603F0D2FA38E19F48406840F26271884207D19C48D0ED020AB0EE600AB4
:2030E00000F0ECFE2AE19848406840F26471884211D19548C0689649C9688842D7D1FEF734
:20310000B7FF914989688842D1D08F498868FEF7B5FF13E113E1FEF7ABFF16308A49496801
:20312000884200D10AE1FEF7A3FF123086494968884278D18448007A864948708248417A4B
:2031400084488170407852286FD182488078522817D006DC46283DD04C2807D04F2861D1CC
:203160001AE0532823D054285CD145E0FFF798FE0646FFF791FE0746314600F0D9FA0446EB
:2031800050E0FFF799FE0646FFF792FE0746314600F0CEFA044645E0FFF788FE0646FFF7F7
:2031A00081FE0746314600F0C3FA04463AE06648C0680D2802D26448C06800E00D204FF4B8
:2031C000005101EB00354E103146284600F09CFA044627E05C48C06810B95B48C06800E023
:2031E00001204FF4803101EB00350E113146284600F08AFA044615E05348C068B0F5F37F08
:2032000002D85148C06801E040F2E7104FF4C03101EB00354FF480563146284600F074FA58
:20322000044600BF55E079E0FFE74A48407857283FD148488078522815D006DC452833D0FF
:2032400046281CD04C2833D104E0532815D054282ED127E0FFF724FE06463146002000F0EB
:2032600023FA044624E0FFF727FE064631464FF4805000F019FA04461AE0002618E001F09C
:20328000B1FE064601F0A0FE334A31464FF4803002F0DEF80446002C02DA204601F0EEFD61
:2032A000002605E0002603E00024FFF73BFE00BF0FE02848407849280BD1264880785328A3
:2032C00002D0542804D101E0002401E0002400BF00BF00201D4981F860001B48D0E90221A5
:2032E0001A48C0E91A21601C28B94E21174880F86A10C6660DE0A01C30B95021134880F869
:203300006A100021C16604E05921104880F86A10C66601200D4981F860000FE0FEF7A8FE3D
:20332000143009494968884208D10A480078042804D108210448083002F0FEF800BFBDE8DF
:20334000F08100000C64004028110020D80F002010000020501100207D4E000830B500245F
:20336000054D85F830402C46A063E16322646364012485F8304030BDD80F002010B500201D
:20338000064981F8780001F027FE044A7832C2E902010120014981F8780010BDD80F002001
:2033A00010B50020134908701348017A1148C1721148417A0F4881720F48817A0D4841723A
:2033C0000D48C07A0B4908720B48C1680948C16001200849087000200876FEF749FE054990
:2033E00008620548C1680348416201200149087610BD0000D80F00201000002000200949A0
:2034000081F8D800084890ED2D0A084680ED380A054890ED380A084680ED390A012081F8B6
:20342000D8007047D80F0020940700200020094981F8C000084890ED050A084680ED320ABD
:20344000054890ED0B0A084680ED330A012081F8C0007047D80F00209407002010B50020DD
:20346000084981F8900000F0ADFB064880ED260A9FED050A80ED270A0120024981F89000C1
:2034800010BD0000D80F00200000000070B55748007801283BD1564890F84800002836D14A
:2034A000534890F86000002831D150488068062802D24E48806800E0062004464B48C16853
:2034C0004B48016500214165416548480023224641684748523002F001F8061E10D10120A0
:2034E000434981F8480041488068001B3F49886008464068204448600846C068401CC86087
:203500003A48806800286FD1FFF716FD6CE03748007802283DD1364890F84800002838D1D6
:20352000334890F8600098BB30488068062802D22E48806800E0062004462C48C1682C48B4
:203540000165002141654165002510E027484068027827485030A91C425424484068401C38
:203560002249486008468068401E88606D1CA542ECD301201E4981F848001C48C068401C5C
:203580001A49C8600846806870BBFFF7F5FC2BE0FFE716480078032826D1154890F860002A
:2035A00010BB0020124981F86000104881681048C1660E4A9168506801F0AAFFA0B900210F
:2035C0000B488166572180F8681008488178084880F86910592180F86A100120044981F86C
:2035E000600004200149087070BD000050110020D80F00200020094981F8F000084890ED28
:203600002A0A084680ED3E0A054890ED300A084680ED3F0A012081F8F0007047D80F002023
:20362000940700200020094981F8A800084890ED110A084680ED2C0A054890ED170A08462A
:2036400080ED2D0A012081F8A8007047D80F00209407002010B50020074981F8200102F04A
:20366000D1FE02F0C1FE054AC2E902010120024981F8200110BD0000D80F0020F8100020CB
:2036800010B50020064981F8080102F0CFFF054AC2E902010120024981F8080110BD0000FC
:2036A000D80F0020E010002070B504460D460423032202210120FFF751FE1148007860B17A
:2036C0001048006820B901200E490860801E70BD00200C49086001F0EDFE002229462046F6
:2036E00001F0B6FE002802DA4FF0FF30EFE70320034908700846446085606FF00100E6E7F2
:20370000501100206C02002002460848007810B14FF0FF3070470120044B187018464260AC
:2037200081600020D86000BFF4E700005011002002460848007810B14FF0FF30704702201D
:20374000044B18701846426081600020D86000BFF4E70000501100200146124A12781011F0
:203760004840104A127812010F4B1B7842EA23120C4B1A700C4A12781207120E0A4B1A70A3
:203780000A4A12F81020074B1B785A40054B1A70074A12F81020044B1B785A40024B1A7064
:2037A00070470000B4010020B5010020740100209401002010B52DED0A8B02F021F80028B6
:2037C0006BD0B648806B30B1B44890ED0D8A0020B249886302E0B24890ED2A8AB14890ED4B
:2037E000000A38EE400AB048D0ED000A80EE201ABDEEC10A10EE104A002C00DA0024B4F547
:20380000C87F01DB40F28F14204603F097F8A349C86118EE100A06F075FE41EC1C0B9FED4A
:20382000A30B53EC102B06F047FA41EC1B0B9FEDA10B53EC102B06F047FC41EC1A0B06F0A3
:2038400093FB964948629748D0ED000A00EE104AB8EEC00A944890ED001A40EE010A88EED1
:20386000209A964890ED000A9548D0ED000A19EE200A10EE101A084606F044FE41EC1B0B53
:203880009FED8C0B53EC102B06F01EFC41EC1A0B06F06AFB81490862FCE08A4890ED300A35
:2038A00010EE101A084606F02DFE41EC1B0B9FED860B53EC102B06F03BFD41EC1A0B06F011
:2038C00015F908EE900A764890ED2A0A7348D0ED050AB0EE408A00EEA88A714890ED2B0A61
:2038E0006E48D0ED050AF0EE409A40EEA89A6D4890ED000A38EE400A6B48D0ED000A80EE8A
:20390000201ABDEEC10A10EE104A002C00DA0024B4F5C87F01DB40F28F14204603F00EF875
:203920005E49C86118EE100A06F0ECFD41EC1C0B9FED5E0B53EC102B06F0BEF941EC1B0BF5
:203940009FED5C0B53EC102B06F0BEFB41EC1A0B06F00AFB514948625248D0ED000A00EE6B
:20396000104AB8EEC00A504890ED001A40EE010A88EE200AB0EE409A504890ED000A504846
:20398000D0ED000A19EE200A10EE101A084606F0B9FD41EC1B0B9FED470B53EC102B06F06C
:2039A00093FB41EC1A0B06F0DFFA3C4908623D48D0ED000A00EE104AB8EEC00A3A4890ED66
:2039C000001A40EE010A89EEA00AB0EE409A3B4890ED000A3A48D0ED000A19EE200A10EE79
:2039E000101A084606F08EFD41EC1B0B9FED310B53EC102B06F068FB41EC1A0B06F0B4FAEA
:203A00002649886219EE900A06F07CFD41EC1C0B9FED260B53EC102B06F04EF941EC1B0B22
:203A20009FED240B53EC102B06F04EFB41EC1A0B06F09AFA1949C862194890ED2D0A084647
:203A4000D0ED050A00EEA80A10EE101A084606F059FD41EC1C0B9FED150B53EC102B06F0C8
:203A60002BF941EC1B0B9FED130B53EC102B06F02BFB41EC1A0B06F077FA084908630846CC
:203A800090F83D0018B10846C0ED0D9A02E0034880ED0D8ABDEC0A8B10BD00006011002029
:203AA0009400002070020020740200200000000000E06F40000000000000B0407802002011
:203AC0007C02002094070020000000000000394010B501F095FE18B10020334981F83D00B0
:203AE000314890F83D0010B12F48C46A01E02E48446A2E48C068001B03D52C48C068201AB6
:203B000002E02A48C068001B162820DA0120264981F83C0001F074FE90BB234890F83D00B3
:203B200088B12148006C64301F4908640846006C8969884203D300201B4981F83D00002069
:203B40001949486422E00020174908641EE01748C068A04204DA0020134981F83C0003E010
:203B60000220114981F83C000F4890F83D0020B10D48406CB0F5FA6F03D300200A49086463
:203B800004E00948406C64300749486401F038FE48B90648C0680449096B884203DC01208B
:203BA000014981F83D0010BD601100209407002008B1012100E00021014A51657047000058
:203BC00060110020014890ED0D0A70476011002010B501F015FE08B1012000E0002014492F
:203BE000896DC901134A1268012A00D100E0002241EA82110E4AD26D41EA42110C4A126D88
:203C00000AB9012200E0002241EA0211084A92F83C2041EA8201064A92F83D200AB1012283
:203C200000E0002241EA42010843C0B210BD0000601100203002002010B52DED068B02F045
:203C4000A3FE0020674908606749086008644864664890ED290AD0ED280A80EE201A11EE67
:203C6000104A204606F04EFC41EC190B9FED600B53EC102B06F028FA41EC180B06F074F9B7
:203C800059494860594890ED2A0A10EE101A084606F038FC41EC1A0B9FED570B53EC102B2E
:203CA00006F00AF841EC190B9FED510B53EC102B06F00AFA41EC180B06F056F94A4988604F
:203CC0004A4890ED2A0A10EE101A084606F01AFC41EC1A0B9FED480B53EC102B05F0ECFF94
:203CE00041EC190B9FED420B53EC102B06F0ECF941EC180B06F038F93B49C8600020086199
:203D00003A4890ED2E0A10EE101A084606F0FAFB41EC190B9FED3A0B53EC102B05F0CCFFAF
:203D200041EC180B05F0E2FE2F4948612F4890ED2C0A10EE101A084606F0E4FB41EC190B77
:203D40009FED2F0B53EC102B06F0BEF941EC180B06F03AF92449886100208863FFF72AFD7F
:203D600040F2B7202849086040F2712027490860002027490880274908701B4981F83C00AD
:203D8000012081F83D004FF6FF7088640020C8642148006820B100200865401E486504E042
:203DA000012011490865801E486500200E498865C86508660846006D28B90846806D10B931
:203DC0000846C06D08B1012000E00020064948660846406E11490860012011490860BDEC47
:203DE000068B10BD980200206011002094000020000000000000B0400000000000C0724004
:203E00000000000000408F40880200208C0200209002002092020020300200209C020020C5
:203E2000A00200209FED0A0A0A4880ED000A9FED0A0A0A4880ED000A9FED090A094880ED91
:203E4000000A9FED090A094880ED000A70470000A470C74170020020F6289C3F74020020FD
:203E60009F3C3C407802002096B248407C0200209FED0A0A0A4880ED000A9FED0A0A0A4888
:203E800080ED000A9FED090A094880ED000A9FED090A094880ED000A70470000652AEB416B
:203EA000700200209A99993F740200209F3C3C407802002096B248407C02002010B52DED91
:203EC000028BB0EE408A01F09BFC28B1044880ED0D8A012002498863BDEC028B10BD0000E2
:203EE0006011002070B52DED088B002401F07EFC98B10120FE49C8650020086601200865D6
:203F0000801E4865FB48006828B10020F94908600120F949086001240FE0F548C06D60B1AE
:203F2000F348006E642803D90020F149C86504E0EF48006E401CEE49086602F071F800F014
:203F4000010000B10124ED48006844F64B41884207D2EA480068401CE8490860BDEC088BB9
:203F600070BDE748006800286DD034B10020E049C8644FF6FF7088648CE0DD48066D456D68
:203F800001F048FC58B1DA48806C4FF6FF71884208D2D748806C401CD549886402E0002009
:203FA000D3498864D248C06CB0F5747F08D2D048C06C401CCE49C8644FF6FF7088643DE0A1
:203FC000681C90B10DB9012000E00020C84908650846006D012801D0012000E00020C549D3
:203FE00008600120C449086019E0C148806C40F64271884213D1BE48006D08B9012000E009
:204000000020BB4908650846006D012801D0012000E00020B74908600120B7490860B4484C
:20402000006DB04201D1681C40B10020B049C8644FF6FF7088644FF0FF304865AC48006D79
:2040400000B1012426E001F0E5FBA94988650CBB0846406D401C50B10846406DA549086064
:204060004FF0FF30A24948650120A3490860A048806D18B101209E49086507E09D4800687E
:2040800008B9012000E00020994908659848006D00B101249CB10120954948669948006889
:2040A00020B99948C06B9849C1F8AC0001F090FA012001F0B9FD0120944908604EE78C4823
:2040C000406E10B100208A4908600020884948668D48D0F8C800B0F5106F0EDD8A48D0F869
:2040E000C800B0F5206F08DA4FF40B70884908604FF4FA708749086016E08348D0F8C800B5
:20410000B0F5206F08DD4FF4F370814908604FF4DB708049086007E040F2B7207C490860D2
:2041200040F271207B4908607748406A78490968884241DD01207849087001F075FD774891
:204140000088401C7549088008460088C82832DD7348006800282BDD6B49496A6C4A126876
:20416000881A05F05EFF41EC1B0B9FED6E0B53EC102B05F0A9FF41EC1A0B9FED6C0B53EC48
:20418000102B05F099FD41EC190B9FED6A0B53EC102B05F099FF41EC180B05F0E5FE60492F
:2041A000096808445E4908600846006801F08CFE00205A49088091E057480078012825D110
:2041C00056480088401C55490880012001F02CFD52480088C8280BDD51480068401E50490A
:2041E00008600846006801F06FFE00204B4908804548406A4749096888426FDA002046490D
:20420000087044F64A403A49086067E03848006828B901F0DDF9002001F006FD5EE03448D2
:20422000006868B132480068C32809D2364A916BD2F8AC0001F0C8FB3349C1F8AC004DE0A1
:204240002B480068C32814D1294A51682E4AD2F8AC0001F04FFB394908602B48D0F8AC008D
:204260002F4908600846006801F02EFE01F0B5F934E01F480068C32814D91D480068B0F5BF
:20428000747F0FD2264800682C490968884225DD23480068401E224908600846006801F017
:2042A00013FE1BE012480068B0F5747F07D12348006801F009FE012001F0B6FC0EE00C48EF
:2042C0000068B0F5747F09D90F48D0F8AC1041F2991001F00FFB054601F016FE0448006846
:2042E000401C034908600846006844F64B4127E0601100203002002054020020940200201C
:2043000068010020AC020020940700209C020020880200208C02002092020020900200200F
:20432000800200207B14AE47E17A843F0000000000C07240000000000000B0408402002031
:20434000884202D100200249086000BF06E60000601100202DE9F04304460D4691461E4690
:20436000FF203549087035490870022D60DD4FF00108002711E0E15D0811FFF7EDF9E15DF5
:2043800001F00F00FFF7E8F9E05DB04201D1012000E0002000EA08087F1CA81EB842EADC09
:2043A00026480078B04204D124480078401C2349087021480078B04204D11F480078401C49
:2043C0001D490870B8F1000F0AD0681E205CB04206D1A81E205CB04202D10020BDE8F08363
:2043E000B9F1000F1AD0681E205CB04205D1A81E205CB04201D10120F0E7681E205C0F49F8
:204400000978884207D1A81E205C0B490978884201D10220E2E74FF0FF30DFE707480178DF
:20442000681E215404480178A81E21540120D5E76FF00100D2E70000B4010020B5010020E0
:2044400010B503F013FA03F045F90621184803F033FA00214FF4486004F071FD03F04CFA18
:2044600000201449C870012048711349086006200221002804DB0A07130E104A135406E0C0
:204480000A07140E0E4A00F00F031B1FD45400BF0620002809DB00F01F02012191404209ED
:2044A000920002F1E022C2F8001100BF012010BD7C120020701200200004014000E400E0A4
:2044C00018ED00E0014600BF0029FDD101207047014619B10120044A107102E00120024AD2
:2044E0005071002070470000701200200120024948600249487070470000024070120020D0
:204500000120014908607047140401402DE9FE4FFE48007B48B1FE48C168FE48C1600122A2
:20452000FA490C31083000F0CFFBF848007F48B1F748C168F74841620222F4491C31203009
:2045400000F0C2FBF14890F82C0048B1F048C168F048C1630322ED492C31383000F0DAFA27
:20456000EA4890F8400048B1E948C168E94841650422E6494031503000F0A6FBE34890F88D
:20458000500048B1E248416AE248C1660522DF495031683000F098FBDC4890F8600048B1BC
:2045A0000021DC48C0F884100622D8496031803000F08AFBD54890F8700058B1D448D0F869
:2045C000B810D448C0F89C100722D0497031983000F07AFBCD4890F88000002849D0CD4810
:2045E00090F8B00000B900BFCA4890F8B000012808D100BF0020C74981F8B000002108205E
:2046000000F0BAFEC34890F8B000012809D1C248D0E900104FF480731943BF4AC2E9001083
:2046200006E0BD4903C96FF480721040BA4A03C2B84890F8B000012810D1B44890F880000E
:2046400002280BD1B4480830D0E900104FF480721143B14A0832C2E900100AE0AE480830C6
:20466000D0E900106FF480721140AB4A0832C2E90010A64890F88100002845D0A54890F838
:20468000B10000B900BFA34890F8B100012808D100BF00209F4981F8B1000021092000F0A0
:2046A0006BFE9C4890F8B100012807D19A4903C94FF400731843984A03C208E09648D0E98D
:2046C00000106FF400721140934AC2E90010914890F8B10001280ED18C4890F881000228EB
:2046E00009D18D49083103C94FF4007318438A4A083203C208E08849083103C96FF400728E
:204700001040854A083203C2804890F88200002856D0804890F8B20060B97D48D0F8C400EF
:2047200040B101207B4981F8B20001210A2000F023FE10E0774890F8B20001280BD1744871
:20474000D0F8C40038B90020724981F8B20000210A2000F011FE6F4890F8B200012809D198
:204760006D48D0E900104FF4806319436A4AC2E9001008E06848D0E900106FF480631940CA
:20478000654AC2E90010634890F8B20001280ED15E4890F88200022809D15F49083103C961
:2047A0004FF4806210435C4A083203C208E05A49083103C96FF480621040574A083203C217
:2047C000002495E0042C04DC50488330005D002874D0204601F040FC70B14E48B330005D92
:2047E00028B904F10B01C8B2012100F0C5FD01214848B33001550EE04648B330005D0128B9
:2048000005D104F10B01C8B2002100F0B5FD00214048B33001553F48B330005D012814D1CD
:204820003D48A03804F10B0201250026D0E9289A28463146FDF7B7F949EA00094AEA010A4E
:204840003548A038C0E9289A16E03348A03804F10B0201274FF00008D0E9289A384641465E
:20486000FDF7A1F90A46C14309EA01092AEA020A2948A038C0E9289A042C20DC2548B33009
:20488000005D01281BD121488330005D022816D12148A03804F10B024FF0010BD0E92A9A11
:2048A0000020009058460099FDF77DF949EA00094AEA010A1848A038C0E92A9A17E0164832
:2048C000A03804F10B020121D0E92A9A0020CDE9010108460199FDF766F90A46C14309EA05
:2048E00001092AEA020A0C48A038C0E92A9A641C072CFFF667AF054890F8880088B3054852
:2049000090F8BA00012810D1034907E09400002094070020D0050020B005002003C94FF4D0
:2049200080221043404A03C206E03F4903C96FF4802210403C4A03C23C4890F8BA0001286A
:2049400010D13B4890F8880002280BD136480830D0E900104FF480221143334A0832C2E9C3
:2049600000100AE030480830D0E900106FF4802319402D4A0832C2E900102C4890F8D80025
:2049800058B9FEF781FA40B90120284981F8D8000121142000F0F0FC0FE0244890F8D800CD
:2049A00001280AD1FEF770FA38B100201F4981F8D8000021142000F0DFFC1C4890F8D800EE
:2049C000012809D11848D0E900104FF480121143154AC2E9001006E0134903C96FF4801265
:2049E0001040114A03C2114890F8D80001280ED10F4890F88100022809D10B49083103C9C9
:204A00004FF480131843084A083203C20AE006480830D0E900106FF480121140024A08320F
:204A2000C2E90010BDE8FE8FB0050020D0050020940000207CB5FFF769FD3548D0F8B40085
:204A400018B13348D0F8B80000B17CBD3048D0F894002F49D1F89810401AB0F5805F04D336
:204A600000F0B0FC002800DAEFE700244CE0C4EBC400274908584FF6FF71884212D1C4EB1E
:204A8000C40023490844D0F802004FF6FF71884208D1C4EBC4001E49084440684FF6FF71F5
:204AA00088422FD01A49D1F89400082100F030FD002826DB8DF80040002508E0C4EBC400B9
:204AC00028441349095C681C0DF800106D1C072DF4D30821684600F02FFD002811DB002560
:204AE00006E0FF20C4EBC4012944094A50546D1C072DF6D30648D0F8940008300449C1F86B
:204B00009400A2E7601CC4B2142CB0DD00BF9CE7100500202DE9F04F85B004468846174643
:204B200001F084FD05460E4600200090207801280ED1D4E90430D8F81010591840F1000091
:204B4000691A76EB000003D2002005B0BDE8F08FD4E90201884201DB012000E00020814655
:204B6000D4E90101884202DBB9F1000F06D1D4E90101884222DCB9F1000F1FD1207810B1B6
:204B80002078022804D103202070C4E9045615E02078032812D1D4E90431D8F80C001A1829
:204BA00041F10000A91A76EB000007D3012020700121384600F0E0FB01200090E1686068E7
:204BC000884202DCB9F1000F06D1E1686068884223DBB9F1000F20D12078012802D02078EF
:204BE000032804D102202070C4E9045615E02078022812D1D4E90431D8F80C001A1841F130
:204C00000000A91A76EB000007D3002020700021384600F0B1FB012000902078012802D067
:204C2000207802280DD12748D0E9281C012000FA07F211434CEAE270224AA032C2E900107F
:204C40000BE02049A03103C90122BA40D243104001EAE2711B4AA03203C22078012802D014
:204C60002078022817D198F80000022813D115483A460121D0E92AAB0020CDE90101084639
:204C80000199FCF790FF4AEA000A4BEA010B0D48C0E92AAB14E00B483A460121D0E92AAB2F
:204CA0000020CDE9030108460399FCF77CFF0A46C1430AEA010A2BEA020B0248C0E92AAB85
:204CC000009842E7100500202DE9F04F89B004468846174601F0AAFC05460E4600200090F5
:204CE000D4E90201884201DB012000E000208146D4E90101884202DBB9F1000F06D1D4E9B3
:204D00000101884222DCB9F1000F1FD1207810B12078022804D103202070C4E9045615E081
:204D20002078032812D1D4E90421D8F80C00121841F10000A91A76EB000007D30120207004
:204D40000121384600F018FB01200090E1686068884202DCB9F1000F06D1E16860688842DB
:204D600023DBB9F1000F20D12078012802D02078032804D102202070C4E9045615E020781A
:204D8000022812D1D4E90430D8F80C10591840F10000691A76EB000007D3002020700021F8
:204DA000384600F0E9FA012000902078012802D02078022813D130483A460121D0E928AB12
:204DC0000020CDE9010108460199FCF7ECFE4AEA000A4BEA010B2848C0E928AB14E0264869
:204DE0003A460121D0E928AB0020CDE9030108460399FCF7D8FE0A46C1430AEA010A2BEA90
:204E0000020B1D48C0E928AB2078012802D02078022817D198F80000022813D116483A46EB
:204E20000121D0E92AAB0020CDE9050108460599FCF7B9FE4AEA000A4BEA010B0E48C0E9D2
:204E40002AAB14E00C483A460121D0E92AAB0020CDE9070108460799FCF7A5FE0A46C1434F
:204E60000AEA010A2BEA020B0348C0E92AAB009809B0BDE8F08F00001005002070B505462E
:204E800000204F49C1F8B800002D7DDBC1F89C004FF48030C1F898000846D0F89800C1F864
:204EA000940048480078012803D10121002000F063FA4448007A012803D10121084600F067
:204EC0005BFA404890F82000012803D10121022000F052FA3B4890F83800012803D101216E
:204EE000032000F049FA374890F85000012803D10121042000F040FA324890F86800012805
:204F000003D10121052000F037FA2E4890F88000012803D10121062000F02EFA294890F881
:204F20009800012803D10121072000F025FA254890F8B000012803D10121082000F01CFA92
:204F4000204890F8B100012803D10121092000F013FA1C4890F8B200012803D101210A2084
:204F600000F00AFA00240BE01648B330005D012805D104F10B01C8B2012100F0FDF9641C8E
:204F8000072CF1DB0F4800E019E090F8BA00012803D10121122000F0EFF90A4890F8C000DD
:204FA000012803D10121132000F0E6F9054890F8D800012803D10121142000F0DDF970BDDD
:204FC00010050020D005002001200249C1F8B8007047000010050020014903C97047000011
:204FE000B00500204FF4005070470000074890F8B000064991F8B41040EA4100034991F82F
:20500000B81040EA8100C0B270470000100500202DE9F0474FF0000900206E49C1F8B000EA
:20502000C1F8B400C1F8B80000F0DAF800206A490870087281F8200081F8380081F85000F8
:2050400081F8680081F8800081F8980081F8B00081F8B10081F8B200002404E000215E4818
:20506000B3300155641C072CF8D300205A4981F8BA0081F8C00081F8D800564AA032106017
:2050800050600021083211605160002252498A61CA610021504A116351639164D16411668C
:2050A00051669167D16780321161516118321061506100224848C03002614261002403E018
:2050C000FF2044490855641C932CF9D34FF480304049C1F8940020E03E49D1F8940000F01F
:2050E00001FA4FF6FF71884210D13A48D0F894003A4908403749C1F898000846D0F898002D
:20510000A0F58030000BC1F89C000FE03148D0F8940008302F49C1F89400FFF763FF00F5DC
:2051200080302C49D1F894108842D5D800BFFFF759FF00F580302749D1F89410884243D1F9
:205140004FF0FF352E4600202249C1F89C001DE02049D1F89C10491C4FF4803202EB013134
:20516000A1F1080000F0C8F907468846781B78EB060104D23D4646461648D0F89C90154838
:20518000D0F89C00401C1349C1F89C001148D0F89C000228DCD30F48C0F89C90D0F89C0069
:2051A0004FF4803101EB00300A49C1F898000846D0F89800C1F89400D1F8940000F06AF990
:2051C000002801DABDE8F08701200249C1F8B40000BFF7E710050020D005002000F0FF0021
:2051E00010B52DED068B5C4890ED090A10EE101A084605F087F941EC1A0B9FED580B53ECA0
:20520000102B04F059FD41EC190B9FED560B53EC102B04F059FF41EC180B04F0A5FE534982
:20522000C8624D4890ED0C0A10EE101A084605F069F941EC1A0B9FED490B53EC102B04F0AF
:205240003BFD41EC190B9FED470B53EC102B04F03BFF41EC180B04F087FE444908643E48F7
:2052600090ED0D0A10EE101A084605F04BF941EC1A0B9FED3A0B53EC102B04F01DFD41EC13
:20528000190B9FED380B53EC102B04F01DFF41EC180B04F069FE354948642F4890ED110AAD
:2052A00010EE101A084605F02DF941EC1A0B9FED2B0B53EC102B04F0FFFC41EC190B9FED03
:2052C000290B53EC102B04F0FFFE41EC180B04F04BFE26498865204890ED120A10EE101A1D
:2052E000084605F00FF941EC1A0B9FED1C0B53EC102B04F0E1FC41EC190B9FED1A0B53ECD2
:20530000102B04F0E1FE41EC180B04F02DFE1749C865114890ED1A0A10EE101A084605F01E
:20532000F1F841EC1A0B9FED120B53EC102B04F0C3FC41EC190B9FED0B0B53EC102B04F0FB
:20534000C3FE41EC180B04F00FFE0849C1F88C00BDEC068B10BD00009400002000000000EA
:2053600000E06F40000000000000B040D005002000000000009070407CB505460E46104851
:20538000D0F8B000D0B101F051F947F6FF721140CDE900012EB1531CDDE900101843CDE9EE
:2053A0000010002407E01DF80400C5EBC5012144034A5054641C072CF5D300BF7CBD00007A
:2053C0001005002010B513490222D1F89C00012101F0CCFA04464FF4803101EB043000F0C7
:2053E00059F8002802DA4FF0FF3010BD0948C0F89C40D0F89C004FF4803101EB0030054976
:20540000C1F898000846D0F89800C1F894000020EBE700001005002010B501200549C1F82C
:20542000B0000548007A18B101210020FFF7A4FF10BD0000100500209400002003480078D8
:20544000022802D10020014988607047B006002010B503460D48007810B14FF0FF3010BD99
:2054600001200A4C20700A481840606020464068181A0844401E064C204000F58050034C0B
:20548000A060204602620020E9E70000B006002000F0FF00014600207047000001480078AE
:2054A00070470000B00600200148007870470000B006002010B500200749087000210648F5
:2054C00041618161243004490861C0212438C161042000F059FF10BDB006002010B50446C1
:2054E000002010BD18B504460023042221466846FFF7F4FF009818BD1CB50446002308228C
:2055000021466846FFF7EAFFDDE900011CBD000002460848007810B14FF0FF3070470220DF
:20552000044B18700020D8601846426081600020F4E70000B00600202DE9F04105460E46A4
:205540001248007802281ED110488068B04202D20E48806800E030460746002408E0295DE7
:205560000A48103001F00CFA002800DA02E0641CBC42F4D300BF05488068001B0349886036
:205580002046BDE8F0814FF0FF30FAE7B006002010B510210A48016003F064FC01F02AFF54
:2055A0000848C07850B1084890ED000A00F0AEFC064908800846008802F040F810BD00004D
:2055C00088740140701200203C0400202804002010B50020FEF77CFF10BD10B50120FEF743
:2055E00077FF10BD10480068092803D300200E49086004E00C480068401C0B4908600A48B8
:2056000000680A490968884206D20948006840F004000749086005E00548006820F0040069
:205620000349086070470000A4020020A8020020140C00481948006800F4807080B11848C9
:205640000068012808D117480068642804DA15480068401C1349086000201149086002E006
:2056600001200F4908600D48006800F4007080B10D480068012808D10C480068642804DA12
:205680000A480068401C0949086000200649086002E0012004490860704700001008004894
:2056A000C4020020B8020020C0020020BC02002070B52DED028B4048046840480568002095
:2056C0003D4908603D4908603D48006898B1642C01DB642D0FDA01203A49086000F096FC44
:2056E000002000F0FBF800203549086036490860BDEC028B70BD3348006860B13248006881
:20570000401C31490860084600680F2851D300202C4908604DE02D4890ED000AF7EE000A25
:2057200030EE200A2A4880ED340A90ED340A2748D0ED000AB4EEE00AF1EE10FA04DC244852
:20574000D0F8D400012829D1214890ED0B0A10EE101A084604F0D6FE41EC180B9FED1D0B4D
:2057600053EC102B04F0AEFD05D91948D0F8C800B0F5006F0BDDB2EE040A144880ED000AC4
:205780000A2000F0ABF801200D49086011E0002000F0A4F800200A4908600AE0B3EE0F0A51
:2057A0000A4880ED000A002000F098F800200449086000BF9CE70000B8020020BC020020B1
:2057C000D0020020D4020020D8020020B40200209407002000000000000000400248006864
:2057E000012121EA50007047100400480348006800F0010080F001007047000010080048ED
:20580000034890ED1F0ABDEEC00A10EE100A7047100000200348006800F0010080F001000E
:2058200070470000100400481E48406940F4E0101C4948611C48006820F470401A490860B9
:205840000846006840F4A04008601848006820F03000164908600846006840F010000860E9
:205860001148006820F470200F4908600020104908601049086064200F4908600F4908605D
:2058800000200F4908600F4908600F4908600F4908600F49086001200E4908600E49086089
:2058A000704700000010024000080048000C0048B0020020AC020020B8020020BC020020E3
:2058C000D0020020D4020020C8020020CC020020D8020020C0020020C40200200A2802D83A
:2058E0000349086002E00A21014A116070470000A8020020024602FB01F303F500631813EB
:205900007047000010B5FFF78FFF002403E00A2001F0A8F8641CB4F57A7FF8D34FF4C06075
:20592000FCF7ACFB01F04AF802F028F9FDF7CCFA00F082FE00F0D2FC00F05CFD00F0E0FD89
:2059400000F05EF800F0BEFDFFF762FB00F03AFDFDF732FB00F070FBFEF76EF903F096FB80
:2059600002490869FCF78AFB10BD00001000002010B502F003F9FDF7A7FAFCF779FB0446FD
:20598000FCF77CFBFEF758F9FDF714FFFFF728FC10BD70B505460C46641B002C01DA60427F
:2059A00000E02046B0F5FA7F07DC002C01DA6D1E08E0002C06DD6D1C04E021460820FFF725
:2059C00099FF0544284670BD70B505460C46641B002C01DA604200E02046052807DC002CDF
:2059E00001DA6D1E09E0002C07DD6D1C05E0214640F23330FFF77EFF0544284670BD000087
:205A000010B52DED068B7648006A764908607448C0694860744890ED2A0A10EE101A084657
:205A200004F070FD41EC1A0B9FED700B53EC102B04F042F941EC190B9FED6E0B53EC102B33
:205A400004F042FB41EC180B04F08EFA6549C8609FED6A0A084680ED040A6148806A88612E
:205A60005F48416A5F48C161002141629FED640A80ED0A0A5A48006B5A4908635848C16AE6
:205A800058484163584890ED290A10EE101A084604F038FD41EC1A0B9FED5A0B53EC102B16
:205AA00004F00AF941EC190B9FED520B53EC102B04F00AFB41EC180B04F056FA4949C863F1
:205AC0009FED520A084680ED100A4548806B404288644348406B41424248C16400214165F4
:205AE0009FED470A80ED160A3D48006C3D4908663B48C16B3B4841660021C1663848806CCA
:205B0000384908673648416C364841670021C1673348006D3349C1F880003148C16C31483F
:205B2000C0F8841040F6C411C0F88C102C48806D2C49C1F890002A48416D2A48C0F89410AD
:205B40000021C0F89C1000202649C1F8A0009FED300A084680ED290A0020C1F8AC009FED13
:205B60002B0A084680ED2C0A0020C1F8C8009FED290A084680ED330A0020C1F8D4004FF4B7
:205B8000C830C1F8B8009FED240A084680ED2F0A0020C1F8C400C1F8D800084690ED0A0AE1
:205BA000F0EE000A80EE201A11EE104A204604F0A9FC41EC190B9FED190B53EC102B04F08E
:205BC0007BF841EC180B03F091FF00EE100A054880ED370A012013490860BDEC068B10BD90
:205BE0001000002094070020940000200000000000E06F40000000000000B04000007F3DCB
:205C00000080843D0000000000C072400000963D00469B410000203D0000C83C000000007B
:205C20000020AC40B80100200149086070470000B801002010B55348C06800EE100A524813
:205C400080ED050A90ED050AD0ED040A80EE201ABDEEC10A10EE100A4B4988600846806889
:205C6000C8604848806800EE100A084680ED0B0A90ED0B0AD0ED0A0A80EE201ABDEEC10A2B
:205C800010EE100A08620846016A41623D48406800EE100A3C4880ED110A90ED110AD0ED90
:205CA000100A80EE201ABDEEC10A10EE100A364988633648006830B10A46916BD06BFFF7E6
:205CC00068FE3149C8632F48006800EE100A2E4880ED170A90ED170AD0ED160A80EE201AAB
:205CE000BDEEC10A10EE100A274908650846016D41652748406900EE100ABDEEC00A10EE44
:205D0000100A214988661F48406900EE100ABDEEC00A10EE100AC86600211B48C167C0F8DA
:205D20008C10C0F89C109FED1B0A80ED2D0A00201549C1F8C4001648806A00EE100ABDEE18
:205D4000C00A10EE100AC1F8C8000E48806A00EE100A084680ED340A0020C1F8D4000B489F
:205D6000006870B10A46116D906BFFF7C3FD04460549D1F8A0002146FFF70BFE0249C1F8B0
:205D8000A00010BD4012002094070020B801002010120020000000000448D0F8D810406AA8
:205DA00008440249C1F8D80070470000940700202DE9F04100F09EFB0746781C40B94FF45C
:205DC00080603B49C1F8B8000120C1F8C40016E000F090FBA0F58848A8F149084FEA08301F
:205DE000C11700EB91618911642291FBF2F1304AC2F8B81000201146C1F8C40000BF2C483C
:205E0000D0F8B80000EE100AB8EEC00A2848D0ED2F0A20EE200A80ED300AD0F88C4040F67B
:205E20001C40844208DD4FF420702149C1F8C8000120C1F8D4002AE000201D49C1F8D400D2
:205E4000552C01DA552404E040F6D520844200DD0446A4F15500C11700EB91618D116E1CAA
:205E6000144951F82610134A52F82520891A0246A2EB851201FB02F0C11700EB91610D4A51
:205E800052F8252002EBA111094AC2F8C8100848D0F8C80000EE100AB8EEC00A0448D0ED8E
:205EA000330A20EE200A80ED340ABDE8F081000094070020BCA6000810B5FEF713F8FFF7CC
:205EC000B9FB00F039FB10BD70B505462C46B4F5805F01DB40F6FF74282C00DA282400EEC6
:205EE000104AB8EE400ADFED060A20EE200A054880ED000A90ED000A03F0B0F870BD000031
:205F00000000963D0003002070470000374800884FF47A7148433649098890FBF1F035491A
:205F2000086008460068344991FBF0F0314908603248407A98B92D480088C8382B490880FA
:205F40002C48006840422B490860284800884CF6E831884210D10120284948720CE0234866
:205F60000088C8302149088008460088B0F57A4F02D10020214948721C480188204801609E
:205F80002048406800EE900AF4EEC00AF1EE10FA02D26FF0090000E00A201B490880144846
:205FA00000880988084412490880002013490872C8710F480088B0F5074F07DB4FF4074024
:205FC0000B49088001200D49C8710BE008480088B0F5346F06DC4FF434600549088001207A
:205FE0000649087202480088704700002A0400202804002030040020400D0300701200206F
:2060000094740140401200202C0400200348006840F0400001490860704700007808002049
:206020000448006820F0400008B1012070470020FCE700007808002010B50020054948604D
:206040008860C860086148618861C861086200F0A9FC10BD78080020014603480068012283
:206060008A401040704700007808002010B52DED088B40F677703B4908604FF47B703A4983
:20608000086040F26F5039490860394890ED2B0AF0EE080A30EE200A10EE101A084604F0E8
:2060A00031FA41EC1A0B9FED330B53EC102B03F003FE41EC190B9FED310B53EC102B04F0A4
:2060C00003F841EC180B03F04FFF2E490860284890ED2A0A10EE101A084604F013FA41EC90
:2060E0001A0B9FED240B53EC102B03F0E5FD41EC190B9FED220B53EC102B03F0E5FF41ECE9
:20610000180B03F031FF20490860194890ED2D0A10EE101A084604F0F5F941EC1B0B9FED1C
:206120001B0B53EC102B03F0CFFF41EC1A0B9FED110B53EC102B03F0BFFD41EC190B9FEDFE
:206140000F0B53EC102B03F0BFFF41EC180B03F00BFF104908604FF47B700F490860BDEC55
:20616000088B10BDBC010020C0010020C4010020940000200000000000E06F4000000000D9
:206180000000B040CC010020D0010020CDCCCCCCCCCCEC3FD4010020C801002010B52DED80
:2061A000088B40F699103B49086040F221503A49086040F26F5039490860394890ED2B0AE5
:2061C000F0EE080A30EE200A10EE101A084604F099F941EC1A0B9FED330B53EC102B03F002
:2061E0006BFD41EC190B9FED310B53EC102B03F06BFF41EC180B03F0B7FE2E490860284800
:2062000090ED2A0A10EE101A084604F07BF941EC1A0B9FED240B53EC102B03F04DFD41ECFE
:20622000190B9FED220B53EC102B03F04DFF41EC180B03F099FE20490860194890ED2D0A08
:2062400010EE101A084604F05DF941EC1B0B9FED1B0B53EC102B03F037FF41EC1A0B9FEDF8
:20626000110B53EC102B03F027FD41EC190B9FED0F0B53EC102B03F027FF41EC180B03F0A4
:2062800073FE1049086040F221500F490860BDEC088B10BDBC010020C0010020C4010020BD
:2062A000940000200000000000E06F40000000000000B040CC010020D0010020CDCCCCCC9C
:2062C000CCCCEC3FD4010020C801002002480068401C014908607047000400200020034916
:2062E00008601420024908607047000000040020FC03002070B52148056800201F4908606A
:20630000002435E004EB44001D4901EB80004068401B04EB44011A4A02EB8101486004EB9E
:206320004400114601EB8000406800281FDC04EB440102EB81018868804710E004EB44000E
:206340000F4901EB8000406804EB44010C4A52F82110084404EB440102EB8101486004EB46
:206360004400074901EB800040680028E6DD641C044800688442C5D370BD000000040020A7
:206380000C030020FC03002001460020704700000B4890F80C010A4991F8101140EA410140
:2063A000074890F81401064A92F81C21104341EA8000034991F8181140EAC100C0B27047CA
:2063C000A008002000200649C1F80C01C1F81401C1F81801C1F81C010120C1F810017047A8
:2063E000A008002070470000014903C970470000E00200200021024A116051607047000009
:20640000E00200202DE9F04100242BE0174850F8240030B3A2000F25002628463146FBF783
:20642000C2FB0A46C143D043114AD2E90032194010400F4AC2E900100C4951F824008047AA
:2064400000210F2200EA020701EA0108A20038464146FBF7A8FB064B0CCB10431943044AA2
:2064600003C2641C102CD1D3BDE8F0816CA70008E002002010B504480068401E024908603A
:20648000FFF724FF10BD0000000000200548006840F47000034908604FF000600149803947
:2064A0000860704788ED00E0054800680449C96809B1012100E0002140EA4100C0B27047C4
:2064C000C811002000200949086048608860C8604FF4C03088614FF40010C8610846C06922
:2064E0008969401A0149886270470000C81100207047000001480068704700001404002015
:2065000010B50020074908600749086007490860FFF764F90649086044F6892005490860CB
:2065200010BD000004040020080400200C04002010040020140400202DE9F047FFF74EF914
:20654000044624B12648006808B9012000E0002005462348046023480068401C2149086049
:2065600045B1084600682049086020480068401C1E4908601B480068B0F5F46F2ED91B4866
:20658000006820B119480068B0F5C87F04D34FF0FF30174908601AE014480068B8B113487E
:2065A000006842F21071484386010F4800684FF40071A0FB01700146642200233846FBF7CD
:2065C0007BFA8146B6FBF9F00949086000BF0020044908600549086003490860BDE8F08711
:2065E00010040020040400200C040020080400201404002010B54FF08040006900F001008D
:2066000038B16FF001004FF08041086101480068804710BD6404002010B56FF0010002498B
:206620000860FFF749FC10BD100400400149086849687047E001002000200749086007494B
:2066400008600021064A11605160064A116051600120054908607047F8010020E80100201D
:20666000E0010020F0010020EC01002070B504460D460448006818B92046294600F004F8F3
:2066800070BD0000F80100202DE9F04104460D460D48046045600D4A002301460868496890
:2066A000FBF70AFA094B0022A0FB036701FB037100FB02100649C1E90060012005490860BC
:2066C000FEF7AAFEBDE8F081E0010020005C2605F0010020F80100202DE9F0416F4A1268DB
:2066E00002F0400252B36D4A1C3A126822F040026A4B1C3B1A606A4A1278032A05D01A4660
:20670000126822F040021A6024E0664A1278664B1B689A4213D2614A1C3A126842F040020F
:206720005E4B1C3B1A605F4A13781278521C5D4D2A705E4AD25C594B0C331A800AE0002210
:20674000574B1A70554A1C3A126822F04002534B1C3B1A60514A126802F020022AB94F4A36
:20676000126802F00802002A7CD04C4A1C3A126822F02002494B1C3B1A600822474B1B1D3A
:206780001A601A1D1288D4B2454A1278022A79D0434A1278032A75D0FFF748FF444AD2E98B
:2067A00000624FF47A75731942F100021B1A8A4106D33F4AD2E90032C31A71EB020205D221
:2067C0000022374B1A70FF223A4B1A70384A03C2022C10D1374A1278102A0CD1364B1A70D8
:2067E00002225A70354B1A700022354B1A7001222B4B1A7046E02A4A1278012A3BD12F4A7E
:2068000013781278521C2D4D2A702B4AD4542A461278042A10DC2A461278032A01D1102CFB
:2068200007D1264A1278042A2CD1224A1278102A28D1234A147025E0204A1278204B1B784A
:206840009A4214DC1B4A1278102A1BD1032C19D11A4A12781A4B1B789A4204D10222104B28
:206860001A700FE018E000220D4B1A700AE000220B4B1A7006E0102C04D10E4A1278102AA4
:2068800000D1FF240B4A1470044A1C3A126842F02002024B1C3B1A60BDE8F0811C380140F0
:2068A000040200200002002018020020C80900201002002003020020C60A002001020020FB
:2068C0000202002010B51448006800F0200090B11148001D006840F008000F49091D0860BE
:2068E0000E48006880470C48001F006840F008000949091F08600848006800F0800050B1F5
:206900000548001F006840F010000349091F086003480068804710BD1C4800405C0400201C
:206920006004002010B502460B460020002102E0545C2044491C9942FAD310BD30B5014638
:2069400042F21072002004240DE0914207D3B1FBF2F3A50003FA05F5284403FB12110A25B6
:20696000B2FBF5F2641E002CEFDA30BD084400E0801A9042FCDA00E010440028FCDB7047C7
:2069800002464FF0FF30704710B505480079032802DAFDF76DFA01E0FDF744FA10BD0000BD
:2069A0003402002010B50448407910B9FFF7F6FB01E0FFF75BFB10BD3402002070470028D8
:2069C00009DB00F01F02012191404209920002F1E022C2F80011704710B5002804DB0A079E
:2069E000130E054A135406E00A07140E034A00F00F031B1FD45410BD00E400E018ED00E080
:206A00004FF09040006840F0FF004FF0904108600846C06860F0FF00C8600F4800680F4954
:206A200008430D4908600C480C3000680B49C943084309490C3108600948006840F0FC00CE
:206A40000749086006480C30006860F0FC0004490C3108607047000000040048300000F328
:206A6000000800487047000000B50448006800F0400008B102F0FAFA00BD00001C48004076
:206A800010B5002406480078012806D105480068804700200249087000E00624204610BDAB
:206AA000460400204C0400202DE9F05F06460D464FF0000B2888052848D170784FEA00296E
:206AC000B07840EA090909F101001FFA80F9F078040230790443012C35DBB4F5FA6F32DA0C
:206AE000374600202880012007F8010B2888401C288004F0070040B12046E11704EB517176
:206B0000C910491C01F0FF0805E02046E11704EB5171C1F3C70807F8018B2888401C288089
:206B2000002322464946384600F010FC8246BAF1000F04D0504602F0F1F9834608E0288898
:206B40004044288004E04FF0030B01E04FF0030B5846BDE8F09F2DE9F05F06460D464FF095
:206B6000000B2888052847D170784FEA0029B07840EA090909F101001FFA80F9F07804026C
:206B800030790443012C34DBB4F5FA6F31DA374600202880022007F8010B2888401C288086
:206BA00004F0070040B12046E11704EB5171C910491C01F0FF0805E02046E11704EB5171B0
:206BC000C1F3C70807F8018B2888401C288022464946384600F0BEFB8246BAF1000F04D07F
:206BE000504602F09BF9834608E028884044288004E04FF0030B01E04FF0030B5846BDE84A
:206C0000F09F2DE9F04705460C464FF0000A2088052837D168784FEA0028A87840EA08083A
:206C200008F101001FFA80F8E87806022E79012E25DB7D2E23DC2F4600202080032007F88A
:206C4000010B2088401C20807006000E07F8010B2088401C2080002332464146384600F0C1
:206C60007DFB8146B9F1000F04D0484602F056F9824609E0208800EB4600208004E04FF02C
:206C8000030A01E04FF0030A5046BDE8F0872DE9F04705460C464FF0000A2088052837D1F8
:206CA00068784FEA0028A87840EA080808F101001FFA80F8E878060228790643012E24DB2E
:206CC0007D2E22DA2F4600202080042007F8010B2088401C20807006000E07F8010B2088CE
:206CE000401C208032464146384600F07FFB8146B9F1000F04D0484602F010F9824609E023
:206D0000208800EB4600208004E04FF0030A01E04FF0030A5046BDE8F0872DE9FC5F044630
:206D20000D460020009028880A285DDB60784FEA002AA07840EA0A0A0AF101001FFA80FA16
:206D4000E07806022079064360794FEA002BA07940EA0B0B0BF101001FFA80FBE079070268
:206D6000207A0743607A0190012E3BDB7D2E39DC012F37DB792F35DC79000198814231D1ED
:206D800001233A46594604F10A0000F0E7FA8146B9F1000F1ED1A04600202880172008F88C
:206DA000010B2888401C28807006000E08F8010B2888401C2880002332465146404600F027
:206DC000CDFA8146B9F1000F04D12888022101FB06002880B9F1000F06D0484602F09EF875
:206DE000009001E0032000900098BDE8FC9F000070B505460C46064802880649681CFAF739
:206E000016FF03480088401C2080002070BD0000FA040020F41200202DE9F84304460F460D
:206E20004FF000083888052829D160780502A0780543681C85B22079F0B9E078FF2801D098
:206E4000E078C8B900208DF80100E078FF2803D101208DF8000002E000208DF8000001230F
:206E60001A462946684600F071FA06464EB1304602F054F8804604E04FF0030801E04FF027
:206E800003084046BDE8F8832DE9F04104460F464FF000083888052812D160780502A0784D
:206EA0000543681C85B201231A462946E01C00F055FA064636B1304602F030F8804601E037
:206EC0004FF003084046BDE8F0812DE9F05F05460E464FF0000B3088052839DD687807029A
