:020000040800F2
:10000000800E00201D0200082502000827020008BB
:10001000290200082B0200082D0200080000000041
:100020000000000000000000000000002F02000897
:10003000310200080000000033020008D106000869
:1000400037020008370200083702000837020008AC
:10005000370200083702000837020008370200089C
:10006000370200083702000837020008370200088C
:10007000370200083702000837020008370200087C
:10008000370200083702000837020008370200086C
:10009000370200083702000837020008370200085C
:1000A000370200083702000837020008370200084C
:1000B000370200083702000800000000370200087D
:1000C00037020008000000000000000037020008AE
:1000D000000000003702000837020008370200085D
:1000E000370200083702000800000000000000008E
:1000F0000000000000000000000000000000000000
:1001000000000000000000000000000000000000EF
:10011000000000000000000037020008370200085D
:1001200000000000000000000000000000000000CF
:1001300000000000000000000000000000000000BF
:1001400037020008370200080000000037020008EC
:10015000370200083702000837020008370200089B
:10016000370200083702000800000000000000000D
:10017000000000000000000000000000000000007F
:10018000000000003702000800F002F800F037F825
:100190000AA090E8000C82448344AAF10107DA45E2
:1001A00001D100F02CF8AFF2090EBAE80F0013F0FD
:1001B000010F18BFFB1A43F0010318477410000029
:1001C000841000000023002400250026103A28BFD8
:1001D00078C1FBD8520728BF30C148BF0B607047B9
:1001E0001FB500F00FFF9DE8030000F0A3F900F039
:1001F000ABF81FBD10B5002000F035F910BD00F0C0
:1002000057F91146FFF7ECFF00F0FEFD00F0EFF9A3
:1002100003B4FFF7EFFF03BC00F0F2FD094880478D
:1002200009480047FEE7FEE7FEE7FEE7FEE7FEE7D8
:10023000FEE7FEE7FEE7FEE704480549054A064BF0
:1002400070470000E50600088901000880080020CA
:10025000800E0020800A0020800A002070470B4694
:100260000146184600F083B8032A40F2308010F0AF
:10027000030C00F0158011F8013BBCF1020F624441
:1002800098BF11F801CB00F8013B38BF11F8013BD2
:10029000A2F1040298BF00F801CB38BF00F8013B7F
:1002A00011F0030300F07A80083AC0F0088051F89A
:1002B000043B083A51F804CBA0E80810F5E7121DFA
:1002C0005CBF51F8043B40F8043BAFF30080D20719
:1002D00024BF11F8013B11F801CB48BF11F8012BE5
:1002E00024BF00F8013B00F801CB48BF00F8012B08
:1002F00070474FF0000200B51346944696462039E9
:1003000022BFA0E80C50A0E80C50B1F12001BFF4CE
:10031000F7AF090728BFA0E80C5048BF0CC05DF834
:1003200004EB890028BF40F8042B08BF704748BF82
:1003300020F8022B11F0804F18BF00F8012B7047F6
:10034000704770477047000070B5064C7C44064DFE
:100350007D4403E0206820448047241DAC42F9D14D
:1003600070BD0000F00E0000F00E000070472DE997
:10037000F041074615460E46102000F045F80400EF
:100380000AD06760C4E9026500F03AF801682160AC
:1003900004600020BDE8F0810120FBE710B5203AA1
:1003A000C0F00B80B1E81850A0E81850B1E8185020
:1003B000A0E81850203ABFF4F5AF5FEA027C24BFF2
:1003C000B1E81850A0E8185044BF18C918C0BDE8DB
:1003D00010405FEA827C24BF51F8043B40F8043BA4
:1003E00008BF7047D20728BF31F8023B48BF11F859
:1003F000012B28BF20F8023B48BF00F8012B7047B3
:10040000004870473800002070B5064600F076F8C6
:10041000056806F10B0020F00704B4429CBF0020E1
:1004200070BD2B466A68BAB11068A04210D304F1BF
:10043000080188423CBF5068586007D351681019C2
:1004400041601168091B016058601460101D70BD87
:1004500013465268002AE7D12146284600F056F894
:100460000028DED170BD2DE9F0410646FFF7C8FF38
:100470008046454613E016B1E068B0420ED12068D0
:100480002860D4E90101D8F800708847204600F0C0
:1004900087F8D8F80000B842EBD100E025462C6878
:1004A000002CE8D1BDE8F081004870470000002032
:1004B0007546FFF7F9FFAE4605006946534620F042
:1004C0000700854618B020B5FFF7B6FEBDE820400E
:1004D0004FF000064FF000074FF000084FF0000B00
:1004E000AC46ACE8C009ACE8C009ACE8C009ACE86F
:1004F000C00921F007018D46704700000048704791
:1005000008000020704770477047704738B50446B0
:100510000A4600206946AFF30080002808BF38BDB6
:1005200002460099204600F06BF8012038BD0120FA
:1005300000F080B8F8B5AFF30080054600200C4607
:10054000102000BF0646A819A0420DD932466946C0
:100550000020AFF30080070008BF00F06BF80098A0
:10056000A04218BF0546C419FFF7C8FF056007463B
:10057000F01D20F007004619284600F00AF8B442A2
:1005800008BFF8BDA21B31463868BDE8F84000F04E
:1005900037B800210160C0E9011070471020704792
:1005A00070B50446051FFFF7A9FF0068002C14BFB3
:1005B000446870BD002C18BFAC423CBF2046646844
:1005C000F8D301680A18AA4218BF456003D12A6807
:1005D00005461144016028684119A1421CBF6C60A6
:1005E00070BD6168696021680844286070BD10B5FD
:1005F0000446AFF300802046BDE81040FFF708BE78
:10060000034640688C46002818BF88423CBF03461A
:100610004068F8D318681844884207D00CF10300EA
:1006200020F00700001D411A521A0146081D0A60F9
:10063000FFF7B6BF10B500F009F8BDE81040AFF302
:100640000080002801D000F0DBBB704710B5012806
:1006500005D0002103A000F021F8012010BD09A160
:10066000F8E7000053494752544D454D3A204F7525
:1006700074206F662068656170206D656D6F72799A
:10068000000000003A2048656170206D656D6F7252
:100690007920636F727275707465640070B5054679
:1006A0000C460A2000E06D1C00F0ACFB35B1287848
:1006B0000028F8D102E0641C00F0A4FB14B12078FB
:1006C0000028F8D1BDE870400A2000F09BBB000074
:1006D00040F67800C2F2000001680131016000F0CC
:1006E00003BB00004EF68850CEF20000016841F4D2
:1006F0007001016041F20001C4F202010A6842F097
:1007000001020A604A684CF20C03CFF67F031A40DC
:100710004A600A684FF6FF73CFF6F6631A400A6024
:100720000A6822F480220A604A6822F4FE024A60C3
:10073000CA6A22F00F02CA620A6B4FF6CC43CFF6A8
:1007400000731A400A6300228A604FF0006140F88B
:10075000801C704700F03EBB40F21440C4F600001D
:10076000016821F010010160EFF3108072B641F6CC
:100770000001C0F600010A68486882F308884EF656
:100780000852CEF200021160411C00D0004700F078
:1007900075F8000010B5D30757D142F21003C4F228
:1007A000020300BF53F8044CE407FBD11C68240685
:1007B0000BD540F22314C4F2675443F80C4C48F6AE
:1007C000AB14CCF6EF5443F80C4C1C6844F0020414
:1007D0001C60441C5C601C6844F040041C6000BF4A
:1007E00053F8044CE407FBD153F8044CA4062CD571
:1007F0004FF0200C43F804CC1C6824F002041C6069
:100800001C68FAB14FF0000E44F001041C602EF099
:1008100001040C5B2EF8004053F8044CE407FBD1B4
:1008200053F8044CA40658BF10BD43F804CC1C6810
:1008300024F001041C600EF102041FFA84FE1C68FF
:100840009645E1D344F08000186010BD10B54EF21B
:100850001004CEF2000441F63F70606000F006F82C
:100860000020A0600720206010BD00004EF623503D
:10087000CEF20000F021017070470000BFF34F8FEF
:100880004EF60C50CEF20000016801F4E061042243
:10089000C0F2FA5211430160BFF34F8F00BFFDE772
:1008A000002904BF00207047B0B54FF6FF724FF02B
:1008B000000C48F2084E00BF10F80C3082EA030426
:1008C000082300BF8EEA5402E50708BF6208013B17
:1008D0001446F7D10CF1010C8C45EDD1D04300BA90
:1008E000000CB0BD41F21400C4F20200016841F4F2
:1008F0004021016040F20040C4F60000016821F48C
:1009000040710160016841F480710160416921F02A
:1009100010014161704700002DE9F041B4B09846E4
:1009200016460D46074608AC2046B021FFF7E1FC0D
:1009300038468021224600F0ADF8012E08D056BB83
:1009400008A928460A2200F051F834B0BDE8F08129
:10095000B8F1000F1FD00020CDE90600CDE904005A
:1009600028686968AA68EB688DE80F0008A928461E
:100970000A2200F03BF8284641461022102300F0DE
:1009800079F89DE80F00C8F80C30C8F80820C8F8BE
:100990000410C8F8000034B0BDE8F08181B00278DE
:1009A0008DF8002002798DF80120027A8DF802205E
:1009B000027B8DF803204A4202F003026B469A5CE8
:1009C0000270C1F1050202F003029A5C0271C1F1EA
:1009D000060202F003029A5C0272C1F1030101F007
:1009E0000301595C017301B070470000F0B581B09C
:1009F00016460C46054601EB021100F017F8022ED0
:100A000009D300BF013EF7B204EB0711284600F0FE
:100A1000DBF8012FF6D80020215C2A5C51402954D4
:100A200001301028F8D101B0F0BD000010B5044627
:100A3000002000BF0A5C235C5A4022540130102879
:100A4000F8D1601C0121FFF7A9FFA01C0221FFF7CC
:100A5000A5FFE01C0321FFF7A1FF002041F22E11AA
:100A6000C0F60001225C8A5C225401301028F9D1C2
:100A700010BD0000884288BF1A46002A08BF704790
:100A800011F801CB037883EA0C0300F8013B013A2B
:100A9000F6D170472DE9F04F83B014460D4601465C
:100AA000EA082046FFF7E0FB69091C20019100EBF2
:100AB00081005FFA80FAC5F34718D0455BD2002663
:100AC00041F22E07C0F600074546DDF804B0D946CE
:100AD00004EB850050F8040C02905FFA89F05FFA8D
:100AE0008BF181421ED102A800F04EF89DF808005B
:100AF0009DF809109DF80A209DF80B30795C8DF85F
:100B00000910B95C8DF80A10F95C8DF80B10F1B280
:100B10001AA2515C385C48408DF808000198814465
:100B200001361AE0B8F1080F17D105F007000428C4
:100B300013D19DF808009DF809109DF80A209DF832
:100B40000B30385C8DF80800785C8DF80900B85CD3
:100B50008DF80A00F85C8DF80B00A5EB080054F83E
:100B600020000299484044F825000BF1010B5FFA80
:100B70008BF55545ACD303B0BDE8F08F01020408F6
:100B8000102040801B3600000178427802704288B5
:100B9000A0F80120C170704780B54FF0000C4FF0F5
:100BA000000E00BFCB0718BF8CEA000C43B202EA6C
:100BB000D31383EA40000EF1010E4908BEF1080F7D
:100BC000F0D35FFA8CF080BD2DE9F04F89B08346F9
:100BD000002005AE1BF800200B5C5A403254013057
:100BE0001028F7D1002700BFF55D0395F01990F8A4
:100BF000019090F8028090F803A085EA0900049023
:100C000088EA0A0102914840C1B209201B22FFF77D
:100C1000C3FF064685EA0800C1B204201B22FFF785
:100C2000BBFF019089EA0A00C1B25C4685EA0A0B63
:100C300004201B22FFF7B0FF5FFA8BF1A34680EA86
:100C4000060484EA0A0502201B22FFF7A5FF68407C
:100C50000BEB0705E870019846400298C1B286EA9E
:100C6000080A02201B22FFF797FF80EA0A00A870FB
:100C700084EA090489EA0800C1B202201B22FFF7B6
:100C80008BFF60406870039886EA00040498C1B244
:100C900002201B22FFF780FF05AE60400BF8070023
:100CA0000437102FA0D10BF101000121FFF776FED0
:100CB0000BF102000221FFF771FE0BF1030003218B
:100CC000FFF76CFE002041F22E11C0F6000100BFBC
:100CD0001BF800208A5C0BF8002001301028F7D1A7
:100CE00009B0BDE8F08F000040F26000C2F20000E1
:100CF000016801310160704740F26002C2F20002F7
:100D0000116841F288330B4443F61C0CC4F2010C09
:100D1000DCF8001089060FD411689942F8D9DCF884
:100D20000010890742BFDCF8041041F00201CCF842
:100D300004100121002202E0BCF80820002102700A
:100D40000846704743F61C01C4F201010A685206C6
:100D5000FCD588817047000041F21401C4F2020101
:100D60000A6842F400220A6040F60002C4F600025B
:100D7000136823F470631360136843F420631360F3
:100D8000136A43F4EE031362536823F010035360B5
:100D90004A6842F480424A6041F20021C0F27A017E
:100DA000B1FBF0F043F60001C4F20101C8604FF45A
:100DB00080508860086840F00D00086070470000AF
:100DC00040F26001C2F2000100220A607047000098
:100DD0007047000010B540F67604C2F200042046C9
:100DE000FFF7EEFF40F6D150C0F6000040F20002DF
:100DF000C0F600022146BDE81040FFF730BA0000FF
:100E0000FEE700007047000086B0FFF76BFCFFF7BD
:100E10001DFD41F21400C4F20200016841F40021FA
:100E20000160FFF75FFD40F2144BC4F6000BDBF8E6
:100E3000000040F01000CBF800004FF49640FFF7A0
:100E40008BFF4FF0000A0DF117076D4640F2640466
:100E5000C2F20004002600E001268DF817A03846F3
:100E6000FFF74AFF18B1F007F6D1FFF775FCDBF882
:100E7000000020F01000CBF800009DF81700BA2801
:100E8000EAD13846FFF738FF0028E5D19DF8170072
:100E9000FB2803D1FFF760FC9DF81700FE2816D150
:100EA0004FF0FF30CDE90000042600BFA819FFF77E
:100EB00023FFF11E022902D801360028F6D04FF692
:100EC000F870C0F2800029460822FFF763FC9DF805
:100ED0001700BF28C0D1204640F61201FFF709FADB
:100EE0004FF000084FF000095FEAC97072D104EBBF
:100EF00008063046FFF700FF00286BD13078BA288B
:100F00000ED18DF800A02846FFF7F6FE002861D12B
:100F10009DF80000002818BF012049EA000901E0FF
:100F20004FF0000908F10100B8F5016F8046DBD9E8
:100F30005FEAC9704ED194F8108894F81168204681
:100F40004FF40161FFF7ACFC46EA0821814241D130
:100F5000B9460026CDE90266CDE90066274641F292
:100F60001E04C0F6000400BFB919204601222B461A
:100F7000FFF7D2FC06F1100086B2B6F5016FF3D38D
:100F800097F800807E78A7F800A0B81C40F60E0104
:100F9000FFF786FC46EA082181423C4612D1A07840
:100FA000E17841EA002047F6722188420AD1DBF855
:100FB000000040F01000CBF80000606800BAB0F507
:100FC000684F0FD9BA20FFF7BDFEC220FFF7BAFE67
:100FD0004F4641E7BA20FFF7B5FEC220FFF7B2FE49
:100FE00001263AE741F60001C0F60001084404F189
:100FF00010014FF40062FFF7CDFBBA20FFF7A2FE0D
:10100000C120E3E7F1EE100A4FF6FF71C0F2C031E4
:1010100020EA010040F04070E1EE100A70478714AA
:1010200043BE37983690C16A1616EFBC6D84637C58
:10103000777BF26B6FC53001672BFED7AB76CA8228
:10104000C97DFA5947F0ADD4A2AF9CA472C0B7FDD8
:101050009326363FF7CC34A5E5F171D8311504C796
:1010600023C31896059A071280E2EB27B27509830D
:101070002C1A1B6E5AA0523BD6B329E32F8453D1AE
:1010800000ED20FCB15B6ACBBE394A4C58CFD0EFA3
:10109000AAFB434D338545F9027F503C9FA851A3DD
:1010A000408F929D38F5BCB6DA2110FFF3D2CD0CFB
:1010B00013EC5F974417C4A77E3D645D197360818C
:1010C0004FDC222A908846EEB814DE5E0BDBE0325D
:1010D0003A0A4906245CC2D3AC629195E479E7C828
:1010E000376D8DD54EA96C56F4EA657AAE08BA789C
:1010F000252E1CA6B4C6E8DD741F4BBD8B8A703E3E
:10110000B5664803F60E613557B986C11D9EE1F8F4
:10111000981169D98E949B1E87E9CE5528DF8CA142
:10112000890DBFE6426841992D0FB054BB16520994
:101130006AD53036A538BF40A39E81F3D7FB7CE348
:1011400039829B2FFF87348E4344C4DEE9CB547B26
:101150009432A6C2233DEE4C950B42FAC34E082EA4
:10116000A16628D924B2765BA2496D8BD12572F88D
:10117000F66486689816D4A45CCC5D65B6926C70F3
:101180004850FDEDB9DA5E154657A78D9D8490D87D
:10119000AB008CBCD30AF7E45805B8B34506D02C95
:1011A0001E8FCA3F0F02C1AFBD0301138A6B3A9174
:1011B00011414F67DCEA97F2CFCEF0B4E67396ACFC
:1011C0007422E7AD3585E2F937E81C75DF6E47F12B
:1011D0001A711D29C5896FB7620EAA18BE1BFC566D
:1011E0003E4BC6D279209ADBC0FE78CD5AF41FDD83
:1011F000A8338807C731B11210592780EC5F6051BE
:101200007FA919B54A0D2DE57A9F93C99CEFA0E0FF
:101210003B4DAE2AF5B0C8EBBB3C83539961172B0D
:10122000047EBA77D626E169146355210C7D00004F
:101230004412000800000020800E0000C4010008D5
:0412400015F5FFFFA2
:040000050800018965
:00000001FF
