:020000040800F2
:1000000028180020790200088102000883020008F5
:10001000850200088702000889020008000000002D
:100020000000000000000000000000008B0200083B
:100030008D020008000000008F02000895430008B0
:10004000930200089302000893020008930200083C
:10005000930200089302000893020008930200082C
:1000600093020008930200089302000895270008F5
:10007000930200089302000893020008930200080C
:1000800093020008930200084D080008930200083C
:1000900093020008930200089302000893020008EC
:1000A00093020008930200089302000893020008DC
:1000B0009302000893020008000000009302000869
:1000C00093020008000000000000000093020008F6
:1000D00000000000B94400089302000893020008E1
:1000E00093020008930200080000000000000000D6
:1000F0000000000000000000000000000000000000
:1001000000000000000000000000000000000000EF
:1001100000000000000000009302000893020008A5
:1001200000000000000000000000000000000000CF
:1001300000000000000000000000000000000000BF
:1001400093020008930200080000000093020008D8
:10015000930200089302000893020008930200082B
:100160009302000893020008000000000000000055
:10017000000000000000000000000000000000007F
:10018000000000009302000800F002F800F065F89B
:100190000AA090E8000C82448344AAF10107DA45E2
:1001A00001D100F05AF8AFF2090EBAE80F0013F0CF
:1001B000010F18BFFB1A43F001031847287600000F
:1001C000487600000A444FF0000C10F8013B13F091
:1001D000070408BF10F8014B1D1108BF10F8015BA0
:1001E000641E05D010F8016B641E01F8016BF9D193
:1001F00013F0080F1EBF10F8014BAD1C0C1B09D1EA
:100200006D1E58BF01F801CBFAD505E014F8016B5B
:1002100001F8016B6D1EF9D59142D6D370470000ED
:100220000023002400250026103A28BF78C1FBD8FF
:10023000520728BF30C148BF0B6070471FB507F099
:10024000EEF900F09FFA04000020002106F06AFC9D
:10025000401C60601FBD10B510BD00F06DFA114666
:10026000FFF7ECFF05F0A2FF00F09EFA03B4FFF7E2
:10027000F2FF03BC00F0E2FA094880470948004752
:10028000FEE7FEE7FEE7FEE7FEE7FEE7FEE7FEE746
:10029000FEE7FEE704480549054A064B70470000A3
:1002A000A543000889010008281200202818002012
:1002B000281400202814002053EA020C00F0698062
:1002C0002DE9F04B4FF00006002B1FBFB3FA83F56A
:1002D00003FA05F424FA05F65E4012BF1643B2FA9B
:1002E00082F502FA05F4C5F120051EBF22FA05FCCD
:1002F00044EA0C04203556EA044C4FEA144418BF73
:10030000641C4FF000084FF00009904271EB030CA1
:1003100039D3002919BFB1FA81F701FA07F6B0FA0B
:1003200080F700FA07F6C7F120071EBF20FA07FC86
:1003300046EA0C062037B6FBF4FCA7EB0507103F96
:1003400007F01F0BCBF120060CFA0BFB2CFA06F67C
:1003500044BFB3460026202FA4BF5E464FF0000BDB
:100360005BEA060C08BF4FF0010B19EB0B09ABFB66
:10037000027C48EB0608C01B06FB02CC0BFB03CC3F
:1003800071EB0C01C1E70B46024641464846BDE809
:10039000F08B13B54FF000004FF00001AFF3008079
:1003A000BDE81C407047B2F120030AD5C2F120031A
:1003B00001FA02F120FA03F300FA02F041EA030124
:1003C000704700FA03F14FF00000704770B5064621
:1003D00000F0A0F80468054630460A22002100F02B
:1003E0009DF82C6070BD40EA0103024630B59B07C2
:1003F00010D14FF0013400E008C208C91D1B9D4315
:1004000015EAC41FF8D013F0FF0102F8011B0DD04C
:100410001B0AF8E711F8013B002B02F8013B05D05D
:1004200011F8013B002B02F8013BF3D130BD032A48
:1004300040F2308010F0030C00F0158011F8013B01
:10044000BCF1020F624498BF11F801CB00F8013BE8
:1004500038BF11F8013BA2F1040298BF00F801CBAC
:1004600038BF00F8013B11F0030300F08F80083A19
:10047000C0F0088051F8043B083A51F804CBA0E8DA
:100480000810F5E7121D5CBF51F8043B40F8043B2F
:10049000AFF30080D20724BF11F8013B11F801CB64
:1004A00048BF11F8012B24BF00F8013B00F801CB35
:1004B00048BF00F8012B704710B5044610F0030F39
:1004C00008BF11F0030F40F015804FF0013E121FDE
:1004D000C0F20E8051F8043BA3EB0E0C2CEA030C87
:1004E0001CEACE1C08BF40F8043BF0D0A1F1040187
:1004F00002F10402521E08DB11F8013B002B00F848
:10050000013BF7D1114600F073F8204610BD70474B
:100510007047704700487047C81100202DE9F04728
:1005200091460F4680460446002614F8015B2DB123
:1005300000F084F80068405DC007F6D12B2D02D092
:100540002D2D18D0641E4A463946204600F07EF80C
:1005500027B13968A14201D1C7F800804FF00204E9
:1005600071050BD54042002803DDFFF7D3FF04607F
:10057000A007BDE8F08746F48066E4E70028F8DAD3
:10058000FFF7C8FF04606FF00040F2E710B5203AB3
:10059000C0F00B80B1E81850203AA0E81850B1E83C
:1005A0001850A0E81850BFF4F5AF5FEA027C24BFF2
:1005B000B1E81850A0E8185044BF18C918C0BDE8E9
:1005C00010405FEA827C24BF51F8043B40F8043BB2
:1005D00008BF7047D20728BF31F8023B48BF11F867
:1005E000012B28BF20F8023B48BF00F8012B7047C1
:1005F0004FF000020429C0F0128010F0030C00F04C
:100600007680CCF1040CBCF1020F18BF00F8012B6E
:10061000A8BF20F8022BA1EB0C0100F068B85FEA3C
:10062000C17C24BF00F8012B00F8012B48BF00F863
:10063000012B704700487047C811002010B500F02A
:10064000A1F8001D10BD00BFDD6400002DE9F05FC2
:10065000824615468B4600270AF10104B946007808
:10066000302801D09DB113E014F8010B0127782840
:1006700003D0582801D045B10AE00DB1102D07D1A3
:10068000002714F8010B102502E0082500E00A25D8
:100690000026B0460EE005FB080005FB06F1012729
:1006A0001FFA80F801EB1046B6F5803F00D3B9463B
:1006B00014F8010B294600F069F80028EBDABBF1C9
:1006C000000F05D00FB1641E00E05446CBF8004087
:1006D000B9F1000F06D0FFF71DFF02210160C81E0F
:1006E000BDE8F09F48EA0640FAE74FF0000200B587
:1006F000134694469646203922BFA0E80C50A0E845
:100700000C50B1F12001BFF4F7AF090728BFA0E8F2
:100710000C5048BF0CC05DF804EB890028BF40F8BE
:10072000042B08BF704748BF20F8022B11F0804F00
:1007300018BF00F8012B70477546FFF77BFFAE46E8
:1007400005006946534620F00700854618B020B5DD
:10075000FFF7A0FDBDE820404FF000064FF0000776
:100760004FF000084FF0000B21F00701AC46ACE859
:10077000C009ACE8C009ACE8C009ACE8C0098D46C6
:100780007047000000487047E81100203A2800D266
:10079000303820F02002412A01D3A2F137008842EC
:1007A00001D34FF0FF30704710B50446AFF300801F
:1007B0002046BDE81040FFF759BD00004FF0013C56
:1007C00050F8042B51F8043B9A4221D1A2EB0C03C0
:1007D000934313EACC1317D150F8042B51F8043B80
:1007E0009A4215D1A2EB0C03934313EACC130BD11D
:1007F00050F8042B51F8043B9A4209D1A2EB0C03A8
:10080000934313EACC13DBD04FF00000704700BFD6
:10081000D01A01BAB1FA81F101F0180122FA01F0FF
:10082000CB40C1F12001DBB2C0B2C01A2CFA01F3F7
:10083000D11A914311EAC311E6D17047014918203A
:10084000ABBEFEE7260002007047000010B54FF077
:10085000A040006800F0800060B180204FF0A0410F
:1008600008600548008820F00100401C024908800B
:1008700004F0AAF910BD000004000020014800683F
:10088000704700007402002030B50246994B1A6090
:1008900000201B680446401C974D45F8243040F268
:1008A00063750346401C944C44F82350914B1B68DD
:1008B0001F330446401C904D45F824308D4B1B6877
:1008C00015330446401C45F824308A4B1B6813330B
:1008D0000446401C45F82430864B1B685B1D0446CB
:1008E000401C45F8243040F262750346401C824C9F
:1008F00044F823507F4B1B685B1C0446401C7E4D14
:1009000045F824307B4B1B689B1C0446401C45F873
:100910002430784B1B68DB1C0446401C45F824300F
:10092000744B1B681B1D0446401C45F82430714B5A
:100930001B68DB1D0446401C45F824306D4B1B68CA
:100940009B1D0446401C45F824306A4B1B68173336
:100950000446401C45F82430002107E0002301EB49
:100960004104664D05F834304B1CD9B20D29F5DD34
:10097000634BDB6943F00073614CE36123465B69C1
:1009800043F4802363615F4B1B6823F440335D4C69
:10099000236023461B6823F44023236023461B68FF
:1009A00043F420232360231D1B6823F40073241DBC
:1009B0002360544B0C331B6823F44033514C0C34EC
:1009C000236023461B6843F4003323604FF09043B9
:1009D0005B6A43F099044FF090435C624A4B1B689A
:1009E00043F00103484C236000BF474B1B1D1B68AD
:1009F00003F00103002BF8D0444B5B69062B25D292
:100A0000DFE803F003080D13191F414B3E4C1C3463
:100A100023601BE03F4B3C4C1C34236016E03C4BF6
:100A20001B3B394C1C34236010E0394B243B364CC3
:100A30001C3423600AE0374B243B334C1C342360C6
:100A400004E0354B304C1C34236000BF00BF23232F
:100A5000324CE370002323716371314B1B6843F008
:100A600001032F4C236000232C4C23706370A37070
:100A7000E37023716371A371E3711E4B1B88C3F391
:100A8000C70323721B4B1B785B071B0E637200238B
:100A9000A372E372EC23237000236370A370E370EE
:100AA00023716371A371E37123726372A372E372A2
:100AB000FF232370E02363700023A370E370FC2303
:100AC000237100236371A371E371154B1B6823F03D
:100AD0000103134C23600C4B1B6823F001030A4CE9
:100AE000236000BF084B1B1D1B6803F00103002B94
:100AF000F8D130BD74020020580F0020900F002064
:100B0000001002400004004800640040280000205B
:100B10002C001C002C00050001001E00F810002015
:100B2000006600402DE9F0410020DFF858C3DCF8F2
:100B300000C00CF0080CBCF1000F00D00120DFF861
:100B400044C30CF1040CDCF800C00CF0080CBCF140
:100B5000000F01D040F00200DFF828C3ACF1040C14
:100B6000DCF800C00CF0010CBCF1000F01D040F02B
:100B70000400DFF810C3ACF1040CDCF800C00CF486
:100B8000807CBCF1000F01D040F00800DFF8F4C217
:100B9000ACF1040CDCF800C00CF4803CBCF1000F9C
:100BA00001D040F01000DFF8DCC2ACF1080CDCF83A
:100BB00000C00CF0040CBCF1000F01D040F020008C
:100BC000DFF8C0C2ACF1080CDCF800C00CF0080C77
:100BD000BCF1000F01D040F0400000F0200CBCF14F
:100BE000000F7DD0DFF89CC20CF10C0CDCF800701B
:100BF0003D0E3F023C0EDCF800C00CF0010CBCF1D5
:100C0000000F00D00123602D01DB43F00203602CB4
:100C100001DB43F00403802D01DB43F00803802C4B
:100C200001DB43F01003DFF85CC20CF10C0CDCF8C4
:100C300000C00CF0040CBCF1000F01D043F0200305
:100C4000DFF840C2DCF800C00CF0100CBCF1000F63
:100C500001D043F04003DFF82CC20CF1040CDCF8A7
:100C600000C00CF0100CBCF1000F01D043F0800369
:100C7000DFF810C20CF10C0CDCF800C02CF0050CF5
:100C8000DFF8008208F10C08C8F800C0DFF8F4C1F2
:100C9000DCF800C02CF0100CDFF8E881C8F800C0C8
:100CA00008F1040CDCF800C02CF0100C08F104086A
:100CB000C8F800C04FF6FF7CDFF8CC81C8F800C050
:100CC0004FF0000CC8F804C0C4468CF808008CF83B
:100CD00009308CF80A408CF80B50DFF8A8C100E00E
:100CE0000CE0ACF1080CDCF800C00CF0040CDFF8F0
:100CF0009481A8F10808C8F800C0C0E000F0010C19
:100D0000BCF1000F50D0DFF884C1DCF800C00CF05B
:100D1000020CBCF1000F2CD14FF0010CDFF8688100
:100D2000C8F800C0DFF85CC1ACF10C0CDCF8B811FD
:100D3000DCF8BC2188F808104FEA1128DFF848C118
:100D40008CF809804FEA11488CF80A804FEA116844
:100D50008CF80B808CF80C204FEA12288CF80D8050
:100D60004FEA12488CF80E804FEA12688CF80F8018
:100D700005E04FF6FC7CDFF81081C8F800C0DFF812
:100D80000CC1DCF80060C6F3475CDFF8FC80C8F8F3
:100D900004C0DFF8F0C0DCF800C02CF0080CDFF86D
:100DA000E480C8F800C06AE000F0020CBCF1000F5B
:100DB00058D0DFF8D0C0ACF10C0CDCF8C0C10CF09E
:100DC000020CBCF1000F2CD14FF0010CDFF8B88001
:100DD000C8F800C0DFF8ACC0ACF10C0CDCF8C811EE
:100DE000DCF8CC2188F808104FEA1128DFF898C009
:100DF0008CF809804FEA11488CF80A804FEA116894
:100E00008CF80B808CF80C204FEA12288CF80D809F
:100E10004FEA12488CF80E804FEA12688CF80F8067
:100E200005E04FF6FC7CDFF86080C8F800C0DFF812
:100E300054C0ACF10C0CDCF8C061C6F3475CDFF8C1
:100E40004880C8F804C0DFF83CC00CF1040CDCF8A2
:100E500000C02CF0080CDFF82C8008F10408C8F85A
:100E600000C00CE04FF6FF7CDFF81C80C8F800C023
:100E70004FF0010CC8F804C0C4468CF80800BDE867
:100E8000F08100000C640040E0100020B0650040DC
:100E900070B5002008E000EB4004BC4D15F834406C
:100EA000012C00D102E0401C0E28F4D300BF0E2814
:100EB00000D170BDB64C54F8201000EB4004B34D87
:100EC00005EBC404E47A250600EB4004AF4E06EBC4
:100ED000C404A47A45EA044500EB400406EBC404CC
:100EE000647A45EA042400EB400506EBC5052D7A3B
:100EF00044EA050200EB4004354605EBC404E47BFC
:100F0000250600EB400406EBC404A47B45EA044537
:100F100000EB400406EBC404647B45EA042400EBC8
:100F2000400506EBC5052D7B44EA0503994C246872
:100F30008C4217D1984C246804F08064002C10D0A7
:100F4000964C2260241D2360944C083C246844F095
:100F50000104924D083D2C60002400EB400506F88A
:100F6000354011E18B4C64688C4219D18A4C24685D
:100F700004F00064002CF4D0884C10342260241D4E
:100F80002360864C0834246844F00105834C0834FF
:100F90002560002400EB40057C4E06F83540F3E068
:100FA0007C4CA4688C4219D17B4C246804F080549A
:100FB000002CD6D0794C20342260241D2360774C3D
:100FC0001834246844F00105744C1834256000245A
:100FD00000EB40056D4E06F83540D5E06D4C2468B9
:100FE0004FF6FF75AC421ED100246C4D083D2C60BD
:100FF0004C052C600825694C241F2560241D2260A7
:10100000241D2360654C083C246844F00104634DB2
:10101000083D2C605F4C2160002400EB40055B4ED6
:1010200006F83540B0E05B4C64684FF6FF75AC42A3
:101030001DD10025594C083425604D052560082533
:10104000241D2560241D2260241D2360534C083478
:10105000246844F00105514C083425604D4C616012
:10106000002400EB4005494E06F835408CE0494C21
:10107000A4684FF6FF75AC421DD10025474C1834CB
:1010800025604D0525600825241D2560241D22604E
:10109000241D2360414C1834246844F001053F4C62
:1010A000183425603B4CA160002400EB4005374E0E
:1010B00006F8354068E0384C246804F08064F4B1E8
:1010C0000024364D083D2C604C052C600825334C1F
:1010D000241F2560241D2260241D23602F4C083C02
:1010E000246844F001042D4D083D2C60294C2160FA
:1010F000002400EB4005254E06F8354044E0264C20
:10110000246804F00064ECB10025244C0834256008
:101110004D0525600825241D2560241D2260241D01
:1011200023601E4C0834246844F001051B4C08342D
:101130002560184C6160002400EB4005134E06F852
:10114000354021E0144C246804F08054E4B10025BB
:10115000124C183425604D0525600825241D256096
:10116000241D2260241D23600C4C1834246844F094
:1011700001050A4C18342560064CA160002400EBE0
:101180004005024E06F8354000BF92E6900F002061
:10119000580F002078020020086400408865004055
:1011A00010B52DED028B0124F74890ED280AB4EE1E
:1011B000400AF1EE10FA05D09FEDF40A80ED280AFE
:1011C000002426E0F04890ED280A10EE101A084698
:1011D00006F0B4F941EC180B9FEDED0B53EC102B1E
:1011E00005F052FF06D2B2EE080AE74880ED280A61
:1011F00000240EE0E44890ED280ADFEDE70AB4EEA3
:10120000E00AF1EE10FA04DD9FEDE30A80ED280A12
:101210000024DD4890ED290AB4EE400AF1EE10FA00
:1012200005D09FEDDE0A80ED290A00242EE0D64885
:1012300090ED290A10EE101A084606F07FF941ECED
:10124000180B9FEDD30B53EC102B05F01DFF06D2AE
:10125000B2EE080ACC4880ED290A002416E0CA48FC
:1012600090ED290A10EE101A084606F067F941ECD5
:10127000180B9FEDCB0B53EC102B06F03FF805D26B
:101280009FEDC50AC04880ED290A0024BE4890EDB4
:101290002A0AB4EE400AF1EE10FA05D09FEDC20A18
:1012A00080ED2A0A00242EE0B74890ED2A0A10EEBD
:1012B000101A084606F042F941EC180B9FEDB40BEA
:1012C00053EC102B05F0E0FE06D2B2EE080AAE4851
:1012D00080ED2A0A002416E0AB4890ED2A0A10EEB1
:1012E000101A084606F02AF941EC180B9FEDAF0BD7
:1012F00053EC102B06F002F805D29FEDAE0AA2487F
:1013000080ED2A0A0024A04890ED2B0AB4EE400A92
:10131000F1EE10FA05D09FEDA80A80ED2B0A00240B
:101320002EE0994890ED2B0A10EE101A084606F0B0
:1013300005F941EC180B9FED960B53EC102B05F0C3
:10134000A3FE06D2B2EE080A8F4880ED2B0A0024D5
:1013500016E08D4890ED2B0A10EE101A084606F0A4
:10136000EDF841EC180B9FED910B53EC102B05F0B1
:10137000C5FF05D29FED8F0A834880ED2B0A00241C
:10138000814890ED2C0AB4EE400AF1EE10FA05D037
:101390009FED7E0A80ED2C0A00242EE07A4890ED25
:1013A0002C0A10EE101A084606F0C8F841EC180B8B
:1013B0009FED820B53EC102B05F066FE06D29FEDDD
:1013C000810A714880ED2C0A002416E06E4890EDE9
:1013D0002C0A10EE101A084606F0B0F841EC180B73
:1013E0009FED790B53EC102B05F088FF05D29FED94
:1013F000780A654880ED2C0A0024634890ED2D0A98
:10140000B4EE400AF1EE10FA05D09FED6B0A80EDC4
:101410002D0A00242EE05C4890ED2D0A10EE101AE3
:10142000084606F08BF841EC180B9FED590B53EC76
:10143000102B05F029FE06D2B2EE080A524880EDC4
:101440002D0A002416E0504890ED2D0A10EE101AD7
:10145000084606F073F841EC180B9FED540B53EC63
:10146000102B05F04BFF05D29FED520A464880ED48
:101470002D0A0024444890ED2E0AB4EE400AF1EE05
:1014800010FA05D09FED4C0A80ED2E0A002424E0CE
:101490003D4890ED2E0A10EE101A084606F04EF860
:1014A00041EC180B9FED4B0B53EC102B05F0ECFDB2
:1014B00006D29FED4A0A344880ED2E0A00240CE043
:1014C000314890ED2E0AB5EEC00AF1EE10FA04DDB7
:1014D0009FED3C0A80ED2E0A0024414890ED000A61
:1014E000B4EE400AF1EE10FA05D0B1EE040A80ED38
:1014F000000A002426E03A48006806F01FF841EC94
:10150000180B9FED380B53EC102B05F0BDFD06D2E8
:101510009FED360A324880ED000A002412E0304880
:10152000006806F00BF841EC180B9FED310B53EC03
:10153000102B05F0E3FE05D29FED2F0A284880ED21
:10154000000A00242D4890ED000AB4EE400AF1EEA6
:1015500010FA05D09FED2A0A80ED000A002464E00D
:101560002648006805F0EAFF41EC180B9FED130BCD
:1015700053EC102B05F088FD44D29FED120A1F4852
:1015800080ED000A002450E0AC0000200000F04292
:101590000000000000002840000096430000C04208
:1015A0000000000000C07240CDCC5C420000000092
:1015B0000000694000004843666666420000000083
:1015C0000000000000000000000000000018F540CE
:1015D00000C0A84700000000000069C0000048C328
:1015E0008401002000000000000049C0000048C243
:1015F000000000000000494000004842880100202F
:10160000A4703D3E0B48006805F098FF41EC180BB4
:101610009FED090B53EC102B05F070FE05D2B7EED1
:10162000000A044880ED000A00242046BDEC028B2D
:1016300010BD000088010020000000000000F03F05
:101640000248007800F08000704700007C01002014
:1016500000487047280000208420704700487047E9
:10166000680100201420704700487047AC0000203B
:10167000BC20704701480078704700007C010020C2
:1016800010B511480079114988608021104803F095
:1016900001F80F49091F0860B8210E4802F0FAFF4F
:1016A0000C49091F0860FFF77BFD30B10A4800783C
:1016B00040F080000849087005E00748007820F0F5
:1016C00080000549087010BD4C0200206801002010
:1016D0002C000020B00000207C01002010B502F09A
:1016E00001F800200149087010BD00000811002019
:1016F00010B500231A461946184602F08BF8002050
:1017000009490870094981F860000021074881668D
:10171000C166522180F86810452180F869100120C7
:10172000024981F8600010BD08110020900F0020D0
:1017300000200A4908700A4981F860000021084821
:101740008166C166522180F86810452180F86910D1
:101750000120034981F86000704700000811002053
:10176000900F002001480078704700000811002009
:101770000020014908707047081100202DE9F04150
:101780004FF0FF340026DD48006800F00800DB4918
:10179000091D096801F008010843D849091F0968B3
:1017A00001F001010843D549091F096801F480715E
:1017B0000843D249091F096801F480310843CF4921
:1017C0000839096801F004010843CC49083909685F
:1017D00001F008010843002878D0FFF7A3F9C848B2
:1017E000006801283FD103F0B1FBFFF747F817303D
:1017F000C3494968884237D1C148007A41280BD192
:10180000BF48407A4C2807D1BD48807A4C2803D184
:1018100002F098F8002411E0B948007A52280BD160
:10182000B748407A432807D1B548807A4F2803D17A
:1018300002F0E3F9002401E04FF0FF340020B14949
:1018400081F83801002201F59C718A60CA60002C81
:1018500001DA4E2100E05921AA4880F84011012008
:10186000A84981F8380145E1A548406840F2617116
:10187000884206D1A248D0E90221104602F0E6FDD6
:1018800038E19F48406840F26271884207D19C4825
:10189000D0ED020AB0EE600A00F0F2FE2AE19848AC
:1018A000406840F26471884211D19548C0689649F9
:1018B000C9688842D7D1FEF7E1FF9149896888421B
:1018C000D1D08F498868FEF7DFFF13E113E1FEF7FF
:1018D000D5FF16308A494968884200D10AE1FEF7EF
:1018E000CDFF123086494968884278D18448007A11
:1018F000864948708248417A8448817040785228ED
:101900006FD182488078522817D006DC46283DD017
:101910004C2807D04F2861D11AE0532823D05428EF
:101920005CD145E0FFF798FE0646FFF791FE0746BB
:10193000314600F023FB044650E0FFF799FE0646CF
:10194000FFF792FE0746314600F018FB044645E0DB
:10195000FFF788FE0646FFF781FE0746314600F096
:101960000DFB04463AE06648C0680D2802D2644880
:10197000C06800E00D204FF4005101EB00354E101F
:101980003146284600F0E6FA044627E05C48C06885
:1019900010B95B48C06800E001204FF4803101EBD2
:1019A00000350E113146284600F0D4FA044615E001
:1019B0005348C068B0F5F37F02D85148C06801E0D1
:1019C00040F2E7104FF4C03101EB00354FF4805680
:1019D0003146284600F0BEFA044600BF55E079E0E3
:1019E000FFE74A48407857283FD148488078522836
:1019F00015D006DC452833D046281CD04C2833D1DE
:101A000004E0532815D054282ED127E0FFF724FEF8
:101A100006463146002000F06DFA044624E0FFF748
:101A200027FE064631464FF4805000F063FA044624
:101A30001AE0002618E001F029FC064601F018FC27
:101A4000334A31464FF4803001F056FE0446002CF4
:101A500002DA204601F066FB002605E0002603E0DE
:101A60000024FFF73BFE00BF0FE0284840784928DC
:101A70000BD126488078532802D0542804D101E0A5
:101A8000002401E0002400BF00BF00201D4981F8B0
:101A900060001B48D0E902211A48C0E91A21601CE5
:101AA00028B94E21174880F86A10C6660DE0A01CC0
:101AB00030B95021134880F86A100021C16604E053
:101AC0005921104880F86A10C66601200D4981F836
:101AD00060000FE0FEF7D2FE1430094949688842E1
:101AE00008D10A480078042804D1082104480830A5
:101AF00001F0FCFE00BFBDE8F08100000C64004076
:101B0000E0100020900F0020280000200811002085
:101B10002531000830B50024054D85F830402C46AD
:101B2000A063E16322646364012485F8304030BD22
:101B3000900F002010B50020064981F8780001F0D0
:101B40009FFB044A7832C2E902010120014981F871
:101B5000780010BD900F002010B5002013490870C8
:101B60001348017A1148C1721148417A0F488172B5
:101B70000F48817A0D4841720D48C07A0B490872AE
:101B80000B48C1680948C16001200849087000205D
:101B90000876FEF773FE054908620548C1680348E8
:101BA000416201200149087610BD0000900F00201D
:101BB000280000200020144981F8D8001348D0F8EC
:101BC000AC0000EE100AB8EEC00A1048D0ED2C0AA6
:101BD00020EE200A80ED2D0A084680ED380A0B48D9
:101BE000D0F8D80000EE100AB8EEC00A0748D0EDD1
:101BF000370A20EE200A80ED380A084680ED390ABF
:101C0000012081F8D8007047900F00204C07002079
:101C10000020134981F8C0001248C06800EE100A85
:101C2000B8EEC00A0F48D0ED040A20EE200A80ED7D
:101C3000050A084680ED320A0A48406A00EE100A9A
:101C4000B8EEC00A0748D0ED0A0A20EE200A80ED5F
:101C50000B0A084680ED330A012081F8C000704766
:101C6000900F00204C07002010B50020084981F893
:101C7000900000F0D5FB064880ED260A9FED050A8E
:101C800080ED270A0120024981F8900010BD000074
:101C9000900F00200000000070B557480078012820
:101CA0003BD1564890F84800002836D1534890F868
:101CB0006000002831D150488068062802D24E4882
:101CC000806800E0062004464B48C1684B48016527
:101CD0000021416541654848002322464168474844
:101CE000523001F097FD061E10D10120434981F8C2
:101CF000480041488068001B3F49886008464068AA
:101D0000204448600846C068401CC8603A48806863
:101D100000286FD1FFF7ECFC6CE037480078022810
:101D20003DD1364890F84800002838D1334890F823
:101D3000600098BB30488068062802D22E48806830
:101D400000E0062004462C48C1682C4801650021AB
:101D500041654165002510E0274840680278274822
:101D60005030A91C425424484068401C2249486015
:101D700008468068401E88606D1CA542ECD3012097
:101D80001E4981F848001C48C068401C1A49C860B8
:101D90000846806870BBFFF7CBFC2BE0FFE71648D6
:101DA0000078032826D1154890F8600010BB002069
:101DB000124981F86000104881681048C1660E4AD7
:101DC0009168506801F07EFDA0B900210B48816642
:101DD000572180F8681008488178084880F8691011
:101DE000592180F86A100120044981F8600004201C
:101DF0000149087070BD000008110020900F0020FC
:101E000000200F4981F8F0000E48D0F8A00000EE45
:101E1000100AB8EEC00A0B48D0ED290A20EE200ABD
:101E200080ED2A0A084680ED3E0A064890ED300A09
:101E3000084680ED3F0A012081F8F000704700005D
:101E4000900F00204C0700200020134981F8A800C3
:101E50001248C06B00EE100AB8EEC00A0F48D0ED71
:101E6000100A20EE200A80ED110A084680ED2C0AA7
:101E70000A48406D00EE100AB8EEC00A0748D0EDDF
:101E8000160A20EE200A80ED170A084680ED2D0A7A
:101E9000012081F8A8007047900F00204C07002017
:101EA00010B50020074981F8200102F03BFA02F04A
:101EB0002BFA054AC2E902010120024981F82001FA
:101EC00010BD0000900F0020B010002010B50020C1
:101ED000064981F8080102F099FA054AC2E90201AF
:101EE0000120024981F8080110BD0000900F002078
:101EF0009810002070B504460D46042303220221E9
:101F00000120FFF707FE1148007860B11048006813
:101F100020B901200E490860801E70BD00200C49C8
:101F2000086001F055FC00222946204601F0E4FB40
:101F3000002802DA4FF0FF30EFE703200349087072
:101F40000846446085606FF00100E6E70811002054
:101F50008402002002460848007810B14FF0FF309C
:101F600070470120044B18701846426081600020C1
:101F7000D86000BFF4E700000811002002460848BE
:101F8000007810B14FF0FF3070470220044B1870FA
:101F90001846426081600020D86000BFF4E700006E
:101FA000081100200146124A127810114840104AC8
:101FB000127812010F4B1B7842EA23120C4B1A7055
:101FC0000C4A12781207120E0A4B1A700A4A12F8BB
:101FD0001020074B1B785A40054B1A70074A12F81D
:101FE0001020044B1B785A40024B1A7070470000B7
:101FF000CC010020CD0100208C010020AC0100208C
:1020000010B52DED0A8B01F063FD002873D0BF4899
:10201000806B30B1BD4890ED0D8A0020BB498863CC
:1020200002E0BB4890ED2A8ABA4890ED000A38EEEB
:10203000400AB948D0ED000A80EE201ABDEEC10A70
:1020400010EE104A002C00DA0024B4F5C87F01DB42
:1020500040F28F14204602F029FBAC49C86118EE0B
:10206000100A05F06BFA41EC1C0B9FEDAC0B53EC26
:10207000102B04F053FE41EC1B0B9FEDAA0B53EC0D
:10208000102B05F03DF841EC1A0B04F09FFF9F491F
:102090004862A048D0ED000A00EE104AB8EEC00A2F
:1020A0009D4890ED001A40EE010A88EE209A9F4864
:1020B00090ED000A9E48D0ED000A19EE200A10EEBD
:1020C000101A084605F03AFA41EC1B0B9FED950BF0
:1020D00053EC102B05F014F841EC1A0B04F076FFCA
:1020E0008A490862C86901F0F1FC8849086A01F070
:1020F00023FF08E1FFE78F4890ED300A10EE101A39
:10210000084605F01BFA41EC1B0B9FED8B0B53ECC3
:10211000102B05F029F941EC1A0B04F019FD08EE1B
:10212000900A7B4890ED2A0A7848D0ED050AB0EE77
:10213000408A00EEA88A764890ED2B0A7348D0EDCD
:10214000050AF0EE409A40EEA89A724890ED000A17
:1021500038EE400A7048D0ED000A80EE201ABDEE3D
:10216000C10A10EE104A002C00DA0024B4F5C87F32
:1021700001DB40F28F14204602F098FA6349C861EF
:1021800018EE100A05F0DAF941EC1C0B9FED630B19
:1021900053EC102B04F0C2FD41EC1B0B9FED610BC7
:1021A00053EC102B04F0ACFF41EC1A0B04F00EFFC3
:1021B000564948625748D0ED000A00EE104AB8EE82
:1021C000C00A554890ED001A40EE010A88EE200A38
:1021D000B0EE409A554890ED000A5548D0ED000AFF
:1021E00019EE200A10EE101A084605F0A7F941EC86
:1021F0001B0B9FED4C0B53EC102B04F081FF41ECBB
:102200001A0B04F0E3FE414908624248D0ED000A8F
:1022100000EE104AB8EEC00A3F4890ED001A40EEBA
:10222000010A89EEA00AB0EE409A404890ED000AFB
:102230003F48D0ED000A19EE200A10EE101A0846A9
:1022400005F07CF941EC1B0B9FED360B53EC102B8A
:1022500004F056FF41EC1A0B04F0B8FE2B498862DB
:1022600019EE900A05F06AF941EC1C0B9FED2B0B5F
:1022700053EC102B04F052FD41EC1B0B9FED290B8E
:1022800053EC102B04F03CFF41EC1A0B04F09EFEC3
:102290001E49C8621E4890ED2D0A0846D0ED050A79
:1022A00000EEA80A10EE101A084605F047F941ECB6
:1022B0001C0B9FED1A0B53EC102B04F02FFD41EC7F
:1022C0001B0B9FED180B53EC102B04F019FF41EC86
:1022D0001A0B04F07BFE0D490863C86901F0F6FB98
:1022E0000A4890F83D0038B10849886A01F024FE98
:1022F0000648C0ED0D9A06E00449086A01F01CFE8C
:10230000024880ED0D8ABDEC0A8B10BD181100202B
:10231000AC000020880200208C0200200000000099
:1023200000E06F40000000000000B040900200207C
:10233000940200204C0700200000000000003940FB
:1023400010B501F0C5FB18B10020334981F83D00FC
:10235000314890F83D0010B12F48C46A01E02E4882
:10236000446A2E48C068001B03D52C48C068201A58
:1023700002E02A48C068001B162820DA01202649FE
:1023800081F83C0001F0A4FB90BB234890F83D008D
:1023900088B12148006C64301F4908640846006C0D
:1023A0008969884203D300201B4981F83D00002041
:1023B0001949486422E00020174908641EE01748C4
:1023C000C068A04204DA0020134981F83C0003E011
:1023D0000220114981F83C000F4890F83D0020B1DF
:1023E0000D48406CB0F5FA6F03D300200A49086429
:1023F00004E00948406C64300749486401F068FB18
:1024000048B90648C0680449096B884203DC0120CA
:10241000014981F83D0010BD181100204C07002033
:10242000014890ED0D0A70471811002010B501F019
:102430004FFB08B1012000E000201449896DC9015B
:10244000134A1268012A00D100E0002241EA8211F9
:102450000E4AD26D41EA42110C4A126D0AB90122AC
:1024600000E0002241EA0211084A92F83C2041EAC9
:102470008201064A92F83D200AB1012200E00022C2
:1024800041EA42010843C0B210BD0000181100200B
:102490004802002010B52DED068B02F02DF900202A
:1024A000674908606749086008644864664890EDB9
:1024B000290AD0ED280A80EE201A11EE104A204693
:1024C00005F03CF841EC190B9FED600B53EC102B21
:1024D00004F016FE41EC180B04F078FD59494860F1
:1024E000594890ED2A0A10EE101A084605F026F811
:1024F00041EC1A0B9FED570B53EC102B04F00EFC24
:1025000041EC190B9FED510B53EC102B04F0F8FD2F
:1025100041EC180B04F05AFD4A4988604A4890ED96
:102520002A0A10EE101A084605F008F841EC1A0BBA
:102530009FED480B53EC102B04F0F0FB41EC190B12
:102540009FED420B53EC102B04F0DAFD41EC180B1D
:1025500004F03CFD3B49C860002008613A4890ED1A
:102560002E0A10EE101A084604F0E8FF41EC190B91
:102570009FED3A0B53EC102B04F0D0FB41EC180B01
:1025800004F0E6FA2F4948612F4890ED2C0A10EE2E
:10259000101A084604F0D2FF41EC190B9FED2F0BE7
:1025A00053EC102B04F0ACFD41EC180B04F03EFD95
:1025B0002449886100208863FFF722FD40F2B7209C
:1025C0002849086040F27120274908600020274907
:1025D0000880274908701B4981F83C00012081F8D8
:1025E0003D004FF6FF7088640020C86421480068F1
:1025F00020B100200865401E486504E00120114913
:102600000865801E486500200E498865C865086613
:102610000846006D28B90846806D10B90846C06D9F
:1026200008B1012000E00020064948660846406ED7
:1026300011490860012011490860BDEC068B10BDEE
:10264000B002002018110020AC00002000000000A3
:102650000000B0400000000000C072400000000018
:1026600000408F40A0020020A4020020A802002009
:10267000AA02002048020020B4020020B802002074
:1026800010B52DED028BB0EE408A01F021FA28B191
:10269000044880ED0D8A012002498863BDEC028B5D
:1026A00010BD0000181100202DE9F04304460D462E
:1026B00091461E46FF203549087035490870022DA5
:1026C00060DD4FF00108002711E0E15D0811FFF720
:1026D00069FCE15D01F00F00FFF764FCE05DB042D2
:1026E00001D1012000E0002000EA08087F1CA81E9C
:1026F000B842EADC26480078B04204D12448007889
:10270000401C2349087021480078B04204D11F487A
:102710000078401C1D490870B8F1000F0AD0681EEF
:10272000205CB04206D1A81E205CB04202D100203D
:10273000BDE8F083B9F1000F1AD0681E205CB042EA
:1027400005D1A81E205CB04201D10120F0E7681E2F
:10275000205C0F490978884207D1A81E205C0B49EC
:102760000978884201D10220E2E74FF0FF30DFE72D
:1027700007480178681E215404480178A81E215496
:102780000120D5E76FF00100D2E70000CC01002066
:10279000CD0100200120054948600548008820F04F
:1027A0000200801C024908807047000000000240BF
:1027B000040000202DE9FE4FFE48007B48B1FE4892
:1027C000C168FE48C1600122FA490C31083000F0AE
:1027D000CFFBF848007F48B1F748C168F74841622D
:1027E0000222F4491C31203000F0C2FBF14890F87D
:1027F0002C0048B1F048C168F048C1630322ED499C
:102800002C31383000F0DAFAEA4890F8400048B14C
:10281000E948C168E94841650422E6494031503041
:1028200000F0A6FBE34890F8500048B1E248416A46
:10283000E248C1660522DF495031683000F098FB5C
:10284000DC4890F8600048B10021DC48C0F88410F2
:102850000622D8496031803000F08AFBD54890F8D4
:10286000700058B1D448D0F8B810D448C0F89C10C3
:102870000722D0497031983000F07AFBCD4890F8AB
:102880008000002849D0CD4890F8B00000B900BFC2
:10289000CA4890F8B000012808D100BF0020C749FD
:1028A00081F8B0000021082000F0BAFEC34890F87B
:1028B000B000012809D1C248D0E900104FF480735C
:1028C0001943BF4AC2E9001006E0BD4903C96FF4CD
:1028D00080721040BA4A03C2B84890F8B00001288C
:1028E00010D1B44890F8800002280BD1B4480830C9
:1028F000D0E900104FF480721143B14A0832C2E9A6
:1029000000100AE0AE480830D0E900106FF4807281
:102910001140AB4A0832C2E90010A64890F8810085
:10292000002845D0A54890F8B10000B900BFA348E1
:1029300090F8B100012808D100BF00209F4981F81C
:10294000B1000021092000F06BFE9C4890F8B10016
:10295000012807D19A4903C94FF400731843984AD4
:1029600003C208E09648D0E900106FF400721140ED
:10297000934AC2E90010914890F8B10001280ED1A5
:102980008C4890F88100022809D18D49083103C98B
:102990004FF4007318438A4A083203C208E088499A
:1029A000083103C96FF400721040854A083203C22F
:1029B000804890F88200002856D0804890F8B200F5
:1029C00060B97D48D0F8C40040B101207B4981F84E
:1029D000B20001210A2000F023FE10E0774890F8B1
:1029E000B20001280BD17448D0F8C40038B90020D7
:1029F000724981F8B20000210A2000F011FE6F48F0
:102A000090F8B200012809D16D48D0E900104FF4C8
:102A1000806319436A4AC2E9001008E06848D0E9B7
:102A200000106FF480631940654AC2E900106348E2
:102A300090F8B20001280ED15E4890F8820002287A
:102A400009D15F49083103C94FF4806210435C4AE1
:102A5000083203C208E05A49083103C96FF48062A2
:102A60001040574A083203C2002495E0042C04DCCD
:102A700050488330005D002874D0204601F084FA6D
:102A800070B14E48B330005D28B904F10B01C8B2F3
:102A9000012100F0C5FD01214848B33001550EE089
:102AA0004648B330005D012805D104F10B01C8B2DE
:102AB000002100F0B5FD00214048B33001553F48EA
:102AC000B330005D012814D13D48A03804F10B0259
:102AD00001250026D0E9289A28463146FDF763FCF7
:102AE00049EA00094AEA010A3548A038C0E9289AAB
:102AF00016E03348A03804F10B0201274FF000081C
:102B0000D0E9289A38464146FDF74DFC0A46C143B4
:102B100009EA01092AEA020A2948A038C0E9289AE4
:102B2000042C20DC2548B330005D01281BD121484E
:102B30008330005D022816D12148A03804F10B0231
:102B40004FF0010BD0E92A9A0020009058460099D6
:102B5000FDF729FC49EA00094AEA010A1848A038A9
:102B6000C0E92A9A17E01648A03804F10B020121A7
:102B7000D0E92A9A0020CDE9010108460199FDF724
:102B800012FC0A46C14309EA01092AEA020A0C4872
:102B9000A038C0E92A9A641C072CFFF667AF0548E5
:102BA00090F8880088B3054890F8BA00012810D141
:102BB000034907E0AC0000204C07002088050020F6
:102BC0006805002003C94FF480221043404A03C225
:102BD00006E03F4903C96FF4802210403C4A03C21B
:102BE0003C4890F8BA00012810D13B4890F8880082
:102BF00002280BD136480830D0E900104FF480226B
:102C00001143334A0832C2E900100AE03048083064
:102C1000D0E900106FF4802319402D4A0832C2E930
:102C200000102C4890F8D80058B9FEF709FD40B9BB
:102C30000120284981F8D8000121142000F0F0FC7F
:102C40000FE0244890F8D80001280AD1FEF7F8FCDC
:102C500038B100201F4981F8D8000021142000F06D
:102C6000DFFC1C4890F8D800012809D11848D0E9A9
:102C700000104FF480121143154AC2E9001006E01B
:102C8000134903C96FF480121040114A03C211485E
:102C900090F8D80001280ED10F4890F88100022842
:102CA00009D10B49083103C94FF480131843084A6E
:102CB000083203C20AE006480830D0E900106FF479
:102CC00080121140024A0832C2E90010BDE8FE8FAE
:102CD0006805002088050020AC0000207CB5FFF7C7
:102CE00069FD3548D0F8B40018B13348D0F8B800C1
:102CF00000B17CBD3048D0F894002F49D1F898102D
:102D0000401AB0F5805F04D300F0B0FC002800DA70
:102D1000EFE700244CE0C4EBC400274908584FF605
:102D2000FF71884212D1C4EBC40023490844D0F893
:102D300002004FF6FF71884208D1C4EBC4001E495F
:102D4000084440684FF6FF7188422FD01A49D1F8E5
:102D50009400082100F0B6FD002826DB8DF8004025
:102D6000002508E0C4EBC40028441349095C681C32
:102D70000DF800106D1C072DF4D30821684600F0F3
:102D8000B5FD002811DB002506E0FF20C4EBC401DF
:102D90002944094A50546D1C072DF6D30648D0F833
:102DA000940008300449C1F89400A2E7601CC4B242
:102DB000142CB0DD00BF9CE7C80400202DE9F04FC3
:102DC00085B004468846174601F020FB05460E46AE
:102DD00000200090207801280ED1D4E90430D8F8E2
:102DE0001010591840F10000691A76EB000003D268
:102DF000002005B0BDE8F08FD4E90201884201DB74
:102E0000012000E000208146D4E90101884202DB74
:102E1000B9F1000F06D1D4E90101884222DCB9F1F1
:102E2000000F1FD1207810B12078022804D1032090
:102E30002070C4E9045615E02078032812D1D4E9A3
:102E40000431D8F80C001A1841F10000A91A76EBE9
:102E5000000007D3012020700121384600F0E0FB7C
:102E600001200090E1686068884202DCB9F1000F3F
:102E700006D1E1686068884223DBB9F1000F20D1F8
:102E80002078012802D02078032804D10220207065
:102E9000C4E9045615E02078022812D1D4E904319F
:102EA000D8F80C001A1841F10000A91A76EB0000BE
:102EB00007D3002020700021384600F0B1FB01202C
:102EC00000902078012802D0207802280DD12748D0
:102ED000D0E9281C012000FA07F211434CEAE27005
:102EE000224AA032C2E900100BE02049A03103C9F8
:102EF0000122BA40D243104001EAE2711B4AA032DB
:102F000003C22078012802D02078022817D198F82F
:102F10000000022813D115483A460121D0E92AAB16
:102F20000020CDE9010108460199FDF73CFA4AEA83
:102F3000000A4BEA010B0D48C0E92AAB14E00B482C
:102F40003A460121D0E92AAB0020CDE90301084629
:102F50000399FDF728FA0A46C1430AEA010A2BEA57
:102F6000020B0248C0E92AAB009842E7C8040020DF
:102F70002DE9F04F89B004468846174601F046FA1D
:102F800005460E4600200090D4E90201884201DB8C
:102F9000012000E000208146D4E90101884202DBE3
:102FA000B9F1000F06D1D4E90101884222DCB9F160
:102FB000000F1FD1207810B12078022804D10320FF
:102FC0002070C4E9045615E02078032812D1D4E912
:102FD0000421D8F80C00121841F10000A91A76EB70
:102FE000000007D3012020700121384600F018FBB3
:102FF00001200090E1686068884202DCB9F1000FAE
:1030000006D1E1686068884223DBB9F1000F20D166
:103010002078012802D02078032804D102202070D3
:10302000C4E9045615E02078022812D1D4E904300E
:10303000D8F80C10591840F10000691A76EB00001E
:1030400007D3002020700021384600F0E9FA012063
:1030500000902078012802D02078022813D130482F
:103060003A460121D0E928AB0020CDE9010108460C
:103070000199FDF798F94AEA000A4BEA010B284842
:10308000C0E928AB14E026483A460121D0E928AB34
:103090000020CDE9030108460399FDF784F90A46AB
:1030A000C1430AEA010A2BEA020B1D48C0E928AB1A
:1030B0002078012802D02078022817D198F8000043
:1030C000022813D116483A460121D0E92AAB002044
:1030D000CDE9050108460599FDF765F94AEA000AB8
:1030E0004BEA010B0E48C0E92AAB14E00C483A4603
:1030F0000121D0E92AAB0020CDE907010846079954
:10310000FDF751F90A46C1430AEA010A2BEA020B0C
:103110000348C0E92AAB009809B0BDE8F08F000071
:10312000C804002070B5054600204F49C1F8B8001A
:10313000002D7DDBC1F89C004FF48030C1F8980071
:103140000846D0F89800C1F8940048480078012853
:1031500003D10121002000F063FA4448007A0128DD
:1031600003D10121084600F05BFA404890F82000A6
:10317000012803D10121022000F052FA3B4890F8C7
:103180003800012803D10121032000F049FA374813
:1031900090F85000012803D10121042000F040FAEA
:1031A000324890F86800012803D10121052000F081
:1031B00037FA2E4890F88000012803D1012106201B
:1031C00000F02EFA294890F89800012803D1012137
:1031D000072000F025FA254890F8B000012803D117
:1031E0000121082000F01CFA204890F8B1000128C5
:1031F00003D10121092000F013FA1C4890F8B20015
:10320000012803D101210A2000F00AFA00240BE072
:103210001648B330005D012805D104F10B01C8B296
:10322000012100F0FDF9641C072CF1DB0F4800E0E0
:1032300019E090F8BA00012803D10121122000F012
:10324000EFF90A4890F8C000012803D101211320AA
:1032500000F0E6F9054890F8D800012803D10121D3
:10326000142000F0DDF970BDC8040020880500209E
:1032700001200249C1F8B80070470000C8040020CE
:10328000014903C970470000680500204FF4005051
:1032900070470000074890F8B000064991F8B41054
:1032A00040EA4100034991F8B81040EA8100C0B2F9
:1032B00070470000C80400202DE9F0474FF00009D6
:1032C00000206E49C1F8B000C1F8B400C1F8B800E0
:1032D00000F0DAF800206A490870087281F82000CE
:1032E00081F8380081F8500081F8680081F880008A
:1032F00081F8980081F8B00081F8B10081F8B2003F
:10330000002404E000215E48B3300155641C072C02
:10331000F8D300205A4981F8BA0081F8C00081F83A
:10332000D800564AA0321060506000210832116067
:103330005160002252498A61CA610021504A1163DA
:1033400051639164D164116651669167D16780328F
:103350001161516118321061506100224848C0303B
:1033600002614261002403E0FF2044490855641CC7
:10337000932CF9D34FF480304049C1F8940020E0F9
:103380003E49D1F8940000F087FA4FF6FF71884269
:1033900010D13A48D0F894003A4908403749C1F86A
:1033A00098000846D0F89800A0F58030000BC1F8CE
:1033B0009C000FE03148D0F8940008302F49C1F844
:1033C0009400FFF763FF00F580302C49D1F894108A
:1033D0008842D5D800BFFFF759FF00F58030274954
:1033E000D1F89410884243D14FF0FF352E4600208B
:1033F0002249C1F89C001DE02049D1F89C10491CCD
:103400004FF4803202EB0131A1F1080000F04EFAD6
:1034100007468846781B78EB060104D23D464646AF
:103420001648D0F89C901548D0F89C00401C1349D1
:10343000C1F89C001148D0F89C000228DCD30F484A
:10344000C0F89C90D0F89C004FF4803101EB003024
:103450000A49C1F898000846D0F89800C1F89400CD
:10346000D1F8940000F06AF9002801DABDE8F0878D
:1034700001200249C1F8B40000BFF7E7C8040020EA
:103480008805002000F0FF0010B52DED068B5C488C
:1034900090ED090A10EE101A084604F04FF841ECBE
:1034A0001A0B9FED580B53EC102B03F037FC41EC3B
:1034B000190B9FED560B53EC102B03F021FE41EC42
:1034C000180B03F083FD5349C8624D4890ED0C0A78
:1034D00010EE101A084604F031F841EC1A0B9FED7B
:1034E000490B53EC102B03F019FC41EC190B9FED29
:1034F000470B53EC102B03F003FE41EC180B03F0C9
:1035000065FD444908643E4890ED0D0A10EE101A1E
:10351000084604F013F841EC1A0B9FED3A0B53ECFC
:10352000102B03F0FBFB41EC190B9FED380B53EC18
:10353000102B03F0E5FD41EC180B03F047FD354976
:1035400048642F4890ED110A10EE101A084603F057
:10355000F5FF41EC1A0B9FED2B0B53EC102B03F0F6
:10356000DDFB41EC190B9FED290B53EC102B03F005
:10357000C7FD41EC180B03F029FD2649886520485A
:1035800090ED120A10EE101A084603F0D7FF41EC36
:103590001A0B9FED1C0B53EC102B03F0BFFB41ECFF
:1035A000190B9FED1A0B53EC102B03F0A9FD41EC06
:1035B000180B03F00BFD1749C865114890ED1A0A66
:1035C00010EE101A084603F0B9FF41EC1A0B9FEDFC
:1035D000120B53EC102B03F0A1FB41EC190B9FEDE8
:1035E0000B0B53EC102B03F08BFD41EC180B03F08D
:1035F000EDFC0849C1F88C00BDEC068B10BD000045
:10360000AC0000200000000000E06F40000000005F
:103610000000B040880500200000000000907040CD
:103620007CB505460E461048D0F8B000D0B100F089
:10363000EDFE47F6FF721140CDE900012EB1531C9B
:10364000DDE900101843CDE90010002407E01DF863
:103650000400C5EBC5012144034A5054641C072CE7
:10366000F5D300BF7CBD0000C804002010B513498D
:103670000222D1F89C00012101F030F804464FF4F9
:10368000803101EB043000F059F8002802DA4FF0E5
:10369000FF3010BD0948C0F89C40D0F89C004FF4A2
:1036A000803101EB00300549C1F898000846D0F898
:1036B0009800C1F894000020EBE70000C804002047
:1036C00010B501200549C1F8B0000548007A18B1CD
:1036D00001210020FFF7A4FF10BD0000C804002056
:1036E000AC00002003480078022802D100200149E4
:1036F000886070476806002010B503460D480078C2
:1037000010B14FF0FF3010BD01200A4C20700A4864
:103710001840606020464068181A0844401E064C55
:10372000204000F58050034CA0602046026200203B
:10373000E9E700006806002000F0FF0010B504462D
:103740001C48007810B14FF0FF3010BD042019491B
:10375000087000BF502000F0A7FD00BF00BF01208F
:1037600000F0A2FD002000F09FFD00BF00BF06207A
:1037700000F09AFD00BF00BF202000F095FDC4F3CB
:10378000074000F091FDC4F3072000F08DFDE0B28A
:1037900000F08AFD00BF00BF00F02EF80028FBD12A
:1037A00000BF042000F080FD00BF00200149087028
:1037B00000BFCAE768060020014800787047000093
:1037C0006806002001480078704700006806002065
:1037D00010B5002007490870002106484161816149
:1037E000243004490861C0212438C161042000F05C
:1037F0005BFD10BD6806002010B500BF052000F07D
:1038000053FD002000F050FD00F0010400BF2046F1
:1038100010BD00002DE9F04107460C4616469846BB
:103820001C48007838B11B480078032803D04FF0BB
:10383000FF30BDE8F081FFF7DFFF10B16FF001004E
:10384000F7E71448007890B98EB100BF032000F06C
:103850002BFDC4F3074000F027FDC4F3072000F060
:1038600023FDE0B200F020FD03200A490870002586
:1038700004E0002000F018FD78556D1CB542F8D327
:10388000B8F1000F03D100BF0020024908700020EA
:10389000CFE700006806002038B504460023042264
:1038A00021466846FFF7B6FF009838BD1CB50446B0
:1038B0000023082221466846FFF7ACFFDDE900013E
:1038C0001CBD000002460848007810B14FF0FF30E0
:1038D00070470220044B18700020D86018464260E0
:1038E00081600020F4E70000680600202DE9F04127
:1038F00005460E461248007802281ED110488068FE
:10390000B04202D20E48806800E0304607460024EC
:1039100008E0295D0A48103000F0EAFE002800DACD
:1039200002E0641CBC42F4D300BF05488068001B61
:10393000034988602046BDE8F0814FF0FF30FAE788
:10394000680600207047000012480068092803D369
:1039500000201049086004E00E480068401C0D4932
:1039600008600C4800680C490968884208D24FF08A
:103970009040406940F004004FF09041486107E0FA
:103980004FF09040406920F004004FF090414861B2
:1039900070470000BC020020C002002070B52DED71
:1039A000028B3D4804683D48056800203A4908609C
:1039B0003A4908603A48006898B1642C01DB642DEC
:1039C0000FDA01203749086000F0B8FA002000F053
:1039D000DDF800203249086033490860BDEC028BF5
:1039E00070BD3048006860B12F480068401C2E4907
:1039F0000860084600680F284BD30020294908605A
:103A000047E02A48806A00EE100A2948D0ED000AF3
:103A1000B4EEE00AF1EE10FA04DC2648D0F8D40047
:103A200001282BD121488168084603F087FD41EC2D
:103A3000180B9FED210B53EC102B03F05FFC0AD306
:103A40001A48806A00EE100ADFED1D0AB4EEE00AA3
:103A5000F1EE10FA0BDD9FED1B0A154880ED000A10
:103A60000A2000F093F801200D49086011E00020C1
:103A700000F08CF800200A4908600AE09FED120A65
:103A80000B4880ED000A002000F080F80020044977
:103A9000086000BFA2E70000D0020020D40200208E
:103AA000E4020020E8020020EC020020980400203C
:103AB000CC0200204C070020000000000000004065
:103AC00000000045000034420000704270470000D2
:103AD000034890ED1F0ABDEEC00A10EE100A7047B1
:103AE000280000201B48406940F4E0101949486153
:103AF0001948006840F4805017490860174800686A
:103B000040F01000154908601548006840F48070C6
:103B100013490860081D006840F48070091D0860A2
:103B20000020104908601049086064200F490860AF
:103B30000F49086000200F4908600F4908600F49CD
:103B400008600F4908600F49086001200E490860AD
:103B5000704700000010024000080048000C0048B8
:103B600004040140C8020020C4020020D00200204A
:103B7000D4020020E4020020E8020020DC02002041
:103B8000E0020020EC020020D80200200A2802D81F
:103B90000349086002E00A21014A116070470000F1
:103BA000C002002010B5FFF79DFF002403E00A20AB
:103BB00000F004FE641CB4F57A7FF8D34FF4C060C3
:103BC000FCF762FE01F01CFAFDF75AFD00F024FC40
:103BD00000F014FB00F09EFB00F016F800F0FEFB76
:103BE000FFF76AFB00F07EFBFDF7C2FD00F0BCF9B9
:103BF000FEF750FC02F044FC10BD10B5FDF740FD8F
:103C0000FFF742FC10BD000010B52DED068B764885
:103C1000006A764908607448C0694860744890ED4D
:103C20002A0A10EE101A084603F088FC41EC1A0B21
:103C30009FED700B53EC102B03F070F841EC190B57
:103C40009FED6E0B53EC102B03F05AFA41EC180B5E
:103C500003F0BCF96549C8609FED6A0A084680ED2B
:103C6000040A6148806A88615F48416A5F48C161AF
:103C7000002141629FED640A80ED0A0A5A48006BF8
:103C80005A4908635848C16A58484163584890EDFA
:103C9000290A10EE101A084603F050FC41EC1A0BEA
:103CA0009FED5A0B53EC102B03F038F841EC190B35
:103CB0009FED520B53EC102B03F022FA41EC180B42
:103CC00003F084F94949C8639FED520A084680ED24
:103CD000100A4548806B404288644348406B41422B
:103CE0004248C164002141659FED470A80ED160AF4
:103CF0003D48006C3D4908663B48C16B3B48416606
:103D00000021C1663848806C384908673648416CE4
:103D1000364841670021C1673348006D3349C1F817
:103D200080003148C16C3148C0F8841040F6C4119D
:103D3000C0F88C102C48806D2C49C1F890002A489E
:103D4000416D2A48C0F894100021C0F89C10002052
:103D50002649C1F8A0009FED300A084680ED290AE7
:103D60000020C1F8AC009FED2B0A084680ED2C0A1C
:103D70000020C1F8C8009FED290A084680ED330AEB
:103D80000020C1F8D4004FF4C830C1F8B8009FED4E
:103D9000240A084680ED2F0A0020C1F8C400C1F8AB
:103DA000D800084690ED0A0AF0EE000A80EE201ACC
:103DB00011EE104A204603F0C1FB41EC190B9FEDB8
:103DC000190B53EC102B02F0A9FF41EC180B02F079
:103DD000BFFE00EE100A054880ED370A01201349A6
:103DE0000860BDEC068B10BD280000204C070020A9
:103DF000AC0000200000000000E06F400000000068
:103E00000000B04000007F3D0080843D00000000C5
:103E100000C072400000963D00469B410000203DDE
:103E20000000C83C000000000020AC40D001002091
:103E30000448D0F8D810406A08440249C1F8D800B4
:103E4000704700004C070020F0B50024631C3BB90C
:103E50009B02374DC5F8B8300123C5F8C43010E0D7
:103E600000252B03DE1703EB9666B611642796FB3D
:103E7000F7F62F4FC7F8B86000233E46C6F8C430A7
:103E800000BF2B4BD3F8B83000EE103AB8EEC00AA2
:103E9000274BD3ED2F0A20EE200A83ED300AD3F80A
:103EA0008C0040F61C43984208DD4FF42073204DEF
:103EB000C5F8C8300123C5F8D4302AE000231C4DD2
:103EC000C5F8D430552801DA552004E040F6D52352
:103ED000984200DD1846A0F15503DD1703EB956508
:103EE000A9114A1C134D55F82250124E56F8216064
:103EF000AD1B1E46A6EB811605FB06F3DD1703EB93
:103F000095650C4E56F8216006EBA515084EC6F8CF
:103F1000C850074BD3F8C83000EE103AB8EEC00ACC
:103F2000034BD3ED330A20EE200A83ED340AF0BDB3
:103F30004C070020F4760008704700000348006832
:103F400040F0400001490860704700003008002040
:103F50000448006820F0400008B1012070470020AC
:103F6000FCE700003008002010B50020054948603B
:103F70008860C860086148618861C861086200F0B3
:103F8000BDFB10BD30080020014603480068012237
:103F90008A401040704700003008002010B52DED19
:103FA000088B40F677703B4908604FF47B703A49C4
:103FB000086040F26F5039490860394890ED2B0A8B
:103FC000F0EE080A30EE200A10EE101A084603F050
:103FD000B5FA41EC1A0B9FED330B53EC102B02F0AA
:103FE0009DFE41EC190B9FED310B53EC102B03F0B0
:103FF00087F841EC180B02F0E9FF2E4908602848C9
:1040000090ED2A0A10EE101A084603F097FA41ECD8
:104010001A0B9FED240B53EC102B02F07FFE41ECAA
:10402000190B9FED220B53EC102B03F069F841ECB8
:10403000180B02F0CBFF20490860194890ED2D0ABB
:1040400010EE101A084603F079FA41EC1B0B9FEDB5
:104050001B0B53EC102B03F053F841EC1A0B9FEDA4
:10406000110B53EC102B02F059FE41EC190B9FED94
:104070000F0B53EC102B03F043F841EC180B02F03C
:10408000A5FF104908604FF47B700F490860BDEC34
:10409000088B10BDD4010020D8010020DC010020D5
:1040A000AC0000200000000000E06F4000000000B5
:1040B0000000B040E4010020E8010020CDCCCCCCD1
:1040C000CCCCEC3FEC010020E001002010B52DED40
:1040D000088B40F699103B49086040F221503A495C
:1040E000086040F26F5039490860394890ED2B0A5A
:1040F000F0EE080A30EE200A10EE101A084603F01F
:104100001DFA41EC1A0B9FED330B53EC102B02F010
:1041100005FE41EC190B9FED310B53EC102B02F017
:10412000EFFF41EC180B02F051FF2E4908602848C0
:1041300090ED2A0A10EE101A084603F0FFF941EC40
:104140001A0B9FED240B53EC102B02F0E7FD41EC12
:10415000190B9FED220B53EC102B02F0D1FF41EC19
:10416000180B02F033FF20490860194890ED2D0A22
:1041700010EE101A084603F0E1F941EC1B0B9FED1D
:104180001B0B53EC102B02F0BBFF41EC1A0B9FED05
:10419000110B53EC102B02F0C1FD41EC190B9FEDFC
:1041A0000F0B53EC102B02F0ABFF41EC180B02F09D
:1041B0000DFF1049086040F221500F490860BDEC26
:1041C000088B10BDD4010020D8010020DC010020A4
:1041D000AC0000200000000000E06F400000000084
:1041E0000000B040E4010020E8010020CDCCCCCCA0
:1041F000CCCCEC3FEC010020E00100200020034982
:10420000086014200249086070470000EC03002099
:10421000E803002070B52148056800201F490860A8
:10422000002435E004EB44001D4901EB80004068A8
:10423000401B04EB44011A4A02EB8101486004EB85
:104240004400114601EB8000406800281FDC04EBAD
:10425000440102EB81018868804710E004EB4400D0
:104260000F4901EB8000406804EB44010C4A52F80E
:104270002110084404EB440102EB8101486004EB87
:104280004400074901EB800040680028E6DD641C1B
:10429000044800688442C5D370BD0000EC030020D0
:1042A000F8020020E80300200146002070470000CB
:1042B0000B4890F80C010A4991F8101140EA4101AD
:1042C000074890F81401064A92F81C21104341EA6D
:1042D0008000034991F8181140EAC100C0B270474C
:1042E0005808002000200649C1F80C01C1F814014B
:1042F000C1F81801C1F81C010120C1F81001704774
:104300005808002070470000014903C970470000A9
:10431000F00200200021024A116051607047000045
:10432000F00200202DE9F04100242BE0174850F85E
:10433000240030B3A2000F25002628463146FCF7A2
:1043400032F80A46C143D043114AD2E9003219403B
:1043500010400F4AC2E900100C4951F82400804770
:1043600000210F2200EA020701EA0108A2003846F4
:104370004146FCF718F8064B0CCB10431943044A8E
:1043800003C2641C102CD1D3BDE8F081A4770008CF
:10439000F002002002480068401E01490860704792
:1043A000180000200548006840F4700003490860C8
:1043B0004FF00060014980390860704788ED00E0E7
:1043C000054800680449C96809B1012100E00021DD
:1043D00040EA4100C0B27047801100200020094926
:1043E000086048608860C8604FF4C03088614FF44E
:1043F0000010C8610846C0698969401A014988628D
:1044000070470000801100207047000001490868D3
:1044100049687047F80100200020074908600749F3
:1044200008600021064A11605160064A116051601F
:10443000012005490860704710020020000200209A
:10444000F8010020080200200402002070B5044694
:104450000D460448006818B92046294600F004F8C3
:1044600070BD0000100200202DE9F04104460D4609
:104470000D48046045600D4A0023014608684968FC
:10448000FBF71AFF094B0022A0FB036701FB037136
:1044900000FB02100649C1E90060012005490860DF
:1044A000FFF70EF9BDE8F081F8010020005C260559
:1044B00008020020100200202DE9F0416B4A12682A
:1044C00002F0400252B3694A1C3A126822F04002DC
:1044D000664B1C3B1A60664A1278032A05D01A46BE
:1044E000126822F040021A6024E0624A1278624B9D
:1044F0001B689A4213D25F4A13781278521C5D4DA2
:104500002A705E4AD25C594B0C331A80574A1C3AC7
:10451000126842F04002554B1C3B1A600AE0002230
:10452000534B1A70514A1C3A126822F040024F4B0A
:104530001C3B1A604D4A126802F02002002A78D013
:104540004A4A1C3A126822F02002484B1C3B1A606F
:10455000464A08321288D4B2454A1278022A78D0E4
:10456000434A1278032A74D0FFF750FF444AD2E935
:1045700000524FF47A76AB1942F100021B1A8A41BD
:1045800005D33F4B0CCB821A71EB030205D20022FC
:10459000374B1A70FF223B4B1A70394A03C2022C68
:1045A00010D1384A1278102A0CD1374B1A700222D7
:1045B0005A70364B1A700022354B1A7001222C4B60
:1045C0001A7046E02A4A1278012A3BD12F4A137802
:1045D0001278521C2D4D2A702B4AD4542A46127838
:1045E000042A10DC2A461278032A01D1102C07D1A4
:1045F000264A1278042A2CD1224A1278102A28D16D
:10460000234A147025E0214A1278214B1B789A42E4
:1046100014DC1C4A1278102A1BD1032C19D11B4A16
:1046200012781B4B1B789A4204D10222104B1A704D
:104630000FE018E000220E4B1A700AE000220C4B2B
:104640001A7006E0102C04D10E4A1278102A00D1FC
:10465000FF240C4A1470054A1C3A126842F02002EA
:10466000024B1C3B1A60BDE8F08100001C38014081
:104670001C020020180200203002002080090020C7
:10468000280200201B0200207E0A002019020020C0
:104690001A02002010B502460B460020002102E05D
:1046A000545C2044491C9942FAD310BD30B50146F0
:1046B00042F21072002004240DE0914207D3B1FBB6
:1046C000F2F3A50003FA05F5284403FB12110A25AD
:1046D000B2FBF5F2641E002CEFDA30BD084400E0B6
:1046E000801A9042FCDA00E010440028FCDB70479E
:1046F00002464FF0FF3070477047000010B5044885
:10470000407910B9FFF7E2FC01E0FFF747FC10BD6C
:104710004C020020002809DB00F01F02012191401B
:104720004209920002F1E022C2F800117047000035
:1047300010B5002804DB0A07130E054A135406E0DF
:104740000A07140E034A00F00F031B1FD45410BDB8
:1047500000E400E018ED00E04FF09040006840F009
:10476000FF004FF0904108600846C06860F0FF000D
:10477000C8600F4800680F4908430D4908600C489D
:104780000C3000680B49C943084309490C310860E3
:104790000948006840F0FC000749086006480C30F2
:1047A000006860F0FC0004490C31086070470000AC
:1047B00000040048300000F3000800487047000083
:1047C0000349086000BF024909680029FBD170470E
:1047D0001800002010B52C480088C0F3800000B9F4
:1047E00010BD2A492A4802F0FFF827480088C0F384
:1047F000C000D8B124480088C0F3401028B900F0A8
:104800004DF8044600F0AAF910E01F48008820F097
:1048100020001D4908800846008820F00800088014
:104820004FF4FA701B49088000F0CEF91648008852
:10483000C0F3001088B11448008820F00800083048
:10484000114908800846008820F0100008804FF4C5
:10485000346000F0BFF9104908800D49896A00EE04
:10486000101ABCEEC00A10EE100A00F021F910EE8A
:10487000100A064988620448008820F004000249B2
:10488000088000BFACE7000004000020980400206E
:10489000680400201E000020140000207A480088D0
:1048A000C0F3402098B979480088C8387749088013
:1048B000084600884CF6E831884218D172480088D2
:1048C00020F4007000F500706F4908800FE06F4819
:1048D0000088C8306D49088008460088B0F57A4FD6
:1048E00005D16948008820F400706749088067484E
:1048F0000188674801606748007810B1012863D1DA
:1049000063E06548806800EE100A6448008800EEA5
:10491000900AF8EE600AB4EEE00AF1EE10FA03DD58
:1049200001205C4908704FE05D490988574A1288A8
:10493000514300EE101AF8EEC00A5749496800EEDC
:10494000101A80EE801ABCEEC10A10EE101A88B25E
:104950005149C96800EE101A5149098800EE901AB1
:10496000F8EE600AB4EEE00AF1EE10FA01D20A2184
:1049700001E06FF009014B4A12881144494A118045
:1049800049490988411A1288114409B2474A1180DD
:104990001146B1F90010B1F57A7F03DD4FF47A7159
:1049A000118009E04149B1F9001011F57A7F03DA6D
:1049B0004FF618413D4A11803B4909883B4A12880D
:1049C0001144394A118000BF2DE03348C06800EE21
:1049D000100A3348008800EE900AF8EE600AB4EE40
:1049E000E00AF1EE10FA03DD00202A49087019E010
:1049F0002948806800EE100A2848008800EE900AD6
:104A0000F8EE600AB4EEE00AF1EE10FA05DD264891
:104A100000880A382449088004E0234800880A30C6
:104A20002149088000BF00BF1748008820F480702B
:104A3000154908800846008820F0800008801A4840
:104A40000088B0F5074F0BDB4FF40740164908808C
:104A50000D48008820F0800080300B49088010E06D
:104A600011480088B0F5346F0BDC4FF434600E4908
:104A700008800548008820F4807000F580700249A5
:104A800008800948008870470400002016000020B4
:104A9000947401402400002098040020120000209B
:104AA000100000201E000020140000201C00002028
:104AB00070B50246274E3688964202D2BBEE040AF3
:104AC00070BD244EB6F84060964202D99FED220A8E
:104AD000F6E700200023202109E0461873101D4E40
:104AE00036F81360964201D2194600E018460E1AB5
:104AF000012EF2DC174E36F8114000EE101AF8EED7
:104B0000401ABBEE040AB1EE042AF0EE400A42EE6F
:104B1000210A36F8105000EE100AF8EE401ABBEEEB
:104B2000040AB1EE042AB0EE401A02EE211A161B56
:104B300000EE106AB8EE400A71EE601A60EE211ABB
:104B40002E1B00EE106AB8EEC02A81EE820A30EE0B
:104B5000200AB5E73276000800000C4301460448FD
:104B6000016001F59060024A083210600020704731
:104B70009C7401404FF09040006820F470204FF08A
:104B8000904108600846006840F42020086008460C
:104B9000406820F4407048600846C06820F47020E7
:104BA000C8600846806840F4702088600846406A03
:104BB00020F0FF014FF090404162406A40F0DD017B
:104BC0004FF09040416270470321014801607047F7
:104BD000987701400549086000F59061034A083262
:104BE0001160032202490A60704700009C74014072
:104BF0009477014010B5FFF7AFFD5948406940F088
:104C00008050574948610846C06A20F4F870C8626D
:104C10004FF0A040806820F040504FF0A0418860E5
:104C20000846806840F0805088604E48006820F058
:104C30004050C1F808010846D0F8080140F0805003
:104C4000C1F80801484800684849B0FBF1F000EBA2
:104C50008000840000BF601E041EFCD1444845490A
:104C600008604FF0A040806840F000404FF0A04145
:104C7000886000BF4FF0A040806800F0004000282E
:104C8000F8D13848006840F000404FF0A041C1F82A
:104C9000080100BF3348006800F000400028F9D147
:104CA0004FF0A040806840F001004FF0A0418860C4
:104CB00000BF4FF0A040006800F001000028F8D0CD
:104CC0002848006840F001004FF0A041C1F80801F9
:104CD00000BF24480838006800F001000028F8D020
:104CE0004FF0A040C068244908434FF0A041C8607D
:104CF0002248086340F2472048630846406920493B
:104D000008434FF0A04148611E4816492831086009
:104D10004FF491604FF0A041C1F834010846D0F83B
:104D2000140140F04070C1F814010E4810300068C2
:104D3000154908430B491031086088204FF0A04105
:104D40000860802048600846806840F00400886061
:104D500001211220FFF7ECFC1220FFF7DBFC10BD55
:104D600000100240080100500000002040420F00E7
:104D700006A0420008030050C005C00C85300404A2
:104D8000D836601885F3300DC0B601030D480068B1
:104D900020F470400B4908600846006840F4A040C9
:104DA0000860081D006820F0C000091D0860081D8B
:104DB000006820F47040091D0860C02001492831B6
:104DC000086070470008004870B505460C460B485F
:104DD000406940F0010009494861094809490861F2
:104DE00008464561C46042F6A320886001210B207B
:104DF000FFF79EFC0B20FFF78DFC70BD00100240FA
:104E00000C0300500000024010B54148006B40F414
:104E100080503F4908630846806940F0005088612F
:104E20003C48006840F00E013A48016000BF394834
:104E30004438006800F480300028F8D036483749FC
:104E400008604FF461413548143001604FF434611B
:104E500032481C300160042130483C300160082198
:104E6000001D01604CF680212C48243001604FF475
:104E7000803028494C39086081112648103801607B
:104E800026486430006820F00A112448643001602C
:104E9000006840F480712148643001601F48383058
:104EA00000681F4908431D4938310860032119482B
:104EB00034380160022117484838016017488038AB
:104EC000006840F400301549803908604420002112
:104ED000002804DB0A07130E124A135406E00A07DF
:104EE000140E114A00F00F031B1FD45400BF4420BE
:104EF000002809DB00F01F020121914042099200C5
:104F000002F1E022C2F8001100BFFFF733FE10BD2E
:104F100000100240CC7701400A0002088074014072
:104F2000404C404000E400E018ED00E010B50246BF
:104F30000B46002106E0585C545CA04201D00120E1
:104F400010BD491C4029F6DB0020F9E7704700003E
:104F500010B50648006838B10548007820B900202F
:104F60000249086000F078FD10BD00006C020020CE
:104F70005C02002010B502460124002105E0505CCF
:104F8000FF2801D0002402E0491C4029F7DB00BFC4
:104F90000CB1002010BD0023022102E05058434014
:104FA000891C3F29FADB1068184408B90120F1E791
:104FB0000020EFE710B508220B490C48FBF77CFAFC
:104FC00008220949083109480830FBF775FA082218
:104FD00005490748FBF770FA0822034908310448DD
:104FE0000830FBF769FA10BDC80B0020800B0020C9
:104FF0000C0D00200321014A117070475C02002053
:1050000070B54FF486564FF0FF305F4908600020BE
:105010005E49086002235E4A3C214FF4903000F064
:1050200019FB58B900F0ACFA00225A48D0E90E102A
:1050300062F38201574AC2E90E1008E00122554985
:10504000D1E90E0162F38200524AC2E90E01022345
:10505000514A74214FF4983000F0FCFA58B900F02E
:1050600041F900224B48D0E90E1062F30001494A91
:10507000C2E90E1008E001224648D0E90E1062F3A2
:105080000001444AC2E90E1000F0C6F9FFF792FF92
:105090000223424A80214FF4A03000F0DBFA58B9D5
:1050A00000F08CF800223B48D0E90E1062F30411A6
:1050B000384AC2E90E1008E001223648D0E90E1045
:1050C00062F30411334AC2E90E100223344A142158
:1050D0004FF4B03000F0BEFA58B900F081F9002268
:1050E0002C48D0E90E1062F386112A4AC2E90E104C
:1050F00008E001222748D0E90E1062F38611254A04
:10510000C2E90E100223274A04214FF4B83000F000
:10511000A1FA08B900F07AF900F0C4FC00F00AFF27
:105120001F480088204908601D4890ED010A1F486B
:1051300080ED000A1A4890ED020A1D4880ED000A31
:10514000144800781B4908703046FFF713FF0546E6
:10515000002340224FF4A8311748FEF75BFB1648A6
:10516000FFF708FF044645B124B113493046FFF765
:10517000DDFE10B100F0F6FB04E01DB914B10E48DD
:1051800000F092FA70BD0000540200205802002086
:105190003C0C0020800B0020C80B0020780C002065
:1051A0003C0D0020480200208001002084010020E6
:1051B000880100207C010020940E002001203C4941
:1051C000088042F21070C8609FED3A0A084680EDF0
:1051D000020A9FED390A80ED010A0120088242F29D
:1051E00010713348C1619FED340A80ED060A9FEDCE
:1051F000330A80ED050A01202D49088442F210711E
:105200002B48C1629FED2E0A80ED0A0A9FED2D0A00
:1052100080ED090A01202649088642F210712448CF
:10522000C1639FED290A80ED0E0A9FED280A80EDEB
:105230000D0A01201E49A1F8400042F210711C48DD
:10524000C1649FED230A80ED120A9FED220A80EDD2
:10525000110A01201649A1F850004EF660211448A9
:10526000C1659FED1D0A80ED160A9FED1C0A80EDB9
:10527000150A01200E49A1F86000A1F86200A1F80A
:105280006400A1F86600A1F86800A1F86A00A1F81E
:105290006C00A1F86E00A1F87000A1F8740010492C
:1052A0000348C167B3EE040A80ED1E0A7047000090
:1052B000780C00200000304200002842000020420C
:1052C00000007C42000082420000704200007442F4
:1052D0000080F7430000FA430000BE420000C842CD
:1052E00000EB410010B537A13848FBF77CF838A136
:1052F00036480830FBF777F8B7EE000A334880ED00
:10530000040A9FED350A80ED050AB7EE000A80ED2C
:10531000080A9FED310A80ED090AB7EE000A80ED18
:10532000060A9FED2D0A80ED070AB7EE000A80ED10
:105330000A0A9FED290A80ED0B0AB7EE000A80EDFC
:10534000140AB7EE000A80ED150AB7EE000A80EDE8
:10535000100A9FED210A80ED110AB7EE000A80EDD8
:105360000C0A9FED1D0A80ED0D0AB7EE000A80EDD4
:105370000E0A9FED190A80ED0F0AB7EE000A80EDC4
:10538000180A9FED150A80ED190AB7EE000A80EDA4
:10539000120A9FED110A80ED130AB7EE000A80EDA4
:1053A000160A9FED0D0A80ED170A9FED0B0A80ED9E
:1053B0001A0A9FED090A80ED1B0A9FED080A80ED8D
:1053C0001C0A10BD4130303100000000C80B002025
:1053D0003030303000000000000000000000484283
:1053E000012007490880002048809FED060A0846F2
:1053F00080ED010A9FED040A80ED020A704700006B
:105400003C0D00203333CB40AE47E13D0020014945
:10541000086070474802002010B5562014490870F3
:1054200014480079303048702E2088703020C870C1
:105430000020087110A10E480830FAF7D4FF0D487B
:10544000407928B90EA10A481030FAF7CCFF0EE0D7
:1054500008484079012805D10AA105481030FAF71B
:10546000C2FF04E008A102481030FAF7BCFF10BDEB
:10547000F80C00204C02002056332E303300000080
:105480004D560000485600003F56000010B5354804
:10549000406835490861354890ED0D0ADFED340A62
:1054A000B4EEE00AF1EE10FA08DC90ED0D0ADFED43
:1054B000310AB4EEE00AF1EE10FA06D22E4890ED71
:1054C000300A294880ED0B0A05E02B4890ED340A9C
:1054D000254880ED0B0AFDF7D3FE23490863FCF74E
:1054E000AFF840B1204890F8380040F080001E49E5
:1054F00081F8380007E01C4890F8380020F0800060
:10550000194981F83800184890F838001B4908708C
:10551000FEF7CEFE144981F83900FDF7BBFE1249B3
:1055200081F83A00FEF74CFF0F4981F83B00FCF789
:1055300019F90D4981F83C00FEF744F90A4981F850
:105540003D00FCF773FF084981F83E00FEF700FDBF
:10555000054981F83F00FEF759FF034AC2E91001EF
:1055600010BD000098040020800B00203C0C00209F
:105570000AD7233C0AD723BC4C0700207C0100201B
:1055800002201C4908809FED1C0A084680ED010A94
:105590009FED1A0A80ED020A42F21070C8601848A6
:1055A0000861012008750421124841754FF4C0615B
:1055B000C182002101839FED130A80ED070A9FED50
:1055C000120A80ED080A9FED110A80ED090A9FED8D
:1055D000100A80ED0A0A0121C1629FED0E0A80EDDA
:1055E0000C0A9FED0D0A80ED0D0A9FED0C0A80ED6F
:1055F0000E0A70473C0C00200000184200005C427C
:1056000080EE36000000F0420000C0429A996142EC
:105610009A9973429A994942000000000000404262
:1056200010B50446012C07D0022C05D0032C03D062
:10563000082C01D0002010BD044804600448007804
:1056400008B900F05DF90120F5E7000054020020E0
:105650005C0200202DE9F04780460C4691461D462D
:105660002F46002F00DC012717E00023A21C414633
:105670000C48FEF7CFF8FF230122A11C0948FDF7D3
:1056800013F80646022E07D1224606494846FAF785
:10569000CEFE0120BDE8F0877F1E002FE5DC002054
:1056A000F8E70000940E00207047000010B50024B9
:1056B00087480078062810D2DFE800F0F0031011C8
:1056C0002F46844A8448016884480068FEF714F82D
:1056D000044614B902207E490870F7E0F6E07E48DF
:1056E00001687E480068FEF7EDF80446002C13DBE5
:1056F000794801687A48FEF7F9F8FDF7F3FF794831
:10570000006847F6FF71884203D100207049087095
:1057100002E004206E490870D8E0FEF74DF890B919
:10572000002403E000206E490855641CC02CF9DBFE
:10573000002369480268694801686948FEF76AF809
:10574000052063490870C1E0FEF736F800287BD1D8
:10575000FF230122604801686148FCF7A5FF044669
:10576000022C0CD060480068401E5F490860084663
:105770000068002803DD012055490870A6E059485B
:10578000006803284DD005DC70B101280DD0022837
:1057900078D129E0042876D0082860D0A0F5FE4012
:1057A000FE380028F4D17BE080E074224C494F4859
:1057B000FAF73DFE022C0BD0FFF794FD00224C4877
:1057C000D0E90E1062F30001494AC2E90E1008E068
:1057D00001224749D1E90E0162F30000444AC2E9BF
:1057E0000E01FFF7E7FB61E03C223D494148FAF733
:1057F0001EFE022C0BD0FFF7C3FE00223C48D0E96E
:105800000E1062F382013A4AC2E90E1008E001224A
:105810003748D0E90E1062F38201354AC2E90E1012
:1058200044E080222E493448FAF701FE022C0CD0C5
:10583000FFF7C4FC00222E48D0E90E1062F30411D9
:105840002B4AC2E90E1009E03EE001222848D0E9C7
:105850000E1062F30411264AC2E90E1026E014224B
:105860001F492648FAF7E3FD022C0DD0FFF7B8FDDB
:1058700000221F49D1E90E0162F386101C4AC2E9D9
:105880000E010AE011E00AE001221949D1E90E01F6
:1058900062F38610164AC2E90E0107E015E005E042
:1058A000022C01D0FFF7B2FD00E000BF00BF0020D6
:1058B000074908700B48006847F6FE71884203D01C
:1058C0000848006800F058FF00E000BF00BF10BDAE
:1058D0005C020020F54F00086802002064020020EE
:1058E000940E00206002002058020020C80B002007
:1058F000800B00203C0C0020780C00203C0D002088
:1059000010B51648007818B915480068002801DA63
:10591000002010BD12480068012806D0022808D0D7
:1059200003280AD0082810D10BE000F049F8012420
:105930000DE000F09FF8012409E000F033F80124A5
:1059400005E000F04BF8012401E0002400BF00BF97
:105950004FF0FF30024908602046DAE75C02002081
:105960005402002010B547F6FF70094908604FF453
:10597000A8300849086040200749086040224FF4D9
:1059800086510648FAF753FD01200549087010BDFD
:10599000600200206402002068020020940E0020B3
:1059A0005C02002008B50220044B80224FF4A03195
:1059B0000090032000F020F808BD0000000E002039
:1059C00008B50220044B74224FF498310090012056
:1059D00000F012F808BD0000500D002008B50220AC
:1059E000044B14224FF4B0310090082000F004F86A
:1059F00008BD0000800E00202DE9F04104460D4650
:105A000016461F46DDF818800D48C0F800800D4886
:105A100004600D480560324639460C48FAF707FD28
:105A2000B01C0B490860FF230022084601680748A4
:105A3000FCF73AFE012007490870BDE8F08100003C
:105A4000580200206002002064020020940E002012
:105A5000680200205C02002008B50120044B0422EB
:105A60004FF4B831009047F6FE70FFF7C5FF08BD50
:105A70004802002008B50220034B3C224FF490312D
:105A80000090FFF7B9FF08BDC40D002010B5044811
:105A9000007808B9FFF734FFFFF708FE10BD0000DB
:105AA0005C02002010B52DED048B0422FD49FE4858
:105AB000FAF702FD0020FC490839C860F948007A6D
:105AC00030B1F8480830FAF781FCF7490839C86066
:105AD000F648C08AF44908390861F448407D4861B5
