:020000040800F2
:10000000801C002079020008810200088302000899
:10001000850200088702000889020008000000002D
:100020000000000000000000000000008B0200083B
:100030008D020008000000008F020008CD4B000870
:10004000930200089302000893020008930200083C
:100050009302000893020008052D0008930200088F
:10006000930200089302000893020008F12C000894
:10007000930200089302000893020008930200080C
:1000800093020008930200084D080008930200083C
:1000900093020008930200089302000893020008EC
:1000A00093020008930200089302000893020008DC
:1000B00093020008894C0008000000009302000829
:1000C00093020008000000000000000093020008F6
:1000D00000000000494D0008930200089302000848
:1000E00093020008930200080000000000000000D6
:1000F0000000000000000000000000000000000000
:1001000000000000000000000000000000000000EF
:1001100000000000000000009302000893020008A5
:1001200000000000000000000000000000000000CF
:1001300000000000000000000000000000000000BF
:1001400093020008930200080000000093020008D8
:10015000A93D0008930200089302000893020008DA
:100160009302000893020008000000000000000055
:10017000000000000000000000000000000000007F
:10018000000000009302000800F002F800F065F89B
:100190000AA090E8000C82448344AAF10107DA45E2
:1001A00001D100F05AF8AFF2090EBAE80F0013F0CF
:1001B000010F18BFFB1A43F001031847C47B00006E
:1001C000E47B00000A444FF0000C10F8013B13F0F0
:1001D000070408BF10F8014B1D1108BF10F8015BA0
:1001E000641E05D010F8016B641E01F8016BF9D193
:1001F00013F0080F1EBF10F8014BAD1C0C1B09D1EA
:100200006D1E58BF01F801CBFAD505E014F8016B5B
:1002100001F8016B6D1EF9D59142D6D370470000ED
:100220000023002400250026103A28BF78C1FBD8FF
:10023000520728BF30C148BF0B6070471FB507F099
:10024000DCFC00F09FFA04000020002106F042FFD1
:10025000401C60601FBD10B510BD00F06DFA114666
:10026000FFF7ECFF06F040FB00F09EFA03B4FFF747
:10027000F2FF03BC00F0E2FA094880470948004752
:10028000FEE7FEE7FEE7FEE7FEE7FEE7FEE7FEE746
:10029000FEE7FEE704480549054A064B70470000A3
:1002A000DD4B00088901000880120020801C00201E
:1002B000801400208014002053EA020C00F06980B2
:1002C0002DE9F04B4FF00006002B1FBFB3FA83F56A
:1002D00003FA05F424FA05F65E4012BF1643B2FA9B
:1002E00082F502FA05F4C5F120051EBF22FA05FCCD
:1002F00044EA0C04203556EA044C4FEA144418BF73
:10030000641C4FF000084FF00009904271EB030CA1
:1003100039D3002919BFB1FA81F701FA07F6B0FA0B
:1003200080F700FA07F6C7F120071EBF20FA07FC86
:1003300046EA0C062037B6FBF4FCA7EB0507103F96
:1003400007F01F0BCBF120060CFA0BFB2CFA06F67C
:1003500044BFB3460026202FA4BF5E464FF0000BDB
:100360005BEA060C08BF4FF0010B19EB0B09ABFB66
:10037000027C48EB0608C01B06FB02CC0BFB03CC3F
:1003800071EB0C01C1E70B46024641464846BDE809
:10039000F08B13B54FF000004FF00001AFF3008079
:1003A000BDE81C407047B2F120030AD5C2F120031A
:1003B00001FA02F120FA03F300FA02F041EA030124
:1003C000704700FA03F14FF00000704770B5064621
:1003D00000F0A0F80468054630460A22002100F02B
:1003E0009DF82C6070BD40EA0103024630B59B07C2
:1003F00010D14FF0013400E008C208C91D1B9D4315
:1004000015EAC41FF8D013F0FF0102F8011B0DD04C
:100410001B0AF8E711F8013B002B02F8013B05D05D
:1004200011F8013B002B02F8013BF3D130BD032A48
:1004300040F2308010F0030C00F0158011F8013B01
:10044000BCF1020F624498BF11F801CB00F8013BE8
:1004500038BF11F8013BA2F1040298BF00F801CBAC
:1004600038BF00F8013B11F0030300F08F80083A19
:10047000C0F0088051F8043B083A51F804CBA0E8DA
:100480000810F5E7121D5CBF51F8043B40F8043B2F
:10049000AFF30080D20724BF11F8013B11F801CB64
:1004A00048BF11F8012B24BF00F8013B00F801CB35
:1004B00048BF00F8012B704710B5044610F0030F39
:1004C00008BF11F0030F40F015804FF0013E121FDE
:1004D000C0F20E8051F8043BA3EB0E0C2CEA030C87
:1004E0001CEACE1C08BF40F8043BF0D0A1F1040187
:1004F00002F10402521E08DB11F8013B002B00F848
:10050000013BF7D1114600F073F8204610BD70474B
:1005100070477047004870471C1200202DE9F047D3
:1005200091460F4680460446002614F8015B2DB123
:1005300000F084F80068405DC007F6D12B2D02D092
:100540002D2D18D0641E4A463946204600F07EF80C
:1005500027B13968A14201D1C7F800804FF00204E9
:1005600071050BD54042002803DDFFF7D3FF04607F
:10057000A007BDE8F08746F48066E4E70028F8DAD3
:10058000FFF7C8FF04606FF00040F2E710B5203AB3
:10059000C0F00B80B1E81850203AA0E81850B1E83C
:1005A0001850A0E81850BFF4F5AF5FEA027C24BFF2
:1005B000B1E81850A0E8185044BF18C918C0BDE8E9
:1005C00010405FEA827C24BF51F8043B40F8043BB2
:1005D00008BF7047D20728BF31F8023B48BF11F867
:1005E000012B28BF20F8023B48BF00F8012B7047C1
:1005F0004FF000020429C0F0128010F0030C00F04C
:100600007680CCF1040CBCF1020F18BF00F8012B6E
:10061000A8BF20F8022BA1EB0C0100F068B85FEA3C
:10062000C17C24BF00F8012B00F8012B48BF00F863
:10063000012B7047004870471C12002010B500F0D5
:10064000A1F8001D10BD00BF8D6A00002DE9F05F0C
:10065000824615468B4600270AF10104B946007808
:10066000302801D09DB113E014F8010B0127782840
:1006700003D0582801D045B10AE00DB1102D07D1A3
:10068000002714F8010B102502E0082500E00A25D8
:100690000026B0460EE005FB080005FB06F1012729
:1006A0001FFA80F801EB1046B6F5803F00D3B9463B
:1006B00014F8010B294600F069F80028EBDABBF1C9
:1006C000000F05D00FB1641E00E05446CBF8004087
:1006D000B9F1000F06D0FFF71DFF02210160C81E0F
:1006E000BDE8F09F48EA0640FAE74FF0000200B587
:1006F000134694469646203922BFA0E80C50A0E845
:100700000C50B1F12001BFF4F7AF090728BFA0E8F2
:100710000C5048BF0CC05DF804EB890028BF40F8BE
:10072000042B08BF704748BF20F8022B11F0804F00
:1007300018BF00F8012B70477546FFF77BFFAE46E8
:1007400005006946534620F00700854618B020B5DD
:10075000FFF7A0FDBDE820404FF000064FF0000776
:100760004FF000084FF0000B21F00701AC46ACE859
:10077000C009ACE8C009ACE8C009ACE8C0098D46C6
:1007800070470000004870473C1200203A2800D211
:10079000303820F02002412A01D3A2F137008842EC
:1007A00001D34FF0FF30704710B50446AFF300801F
:1007B0002046BDE81040FFF759BD00004FF0013C56
:1007C00050F8042B51F8043B9A4221D1A2EB0C03C0
:1007D000934313EACC1317D150F8042B51F8043B80
:1007E0009A4215D1A2EB0C03934313EACC130BD11D
:1007F00050F8042B51F8043B9A4209D1A2EB0C03A8
:10080000934313EACC13DBD04FF00000704700BFD6
:10081000D01A01BAB1FA81F101F0180122FA01F0FF
:10082000CB40C1F12001DBB2C0B2C01A2CFA01F3F7
:10083000D11A914311EAC311E6D17047014918203A
:10084000ABBEFEE7260002007047000010B54FF077
:10085000A040006800F0800040B180204FF0A0412F
:10086000086001200249087004F0F2FC10BD00008D
:100870009811002001480068704700005C020020C9
:1008800030B50246A74B1A6000201B680446401C86
:10089000A54D45F8243040F263750346401CA24C38
:1008A00044F823509F4B1B681F330446401C9E4D49
:1008B00045F824309B4B1B6815330446401C45F813
:1008C0002430984B1B6813330446401C45F82430F1
:1008D000944B1B685B1D0446401C45F8243040F2D5
:1008E00062750346401C904C44F823508D4B1B68A6
:1008F0005B1C0446401C8C4D45F82430894B1B681A
:100900009B1C0446401C45F82430864B1B68DB1CAE
:100910000446401C45F82430824B1B681B1D0446CE
:10092000401C45F824307F4B1B68DB1D0446401CEF
:1009300045F824307B4B1B689B1D0446401C45F842
:100940002430784B1C6817340346401C45F823407C
:10095000002107E0002301EB4104744D05F8343019
:100960004B1CD9B20D29F5DD714BDB6943F00073E7
:100970006F4CE36123465B6943F4802363616D4BF5
:100980001B6823F440336B4C236023461B6823F41D
:100990004023236023461B6843F420232360231D48
:1009A0001B6823F40073241D2360624B0C331B6807
:1009B00023F440335F4C0C34236023461B6843F41C
:1009C000003323605B4B5B6A43F09904594B5C62D4
:1009D000594B1B6843F00103574C236000BF564B33
:1009E0001B1D1B6803F00103002BF8D0534B5B6900
:1009F000062B25D2DFE803F003080D13191F504B17
:100A00004D4C1C3423601BE04E4B4B4C1C3423607C
:100A100016E04B4B1B3B484C1C34236010E0484B0A
:100A2000243B454C1C3423600AE0464B243B424C9B
:100A30001C34236004E0444B3F4C1C34236000BF53
:100A400000BF424B1B6843F00103404C2360231D51
:100A50001B6823F00103241D23603C4B0C331B68EF
:100A600043F00103394C0C342360384B14331B68BA
:100A700023F00103354C143423600023334C4034FD
:100A800023600024314B44331C60304B1C331B6803
:100A900043F001032D4C1C3423602C4B1B1D1B68A1
:100AA00023F00203294C241D2360284B0C331B68C0
:100AB00043F00203254C0C342360244B14331B6891
:100AC00023F00203214C1434236000241F4B4833CD
:100AD0001C601B1D1C601D4B1C331B6843F0020374
:100AE0001A4C1C342360194B1B6823F00103174C6C
:100AF0002360114B1B6843F010030F4C2360234607
:100B00001B6823F00103236023461B6823F00203C4
:100B1000236000BF084B1B1D1B6803F00103002B63
:100B2000F8D130BD5C020020C80E0020000F00206C
:100B30000010024000040048006400401000002043
:100B40002C001C002C00050001001E000066004067
:100B50002DE9F0410023DFF878C3DCF800C00CF089
:100B6000080CBCF1000F00D00123DFF864C30CF1C6
:100B7000040CDCF800C00CF0080CBCF1000F01D034
:100B800043F00203DFF848C3ACF1040CDCF800C00A
:100B90000CF0010CBCF1000F01D043F00403DFF8AE
:100BA00030C3ACF1040CDCF800C00CF4807CBCF168
:100BB000000F01D043F00803DFF814C3ACF1040CBC
:100BC000DCF800C00CF4803CBCF1000F01D043F015
:100BD0001003DFF8FCC2ACF1080CDCF800C00CF02C
:100BE000040CBCF1000F01D043F02003DFF8E0C299
:100BF000ACF1080CDCF800C00CF0080CBCF1000FE4
:100C000001D043F04003DFF8C8C2ACF1080CDCF8B7
:100C100000C00CF0040CBCF1000F7DD0DFF8B0C2B6
:100C20000CF10C0CDCF800703D0E3F023C0EDCF8C1
:100C300000C00CF0010CBCF1000F00D00122602DAF
:100C400001DB42F00202602C01DB42F00402802D45
:100C500001DB42F00802802C01DB42F01002DFF8D9
:100C600070C20CF10C0CDCF800C00CF0040CBCF1F0
:100C7000000F01D042F02002DFF854C2DCF800C0BF
:100C80000CF0100CBCF1000F01D042F04002DFF874
:100C900040C20CF1040CDCF800C00CF0100CBCF1EC
:100CA000000F01D042F08002DFF824C20CF10C0CDE
:100CB000DCF800C02CF0050CDFF8148208F10C08F9
:100CC000C8F800C0DFF808C2DCF800C02CF0100C37
:100CD000DFF8FC81C8F800C008F1040CDCF800C0A3
:100CE0002CF0100C08F10408C8F800C04FF6FF7C87
:100CF000DFF8E081C8F800C04FF0000CC8F804C06D
:100D0000C4468CF808308CF809208CF80A408CF81E
:100D10000B50DFF8BCC100E00CE0ACF1080CDCF8D3
:100D200000C00CF0040CDFF8A881A8F10808C8F88E
:100D300000C0CAE0DFF898C1DCF800C00CF0030C7A
:100D4000BCF1000F50D0DFF890C1DCF800C00CF00F
:100D5000020CBCF1000F2CD14FF0010CDFF87481B4
:100D6000C8F800C0DFF868C1ACF10C0CDCF8B801C1
:100D7000DCF8BC1188F808004FEA1028DFF854C1ED
:100D80008CF809804FEA10488CF80A804FEA106806
:100D90008CF80B808CF80C104FEA11288CF80D8021
:100DA0004FEA11488CF80E804FEA11688CF80F80DA
:100DB00005E04FF6FC7CDFF81C81C8F800C0DFF8C6
:100DC00018C1DCF80060C6F3475CDFF80881C8F89A
:100DD00004C0DFF8FCC0DCF800C04CF0200CDFF8E9
:100DE000F080C8F800C070E0DFF8E4C00CF1040C3B
:100DF000DCF800C00CF0030CBCF1000F58D0DFF899
:100E0000D0C0ACF10C0CDCF8C0C10CF0020CBCF191
:100E1000000F2CD14FF0010CDFF8B880C8F800C0EB
:100E2000DFF8ACC0ACF10C0CDCF8C801DCF8CC117C
:100E300088F808004FEA1028DFF898C08CF809807D
:100E40004FEA10488CF80A804FEA10688CF80B8043
:100E50008CF80C104FEA11288CF80D804FEA1148DD
:100E60008CF80E804FEA11688CF80F8005E04FF681
:100E7000FC7CDFF86080C8F800C0DFF854C0ACF13B
:100E80000C0CDCF8C061C6F3475CDFF84880C8F89A
:100E900004C0DFF83CC00CF1040CDCF800C04CF0DE
:100EA000200CDFF82C8008F10408C8F800C00CE022
:100EB0004FF6FF7CDFF81C80C8F800C04FF0010C33
:100EC000C8F804C0C4468CF80830BDE8F0810000C2
:100ED0000C64004050100020B065004070B5002048
:100EE00008E000EB4004BC4D15F83440012C00D163
:100EF00002E0401C0E28F4D300BF0E2800D170BDC4
:100F0000B64C54F8201000EB4004B34D05EBC4047C
:100F1000E47A250600EB4004AF4E06EBC404A47A45
:100F200045EA044500EB400406EBC404647A45EA54
:100F3000042400EB400506EBC5052D7A44EA0502C2
:100F400000EB4004354605EBC404E47B250600EBCA
:100F5000400406EBC404A47B45EA044500EB4004CE
:100F600006EBC404647B45EA042400EB400506EB71
:100F7000C5052D7B44EA0503994C24688C4217D1A2
:100F8000984C246804F08064002C10D0964C2260A9
:100F9000241D2360944C083C246844F00104924DC5
:100FA000083D2C60002400EB400506F8354011E1B7
:100FB0008B4C64688C4219D18A4C246804F000641C
:100FC000002CF4D0884C10342260241D2360864C01
:100FD0000834246844F00105834C0834256000245B
:100FE00000EB40057C4E06F83540F3E07C4CA468ED
:100FF0008C4219D17B4C246804F08054002CD6D04C
:10100000794C20342260241D2360774C18342468E6
:1010100044F00105744C18342560002400EB4005B1
:101020006D4E06F83540D5E06D4C24684FF6FF75DF
:10103000AC421ED100246C4D083D2C604C052C6048
:101040000825694C241F2560241D2260241D23606F
:10105000654C083C246844F00104634D083D2C6055
:101060005F4C2160002400EB40055B4E06F83540E4
:10107000B0E05B4C64684FF6FF75AC421DD10025B3
:10108000594C083425604D0525600825241D256030
:10109000241D2260241D2360534C0834246844F02E
:1010A0000105514C083425604D4C6160002400EB73
:1010B0004005494E06F835408CE0494CA4684FF68F
:1010C000FF75AC421DD10025474C183425604D05F5
:1010D00025600825241D2560241D2260241D236011
:1010E000414C1834246844F001053F4C1834256005
:1010F0003B4CA160002400EB4005374E06F835401C
:1011000068E0384C246804F08064F4B10024364D63
:10111000083D2C604C052C600825334C241F2560AD
:10112000241D2260241D23602F4C083C246844F0B9
:1011300001042D4D083D2C60294C2160002400EB5A
:101140004005254E06F8354044E0264C246804F05E
:101150000064ECB10025244C083425604D05256061
:101160000825241D2560241D2260241D23601E4C9B
:101170000834246844F001051B4C08342560184CE1
:101180006160002400EB4005134E06F8354021E075
:10119000144C246804F08054E4B10025124C183437
:1011A00025604D0525600825241D2560241D22602D
:1011B000241D23600C4C1834246844F001050A4CAB
:1011C00018342560064CA160002400EB4005024E57
:1011D00006F8354000BF92E6000F0020C80E002040
:1011E00060020020086400408865004010B52DEDC5
:1011F000028B0124F74890ED280AB4EE400AF1EE84
:1012000010FA05D09FEDF40A80ED280A002426E0AC
:10121000F04890ED280A10EE101A084606F07CFC03
:1012200041EC180B9FEDED0B53EC102B06F01AFA66
:1012300006D2B2EE080AE74880ED280A00240EE044
:10124000E44890ED280ADFEDE70AB4EEE00AF1EE9B
:1012500010FA04DD9FEDE30A80ED280A0024DD4842
:1012600090ED290AB4EE400AF1EE10FA05D09FED98
:10127000DE0A80ED290A00242EE0D64890ED290AE6
:1012800010EE101A084606F047FC41EC180B9FEDD3
:10129000D30B53EC102B06F0E5F906D2B2EE080A98
:1012A000CC4880ED290A002416E0CA4890ED290AAE
:1012B00010EE101A084606F02FFC41EC180B9FEDBB
:1012C000CB0B53EC102B06F007FB05D29FEDC50AA4
:1012D000C04880ED290A0024BE4890ED2A0AB4EEE9
:1012E000400AF1EE10FA05D09FEDC20A80ED2A0AFD
:1012F00000242EE0B74890ED2A0A10EE101A084696
:1013000006F00AFC41EC180B9FEDB40B53EC102BCC
:1013100006F0A8F906D2B2EE080AAE4880ED2A0A15
:10132000002416E0AB4890ED2A0A10EE101A084689
:1013300006F0F2FB41EC180B9FEDAF0B53EC102BBA
:1013400006F0CAFA05D29FEDAE0AA24880ED2A0A3D
:101350000024A04890ED2B0AB4EE400AF1EE10FAFA
:1013600005D09FEDA80A80ED2B0A00242EE09948B5
:1013700090ED2B0A10EE101A084606F0CDFB41EC5A
:10138000180B9FED960B53EC102B06F06BF906D261
:10139000B2EE080A8F4880ED2B0A002416E08D4833
:1013A00090ED2B0A10EE101A084606F0B5FB41EC42
:1013B000180B9FED910B53EC102B06F08DFA05D214
:1013C0009FED8F0A834880ED2B0A0024814890ED21
:1013D0002C0AB4EE400AF1EE10FA05D09FED7E0A19
:1013E00080ED2C0A00242EE07A4890ED2C0A10EEB5
:1013F000101A084606F090FB41EC180B9FED820B8B
:1014000053EC102B06F02EF906D29FED810A71489D
:1014100080ED2C0A002416E06E4890ED2C0A10EEA8
:10142000101A084606F078FB41EC180B9FED790B7B
:1014300053EC102B06F050FA05D29FED780A654860
:1014400080ED2C0A0024634890ED2D0AB4EE400A8A
:10145000F1EE10FA05D09FED6B0A80ED2D0A002405
:101460002EE05C4890ED2D0A10EE101A084606F0AA
:1014700053FB41EC180B9FED590B53EC102B06F06E
:10148000F1F806D2B2EE080A524880ED2D0A002487
:1014900016E0504890ED2D0A10EE101A084606F09E
:1014A0003BFB41EC180B9FED540B53EC102B06F05B
:1014B00013FA05D29FED520A464880ED2D0A00240A
:1014C000444890ED2E0AB4EE400AF1EE10FA05D031
:1014D0009FED4C0A80ED2E0A002424E03D4890ED5B
:1014E0002E0A10EE101A084606F016FB41EC180BF7
:1014F0009FED4B0B53EC102B06F0B4F806D29FED8A
:101500004A0A344880ED2E0A00240CE0314890ED60
:101510002E0AB5EEC00AF1EE10FA04DD9FED3C0A8A
:1015200080ED2E0A0024414890ED000AB4EE400AF6
:10153000F1EE10FA05D0B1EE040A80ED000A0024A5
:1015400026E03A48006806F0E7FA41EC180B9FEDF8
:10155000380B53EC102B06F085F806D29FED360AB7
:10156000324880ED000A002412E03048006806F09E
:10157000D3FA41EC180B9FED310B53EC102B06F016
:10158000ABF905D29FED2F0A284880ED000A002410
:101590002D4890ED000AB4EE400AF1EE10FA05D0A5
:1015A0009FED2A0A80ED000A002464E026480068C6
:1015B00006F0B2FA41EC180B9FED130B53EC102B15
:1015C00006F050F844D29FED120A1F4880ED000A41
:1015D000002450E0940000200000F04200000000D1
:1015E00000002840000096430000C04200000000B8
:1015F00000C07240CDCC5C42000000000000694099
:1016000000004843666666420000000000000000DB
:1016100000000000000000000018F54000C0A847CE
:1016200000000000000069C0000048C36C010020F9
:1016300000000000000049C0000048C20000000097
:10164000000049400000484270010020A4703D3E67
:101650000B48006806F060FA41EC180B9FED090B8F
:1016600053EC102B06F038F905D2B7EE000A044807
:1016700080ED000A00242046BDEC028B10BD000066
:1016800070010020000000000000F03F02480078D8
:1016900000F080007047000064010020004870479F
:1016A000100000208420704700487047500100203F
:1016B000142070470048704794000020BC207047F9
:1016C00001480078704700006401002010B51148FF
:1016D0000079114988608021104803F021FC0F49EE
:1016E000091F0860B8210E4803F01AFC0C49091FB5
:1016F0000860FFF77BFD30B10A48007840F08000B9
:101700000849087005E00748007820F08000054986
:10171000087010BD34020020500100201400002089
:10172000980000206401002010B502F093FA002018
:101730000149087010BD00007810002010B500238A
:101740001A461946184602F0D5FA002009490870D1
:10175000094981F86000002107488166C16652216D
:1017600080F86810452180F869100120024981F84D
:10177000600010BD78100020000F002000200A49F2
:1017800008700A4981F86000002108488166C16636
:10179000522180F86810452180F869100120034922
:1017A00081F860007047000078100020000F0020D2
:1017B000014800787047000078100020002001499F
:1017C00008707047781000202DE9F0414FF0FF3489
:1017D0000026DD48006800F00800DB49091D0968A3
:1017E00001F008010843D849091F096801F0010107
:1017F0000843D549091F096801F480710843D2499B
:10180000091F096801F480310843CF490839096884
:1018100001F004010843CC490839096801F00801C6
:101820000843002878D0FFF793F9C84800680128DA
:101830003FD103F029FFFFF71DF81730C34949686E
:10184000884237D1C148007A41280BD1BF48407A3D
:101850004C2807D1BD48807A4C2803D102F0CCFA3D
:10186000002411E0B948007A52280BD1B748407AD9
:10187000432807D1B548807A4F2803D102F070FC85
:10188000002401E04FF0FF340020B14981F8380115
:10189000002201F59C718A60CA60002C01DA4E2199
:1018A00000E05921AA4880F840110120A84981F898
:1018B000380145E1A548406840F26171884206D18F
:1018C000A248D0E90221104603F008FA38E19F4807
:1018D000406840F26271884207D19C48D0ED020A0C
:1018E000B0EE600A00F0ECFE2AE19848406840F251
:1018F0006471884211D19548C0689649C968884288
:10190000D7D1FEF7B7FF914989688842D1D08F4976
:101910008868FEF7B5FF13E113E1FEF7ABFF163061
:101920008A494968884200D10AE1FEF7A3FF1230D4
:1019300086494968884278D18448007A8649487047
:101940008248417A84488170407852286FD1824819
:101950008078522817D006DC46283DD04C2807D086
:101960004F2861D11AE0532823D054285CD145E098
:10197000FFF798FE0646FFF791FE0746314600F056
:10198000D9FA044650E0FFF799FE0646FFF792FEAB
:101990000746314600F0CEFA044645E0FFF788FEE0
:1019A0000646FFF781FE0746314600F0C3FA0446BB
:1019B0003AE06648C0680D2802D26448C06800E07A
:1019C0000D204FF4005101EB00354E1031462846F2
:1019D00000F09CFA044627E05C48C06810B95B48F8
:1019E000C06800E001204FF4803101EB00350E119A
:1019F0003146284600F08AFA044615E05348C0688C
:101A0000B0F5F37F02D85148C06801E040F2E7101A
:101A10004FF4C03101EB00354FF480563146284673
:101A200000F074FA044600BF55E079E0FFE74A4849
:101A3000407857283FD148488078522815D006DC96
:101A4000452833D046281CD04C2833D104E05328F5
:101A500015D054282ED127E0FFF724FE0646314644
:101A6000002000F023FA044624E0FFF727FE064694
:101A700031464FF4805000F019FA04461AE000266F
:101A800018E001F0BBFE064601F0AAFE334A3146DB
:101A90004FF4803002F0E8F80446002C02DA2046C9
:101AA00001F0F8FD002605E0002603E00024FFF722
:101AB0003BFE00BF0FE02848407849280BD126485C
:101AC0008078532802D0542804D101E0002401E09A
:101AD000002400BF00BF00201D4981F860001B48A2
:101AE000D0E902211A48C0E91A21601C28B94E2108
:101AF000174880F86A10C6660DE0A01C30B9502166
:101B0000134880F86A100021C16604E0592110488A
:101B100080F86A10C66601200D4981F860000FE068
:101B2000FEF7A8FE143009494968884208D10A48DE
:101B30000078042804D108210448083002F008F98C
:101B400000BFBDE8F08100000C6400405010002090
:101B5000000F0020100000207810002095360008AB
:101B600030B50024054D85F830402C46A063E16374
:101B700022646364012485F8304030BD000F0020EA
:101B800010B50020064981F8780001F031FE044AC2
:101B90007832C2E902010120014981F8780010BDC4
:101BA000000F002010B50020134908701348017A77
:101BB0001148C1721148417A0F4881720F48817AE9
:101BC0000D4841720D48C07A0B4908720B48C16834
:101BD0000948C16001200849087000200876FEF716
:101BE00049FE054908620548C16803484162012071
:101BF0000149087610BD0000000F002010000020F1
:101C00000020094981F8D800084890ED2D0A0846BF
:101C100080ED380A054890ED380A084680ED390A0B
:101C2000012081F8D8007047000F0020BC0600207A
:101C30000020094981F8C000084890ED050A0846CF
:101C400080ED320A054890ED0B0A084680ED330A14
:101C5000012081F8C0007047000F0020BC06002062
:101C600010B50020084981F8900000F0ADFB06484F
:101C700080ED260A9FED050A80ED270A0120024922
:101C800081F8900010BD0000000F0020000000004F
:101C900070B55748007801283BD1564890F8480065
:101CA000002836D1534890F86000002831D15048C0
:101CB0008068062802D24E48806800E0062004466C
:101CC0004B48C1684B480165002141654165484862
:101CD0000023224641684748523002F00BF8061EA6
:101CE00010D10120434981F8480041488068001B19
:101CF0003F49886008464068204448600846C068FC
:101D0000401CC8603A48806800286FD1FFF716FD74
:101D10006CE03748007802283DD1364890F84800FA
:101D2000002838D1334890F8600098BB304880686C
:101D3000062802D22E48806800E0062004462C487F
:101D4000C1682C480165002141654165002510E00E
:101D500027484068027827485030A91C425424483C
:101D60004068401C2249486008468068401E8860E0
:101D70006D1CA542ECD301201E4981F848001C4887
:101D8000C068401C1A49C8600846806870BBFFF7ED
:101D9000F5FC2BE0FFE716480078032826D115480C
:101DA00090F8600010BB0020124981F860001048D4
:101DB00081681048C1660E4A9168506801F0B4FF0E
:101DC000A0B900210B488166572180F868100848A7
:101DD0008178084880F86910592180F86A1001203C
:101DE000044981F8600004200149087070BD0000BA
:101DF00078100020000F00200020094981F8F00031
:101E0000084890ED2A0A084680ED3E0A054890ED04
:101E1000300A084680ED3F0A012081F8F000704743
:101E2000000F0020BC0600200020094981F8A8000E
:101E3000084890ED110A084680ED2C0A054890EDFF
:101E4000170A084680ED2D0A012081F8A800704786
:101E5000000F0020BC06002010B50020074981F8C3
:101E6000200102F07BFE02F06BFE054AC2E902018E
:101E70000120024981F8200110BD0000000F002060
:101E80002010002010B50020064981F8080102F05A
:101E900005FF054AC2E902010120024981F8080153
:101EA00010BD0000000F00200810002070B504468F
:101EB0000D460423032202210120FFF751FE1148A1
:101EC000007860B11048006820B901200E49086010
:101ED000801E70BD00200C49086001F0F7FE002252
:101EE0002946204601F0C0FE002802DA4FF0FF30FC
:101EF000EFE70320034908700846446085606FF0EF
:101F00000100E6E7781000206C0200200246084835
:101F1000007810B14FF0FF3070470120044B18706B
:101F20001846426081600020D86000BFF4E70000DE
:101F30007810002002460848007810B14FF0FF30BA
:101F400070470220044B18701846426081600020E0
:101F5000D86000BFF4E70000781000200146124A64
:101F6000127810114840104A127812010F4B1B785A
:101F700042EA23120C4B1A700C4A12781207120E06
:101F80000A4B1A700A4A12F81020074B1B785A4065
:101F9000054B1A70074A12F81020044B1B785A4060
:101FA000024B1A7070470000B4010020B5010020F8
:101FB000740100209401002010B52DED0A8B02F071
:101FC0001BF800286BD0B648806B30B1B44890ED58
:101FD0000D8A0020B249886302E0B24890ED2A8A57
:101FE000B14890ED000A38EE400AB048D0ED000A42
:101FF00080EE201ABDEEC10A10EE104A002C00DA65
:102000000024B4F5C87F01DB40F28F14204602F0B3
:1020100093FFA349C86118EE100A05F07DFD41EC5D
:102020001C0B9FEDA30B53EC102B05F04FF941EC6B
:102030001B0B9FEDA10B53EC102B05F04FFB41EC5C
:102040001A0B05F09BFA964948629748D0ED000AB2
:1020500000EE104AB8EEC00A944890ED001A40EE27
:10206000010A88EE209A964890ED000A9548D0ED36
:10207000000A19EE200A10EE101A084605F04CFD71
:1020800041EC1B0B9FED8C0B53EC102B05F026FB4A
:1020900041EC1A0B05F072FA81490862FCE08A48AB
:1020A00090ED300A10EE101A084605F035FD41ECAF
:1020B0001B0B9FED860B53EC102B05F043FC41EC02
:1020C0001A0B05F01DF808EE900A764890ED2A0AE2
:1020D0007348D0ED050AB0EE408A00EEA88A714838
:1020E00090ED2B0A6E48D0ED050AF0EE409A40EED6
:1020F000A89A6D4890ED000A38EE400A6B48D0ED82
:10210000000A80EE201ABDEEC10A10EE104A002C23
:1021100000DA0024B4F5C87F01DB40F28F142046BA
:1021200002F00AFF5E49C86118EE100A05F0F4FCDF
:1021300041EC1C0B9FED5E0B53EC102B05F0C6F829
:1021400041EC1B0B9FED5C0B53EC102B05F0C6FA1A
:1021500041EC1A0B05F012FA514948625248D0ED91
:10216000000A00EE104AB8EEC00A504890ED001A7E
:1021700040EE010A88EE200AB0EE409A504890EDF9
:10218000000A5048D0ED000A19EE200A10EE101A8D
:10219000084605F0C1FC41EC1B0B9FED470B53ECCF
:1021A000102B05F09BFA41EC1A0B05F0E7F93C49BE
:1021B00008623D48D0ED000A00EE104AB8EEC00AB1
:1021C0003A4890ED001A40EE010A89EEA00AB0EEFE
:1021D000409A3B4890ED000A3A48D0ED000A19EECB
:1021E000200A10EE101A084605F096FC41EC1B0B75
:1021F0009FED310B53EC102B05F070FA41EC1A0BEC
:1022000005F0BCF92649886219EE900A05F084FCB5
:1022100041EC1C0B9FED260B53EC102B05F056F8F0
:1022200041EC1B0B9FED240B53EC102B05F056FAE1
:1022300041EC1A0B05F0A2F91949C862194890ED52
:102240002D0A0846D0ED050A00EEA80A10EE101A75
:10225000084605F061FC41EC1C0B9FED150B53EC9F
:10226000102B05F033F841EC1B0B9FED130B53ECD7
:10227000102B05F033FA41EC1A0B05F07FF90849F1
:102280000863084690F83D0018B10846C0ED0D9A65
:1022900002E0034880ED0D8ABDEC0A8B10BD000002
:1022A000881000209400002070020020740200209A
:1022B0000000000000E06F40000000000000B0409F
:1022C000780200207C020020BC06002000000000F4
:1022D0000000394010B501F08FFE18B100203349DD
:1022E00081F83D00314890F83D0010B12F48C46A94
:1022F00001E02E48446A2E48C068001B03D52C48D4
:10230000C068201A02E02A48C068001B162820DA9C
:102310000120264981F83C0001F06EFE90BB234865
:1023200090F83D0088B12148006C64301F49086472
:102330000846006C8969884203D300201B4981F854
:102340003D0000201949486422E000201749086434
:102350001EE01748C068A04204DA0020134981F843
:102360003C0003E00220114981F83C000F4890F83E
:102370003D0020B10D48406CB0F5FA6F03D300204A
:102380000A49086404E00948406C6430074948641D
:1023900001F032FE48B90648C0680449096B88421A
:1023A00003DC0120014981F83D0010BD88100020A8
:1023B000BC06002008B1012100E00021014A51655E
:1023C0007047000088100020014890ED0D0A70470A
:1023D0008810002010B501F00FFE08B1012000E0C8
:1023E00000201449896DC901134A1268012A00D1DD
:1023F00000E0002241EA82110E4AD26D41EA421108
:102400000C4A126D0AB9012200E0002241EA0211D1
:10241000084A92F83C2041EA8201064A92F83D209F
:102420000AB1012200E0002241EA42010843C0B2A1
:1024300010BD0000881000203002002010B52DEDE6
:10244000068B02F09FFD002067490860674908601D
:1024500008644864664890ED290AD0ED280A80EEA9
:10246000201A11EE104A204605F056FB41EC190BDC
:102470009FED600B53EC102B05F030F941EC180B7D
:1024800005F07CF859494860594890ED2A0A10EE49
:10249000101A084605F040FB41EC1A0B9FED570B54
:1024A00053EC102B04F012FF41EC190B9FED510B74
:1024B00053EC102B05F012F941EC180B05F05EF807
:1024C0004A4988604A4890ED2A0A10EE101A0846D8
:1024D00005F022FB41EC1A0B9FED480B53EC102B3F
:1024E00004F0F4FE41EC190B9FED420B53EC102B62
:1024F00005F0F4F841EC180B05F040F83B49C860D2
:10250000002008613A4890ED2E0A10EE101A084695
:1025100005F002FB41EC190B9FED3A0B53EC102B2D
:1025200004F0D4FE41EC180B04F0EAFD2F49486199
:102530002F4890ED2C0A10EE101A084605F0ECFA20
:1025400041EC190B9FED2F0B53EC102B05F0C6F847
:1025500041EC180B05F042F824498861002088639B
:10256000FFF72AFD40F2B7202849086040F27120A9
:1025700027490860002027490880274908701B491F
:1025800081F83C00012081F83D004FF6FF7088641F
:102590000020C8642148006820B100200865401E62
:1025A000486504E0012011490865801E4865002047
:1025B0000E498865C86508660846006D28B9084652
:1025C000806D10B90846C06D08B1012000E0002000
:1025D000064948660846406E1149086001201149C5
:1025E0000860BDEC068B10BD98020020881000200A
:1025F00094000020000000000000B0400000000037
:1026000000C072400000000000408F40880200209F
:102610008C02002090020020920200203002002054
:102620009C020020A00200209FED0A0A0A4880EDCB
:10263000000A9FED0A0A0A4880ED000A9FED090A88
:10264000094880ED000A9FED090A094880ED000A5B
:1026500070470000A470C74170020020F6289C3F1C
:10266000740200209F3C3C407802002096B2484013
:102670007C0200209FED0A0A0A4880ED000A9FEDC7
:102680000A0A0A4880ED000A9FED090A094880ED10
:10269000000A9FED090A094880ED000A7047000012
:1026A000652AEB41700200209A99993F740200203C
:1026B0009F3C3C407802002096B248407C020020BB
:1026C00010B52DED028BB0EE408A01F095FC28B1DB
:1026D000044880ED0D8A012002498863BDEC028B1D
:1026E00010BD00008810002070B52DED088B00246F
:1026F00001F078FC98B10120FE49C8650020086609
:1027000001200865801E4865FB48006828B100204C
:10271000F94908600120F949086001240FE0F548F3
:10272000C06D60B1F348006E642803D90020F14900
:10273000C86504E0EF48006E401CEE49086602F0F0
:1027400023F800F0010000B10124ED48006844F6D0
:102750004B41884207D2EA480068401CE8490860BB
:10276000BDEC088B70BDE748006800286DD034B11F
:102770000020E049C8644FF6FF7088648CE0DD48B3
:10278000066D456D01F042FC58B1DA48806C4FF699
:10279000FF71884208D2D748806C401CD5498864B4
:1027A00002E00020D3498864D248C06CB0F5747F41
:1027B00008D2D048C06C401CCE49C8644FF6FF70A8
:1027C00088643DE0681C90B10DB9012000E0002054
:1027D000C84908650846006D012801D0012000E0C5
:1027E0000020C54908600120C449086019E0C148BB
:1027F000806C40F64271884213D1BE48006D08B922
:10280000012000E00020BB4908650846006D012852
:1028100001D0012000E00020B74908600120B7493D
:102820000860B448006DB04201D1681C40B100207E
:10283000B049C8644FF6FF7088644FF0FF304865B8
:10284000AC48006D00B1012426E001F0DFFBA9498E
:1028500088650CBB0846406D401C50B10846406D71
:10286000A54908604FF0FF30A24948650120A349FF
:102870000860A048806D18B101209E49086507E0F6
:102880009D48006808B9012000E0002099490865CA
:102890009848006D00B101249CB10120954948661B
:1028A0009948006820B99948C06B9849C1F8AC00B4
:1028B00001F0A2FA012001F0AFFD01209449086067
:1028C0004EE78C48406E10B100208A490860002015
:1028D000884948668D48D0F8C800B0F5106F0EDD05
:1028E0008A48D0F8C800B0F5206F08DA4FF40B70B2
:1028F000884908604FF4FA708749086016E08348F9
:10290000D0F8C800B0F5206F08DD4FF4F3708149AE
:1029100008604FF4DB708049086007E040F2B720A0
:102920007C49086040F271207B4908607748406A22
:1029300078490968884241DD01207849087001F032
:102940006BFD77480088401C754908800846008860
:10295000C82832DD7348006800282BDD6B49496ABE
:102960006C4A1268881A04F066FE41EC1B0B9FED5E
:102970006E0B53EC102B04F0B1FE41EC1A0B9FEDE3
:102980006C0B53EC102B04F0A1FC41EC190B9FEDE8
:102990006A0B53EC102B04F0A1FE41EC180B04F071
:1029A000EDFD6049096808445E4908600846006812
:1029B00001F080FE00205A49088091E057480078D5
:1029C000012825D156480088401C5549088001201F
:1029D00001F022FD52480088C8280BDD51480068EC
:1029E000401E504908600846006801F063FE002060
:1029F0004B4908804548406A4749096888426FDA70
:102A000000204649087044F64A403A49086067E0A9
:102A10003848006828B901F0EFF9002001F0FCFC0B
:102A20005EE03448006868B132480068C32809D2C3
:102A3000364A916BD2F8AC0001F0BEFB3349C1F8C5
:102A4000AC004DE02B480068C32814D1294A5168D6
:102A50002E4AD2F8AC0001F045FB394908602B48FA
:102A6000D0F8AC002F4908600846006801F022FE4B
:102A700001F0C7F934E01F480068C32814D91D4885
:102A80000068B0F5747F0FD2264800682C490968A9
:102A9000884225DD23480068401E22490860084618
:102AA000006801F007FE1BE012480068B0F5747F73
:102AB00007D12348006801F0FDFD012001F0ACFCC6
:102AC0000EE00C480068B0F5747F09D90F48D0F8C3
:102AD000AC1041F2991001F005FB054601F00AFE29
:102AE00004480068401C034908600846006844F632
:102AF0004B4127E0881000203002002054020020C3
:102B00009402002068010020AC020020BC060020D6
:102B10009C020020880200208C02002092020020EB
:102B200090020020800200207B14AE47E17A843FAF
:102B30000000000000C07240000000000000B04033
:102B400084020020884202D100200249086000BFB0
:102B500006E60000881000202DE9F04304460D46EB
:102B600091461E46FF203549087035490870022DF0
:102B700060DD4FF00108002711E0E15D0811FFF76B
:102B8000EDF9E15D01F00F00FFF7E8F9E05DB0421B
:102B900001D1012000E0002000EA08087F1CA81EE7
:102BA000B842EADC26480078B04204D124480078D4
:102BB000401C2349087021480078B04204D11F48C6
:102BC0000078401C1D490870B8F1000F0AD0681E3B
:102BD000205CB04206D1A81E205CB04202D1002089
:102BE000BDE8F083B9F1000F1AD0681E205CB04236
:102BF00005D1A81E205CB04201D10120F0E7681E7B
:102C0000205C0F490978884207D1A81E205C0B4937
:102C10000978884201D10220E2E74FF0FF30DFE778
:102C200007480178681E215404480178A81E2154E1
:102C30000120D5E76FF00100D2E70000B4010020C9
:102C4000B501002010B502F0E5FB02F017FB0621EC
:102C5000184802F011FC00214FF4486003F006FF11
:102C600002F02AFC00201449C87001204871134961
:102C7000086006200221002804DB0A07130E104A10
:102C8000135406E00A07140E0E4A00F00F031B1F30
:102C9000D45400BF0620002809DB00F01F020121E8
:102CA00091404209920002F1E022C2F8001100BFF7
:102CB000012010BDA4110020981100200004014043
:102CC00000E400E018ED00E0014600BF0029FDD15E
:102CD00001207047014619B10120044A107102E039
:102CE0000120024A50710020704700009811002016
:102CF00001200249486002494870704700000240C4
:102D0000981100204FF40030044908600120044964
:102D1000086002200149086070470000180400485C
:102D2000140401402DE9FE4FFE48007B48B1FE48E7
:102D3000C168FE48C1600122FA490C31083000F038
:102D4000CFFBF848007F48B1F748C168F7484162B7
:102D50000222F4491C31203000F0C2FBF14890F807
:102D60002C0048B1F048C168F048C1630322ED4926
:102D70002C31383000F0DAFAEA4890F8400048B1D7
:102D8000E948C168E94841650422E64940315030CC
:102D900000F0A6FBE34890F8500048B1E248416AD1
:102DA000E248C1660522DF495031683000F098FBE7
:102DB000DC4890F8600048B10021DC48C0F884107D
:102DC0000622D8496031803000F08AFBD54890F85F
:102DD000700058B1D448D0F8B810D448C0F89C104E
:102DE0000722D0497031983000F07AFBCD4890F836
:102DF0008000002849D0CD4890F8B00000B900BF4D
:102E0000CA4890F8B000012808D100BF0020C74987
:102E100081F8B0000021082000F0BAFEC34890F805
:102E2000B000012809D1C248D0E900104FF48073E6
:102E30001943BF4AC2E9001006E0BD4903C96FF457
:102E400080721040BA4A03C2B84890F8B000012816
:102E500010D1B44890F8800002280BD1B448083053
:102E6000D0E900104FF480721143B14A0832C2E930
:102E700000100AE0AE480830D0E900106FF480720C
:102E80001140AB4A0832C2E90010A64890F8810010
:102E9000002845D0A54890F8B10000B900BFA3486C
:102EA00090F8B100012808D100BF00209F4981F8A7
:102EB000B1000021092000F06BFE9C4890F8B100A1
:102EC000012807D19A4903C94FF400731843984A5F
:102ED00003C208E09648D0E900106FF40072114078
:102EE000934AC2E90010914890F8B10001280ED130
:102EF0008C4890F88100022809D18D49083103C916
:102F00004FF4007318438A4A083203C208E0884924
:102F1000083103C96FF400721040854A083203C2B9
:102F2000804890F88200002856D0804890F8B2007F
:102F300060B97D48D0F8C40040B101207B4981F8D8
:102F4000B20001210A2000F023FE10E0774890F83B
:102F5000B20001280BD17448D0F8C40038B9002061
:102F6000724981F8B20000210A2000F011FE6F487A
:102F700090F8B200012809D16D48D0E900104FF453
:102F8000806319436A4AC2E9001008E06848D0E942
:102F900000106FF480631940654AC2E9001063486D
:102FA00090F8B20001280ED15E4890F88200022805
:102FB00009D15F49083103C94FF4806210435C4A6C
:102FC000083203C208E05A49083103C96FF480622D
:102FD0001040574A083203C2002495E0042C04DC58
:102FE00050488330005D002874D0204601F0E8FB93
:102FF00070B14E48B330005D28B904F10B01C8B27E
:10300000012100F0C5FD01214848B33001550EE013
:103010004648B330005D012805D104F10B01C8B268
:10302000002100F0B5FD00214048B33001553F4874
:10303000B330005D012814D13D48A03804F10B02E3
:1030400001250026D0E9289A28463146FDF7ABF93C
:1030500049EA00094AEA010A3548A038C0E9289A35
:1030600016E03348A03804F10B0201274FF00008A6
:10307000D0E9289A38464146FDF795F90A46C143FA
:1030800009EA01092AEA020A2948A038C0E9289A6F
:10309000042C20DC2548B330005D01281BD12148D9
:1030A0008330005D022816D12148A03804F10B02BC
:1030B0004FF0010BD0E92A9A002000905846009961
:1030C000FDF771F949EA00094AEA010A1848A038EF
:1030D000C0E92A9A17E01648A03804F10B02012132
:1030E000D0E92A9A0020CDE9010108460199FDF7AF
:1030F0005AF90A46C14309EA01092AEA020A0C48B8
:10310000A038C0E92A9A641C072CFFF667AF05486F
:1031100090F8880088B3054890F8BA00012810D1CB
:10312000034907E094000020BC060020F8040020BA
:10313000D804002003C94FF480221043404A03C240
:1031400006E03F4903C96FF4802210403C4A03C2A5
:103150003C4890F8BA00012810D13B4890F888000C
:1031600002280BD136480830D0E900104FF48022F5
:103170001143334A0832C2E900100AE030480830EF
:10318000D0E900106FF4802319402D4A0832C2E9BB
:1031900000102C4890F8D80058B9FEF777FA40B9DB
:1031A0000120284981F8D8000121142000F0F0FC0A
:1031B0000FE0244890F8D80001280AD1FEF766FAFB
:1031C00038B100201F4981F8D8000021142000F0F8
:1031D000DFFC1C4890F8D800012809D11848D0E934
:1031E00000104FF480121143154AC2E9001006E0A6
:1031F000134903C96FF480121040114A03C21148E9
:1032000090F8D80001280ED10F4890F881000228CC
:1032100009D10B49083103C94FF480131843084AF8
:10322000083203C20AE006480830D0E900106FF403
:1032300080121140024A0832C2E90010BDE8FE8F38
:10324000D8040020F8040020940000207CB5FFF78B
:1032500069FD3548D0F8B40018B13348D0F8B8004B
:1032600000B17CBD3048D0F894002F49D1F89810B7
:10327000401AB0F5805F04D300F0B0FC002800DAFB
:10328000EFE700244CE0C4EBC400274908584FF690
:10329000FF71884212D1C4EBC40023490844D0F81E
:1032A00002004FF6FF71884208D1C4EBC4001E49EA
:1032B000084440684FF6FF7188422FD01A49D1F870
:1032C0009400082100F030FD002826DB8DF8004036
:1032D000002508E0C4EBC40028441349095C681CBD
:1032E0000DF800106D1C072DF4D30821684600F07E
:1032F0002FFD002811DB002506E0FF20C4EBC401F0
:103300002944094A50546D1C072DF6D30648D0F8BD
:10331000940008300449C1F89400A2E7601CC4B2CC
:10332000142CB0DD00BF9CE7380400202DE9F04FDD
:1033300085B004468846174601F0B0FC05460E46A7
:1033400000200090207801280ED1D4E90430D8F86C
:103350001010591840F10000691A76EB000003D2F2
:10336000002005B0BDE8F08FD4E90201884201DBFE
:10337000012000E000208146D4E90101884202DBFF
:10338000B9F1000F06D1D4E90101884222DCB9F17C
:10339000000F1FD1207810B12078022804D103201B
:1033A0002070C4E9045615E02078032812D1D4E92E
:1033B0000431D8F80C001A1841F10000A91A76EB74
:1033C000000007D3012020700121384600F0E0FB07
:1033D00001200090E1686068884202DCB9F1000FCA
:1033E00006D1E1686068884223DBB9F1000F20D183
:1033F0002078012802D02078032804D102202070F0
:10340000C4E9045615E02078022812D1D4E9043129
:10341000D8F80C001A1841F10000A91A76EB000048
:1034200007D3002020700021384600F0B1FB0120B6
:1034300000902078012802D0207802280DD127485A
:10344000D0E9281C012000FA07F211434CEAE2708F
:10345000224AA032C2E900100BE02049A03103C982
:103460000122BA40D243104001EAE2711B4AA03265
:1034700003C22078012802D02078022817D198F8BA
:103480000000022813D115483A460121D0E92AABA1
:103490000020CDE9010108460199FCF784FF4AEAC2
:1034A000000A4BEA010B0D48C0E92AAB14E00B48B7
:1034B0003A460121D0E92AAB0020CDE903010846B4
:1034C0000399FCF770FF0A46C1430AEA010A2BEA96
:1034D000020B0248C0E92AAB009842E738040020FA
:1034E0002DE9F04F89B004468846174601F0D6FB17
:1034F00005460E4600200090D4E90201884201DB17
:10350000012000E000208146D4E90101884202DB6D
:10351000B9F1000F06D1D4E90101884222DCB9F1EA
:10352000000F1FD1207810B12078022804D1032089
:103530002070C4E9045615E02078032812D1D4E99C
:103540000421D8F80C00121841F10000A91A76EBFA
:10355000000007D3012020700121384600F018FB3D
:1035600001200090E1686068884202DCB9F1000F38
:1035700006D1E1686068884223DBB9F1000F20D1F1
:103580002078012802D02078032804D1022020705E
:10359000C4E9045615E02078022812D1D4E9043099
:1035A000D8F80C10591840F10000691A76EB0000A9
:1035B00007D3002020700021384600F0E9FA0120EE
:1035C00000902078012802D02078022813D13048BA
:1035D0003A460121D0E928AB0020CDE90101084697
:1035E0000199FCF7E0FE4AEA000A4BEA010B284881
:1035F000C0E928AB14E026483A460121D0E928ABBF
:103600000020CDE9030108460399FCF7CCFE0A46E9
:10361000C1430AEA010A2BEA020B1D48C0E928ABA4
:103620002078012802D02078022817D198F80000CD
:10363000022813D116483A460121D0E92AAB0020CE
:10364000CDE9050108460599FCF7ADFE4AEA000AF6
:103650004BEA010B0E48C0E92AAB14E00C483A468D
:103660000121D0E92AAB0020CDE9070108460799DE
:10367000FCF799FE0A46C1430AEA010A2BEA020B4B
:103680000348C0E92AAB009809B0BDE8F08F0000FC
:103690003804002070B5054600204F49C1F8B80035
:1036A000002D7DDBC1F89C004FF48030C1F89800FC
:1036B0000846D0F89800C1F89400484800780128DE
:1036C00003D10121002000F063FA4448007A012868
:1036D00003D10121084600F05BFA404890F8200031
:1036E000012803D10121022000F052FA3B4890F852
:1036F0003800012803D10121032000F049FA37489E
:1037000090F85000012803D10121042000F040FA74
:10371000324890F86800012803D10121052000F00B
:1037200037FA2E4890F88000012803D101210620A5
:1037300000F02EFA294890F89800012803D10121C1
:10374000072000F025FA254890F8B000012803D1A1
:103750000121082000F01CFA204890F8B10001284F
:1037600003D10121092000F013FA1C4890F8B2009F
:10377000012803D101210A2000F00AFA00240BE0FD
:103780001648B330005D012805D104F10B01C8B221
:10379000012100F0FDF9641C072CF1DB0F4800E06B
:1037A00019E090F8BA00012803D10121122000F09D
:1037B000EFF90A4890F8C000012803D10121132035
:1037C00000F0E6F9054890F8D800012803D101215E
:1037D000142000F0DDF970BD38040020F80400204A
:1037E00001200249C1F8B8007047000038040020E9
:1037F000014903C970470000D80400204FF400506D
:1038000070470000074890F8B000064991F8B410DE
:1038100040EA4100034991F8B81040EA8100C0B283
:1038200070470000380400202DE9F0474FF00009F0
:1038300000206E49C1F8B000C1F8B400C1F8B8006A
:1038400000F0DAF800206A490870087281F8200058
:1038500081F8380081F8500081F8680081F8800014
:1038600081F8980081F8B00081F8B10081F8B200C9
:10387000002404E000215E48B3300155641C072C8D
:10388000F8D300205A4981F8BA0081F8C00081F8C5
:10389000D800564AA03210605060002108321160F2
:1038A0005160002252498A61CA610021504A116365
:1038B00051639164D164116651669167D16780321A
:1038C0001161516118321061506100224848C030C6
:1038D00002614261002403E0FF2044490855641C52
:1038E000932CF9D34FF480304049C1F8940020E084
:1038F0003E49D1F8940000F001FA4FF6FF7188427A
:1039000010D13A48D0F894003A4908403749C1F8F4
:1039100098000846D0F89800A0F58030000BC1F858
:103920009C000FE03148D0F8940008302F49C1F8CE
:103930009400FFF763FF00F580302C49D1F8941014
:103940008842D5D800BFFFF759FF00F580302749DE
:10395000D1F89410884243D14FF0FF352E46002015
:103960002249C1F89C001DE02049D1F89C10491C57
:103970004FF4803202EB0131A1F1080000F0C8F9E8
:1039800007468846781B78EB060104D23D4646463A
:103990001648D0F89C901548D0F89C00401C13495C
:1039A000C1F89C001148D0F89C000228DCD30F48D5
:1039B000C0F89C90D0F89C004FF4803101EB0030AF
:1039C0000A49C1F898000846D0F89800C1F8940058
:1039D000D1F8940000F06AF9002801DABDE8F08718
:1039E00001200249C1F8B40000BFF7E73804002005
:1039F000F804002000F0FF0010B52DED068B5C48A8
:103A000090ED090A10EE101A084604F085F841EC12
:103A10001A0B9FED580B53EC102B03F057FC41ECA5
:103A2000190B9FED560B53EC102B03F057FE41EC96
:103A3000180B03F0A3FD5349C8624D4890ED0C0AE2
:103A400010EE101A084604F067F841EC1A0B9FEDCF
:103A5000490B53EC102B03F039FC41EC190B9FED93
:103A6000470B53EC102B03F039FE41EC180B03F01D
:103A700085FD444908643E4890ED0D0A10EE101A89
:103A8000084604F049F841EC1A0B9FED3A0B53EC51
:103A9000102B03F01BFC41EC190B9FED380B53EC82
:103AA000102B03F01BFE41EC180B03F067FD3549AA
:103AB00048642F4890ED110A10EE101A084604F0E1
:103AC0002BF841EC1A0B9FED2B0B53EC102B03F052
:103AD000FDFB41EC190B9FED290B53EC102B03F070
:103AE000FDFD41EC180B03F049FD2649886520488F
:103AF00090ED120A10EE101A084604F00DF841EC91
:103B00001A0B9FED1C0B53EC102B03F0DFFB41EC69
:103B1000190B9FED1A0B53EC102B03F0DFFD41EC5A
:103B2000180B03F02BFD1749C865114890ED1A0AD0
:103B300010EE101A084603F0EFFF41EC1A0B9FED50
:103B4000120B53EC102B03F0C1FB41EC190B9FED52
:103B50000B0B53EC102B03F0C1FD41EC180B03F0E1
:103B60000DFD0849C1F88C00BDEC068B10BD0000AE
:103B7000940000200000000000E06F400000000002
:103B80000000B040F80400200000000000907040E9
:103B90007CB505460E461048D0F8B000D0B101F013
:103BA0007DF847F6FF721140CDE900012EB1531C9C
:103BB000DDE900101843CDE90010002407E01DF8EE
:103BC0000400C5EBC5012144034A5054641C072C72
:103BD000F5D300BF7CBD00003804002010B51349A8
:103BE0000222D1F89C00012101F0BEF904464FF4F5
:103BF000803101EB043000F059F8002802DA4FF070
:103C0000FF3010BD0948C0F89C40D0F89C004FF42C
:103C1000803101EB00300549C1F898000846D0F822
:103C20009800C1F894000020EBE700003804002061
:103C300010B501200549C1F8B0000548007A18B157
:103C400001210020FFF7A4FF10BD00003804002070
:103C50009400002003480078022802D10020014986
:103C600088607047D805002010B503460D480078DD
:103C700010B14FF0FF3010BD01200A4C20700A48EF
:103C80001840606020464068181A0844401E064CE0
:103C9000204000F58050034CA060204602620020C6
:103CA000E9E70000D805002000F0FF0001460020F1
:103CB000704700000148007870470000D8050020D8
:103CC0000148007870470000D805002010B500209A
:103CD0000749087000210648416181612430044988
:103CE0000861C0212438C161042000F0F9FE10BD34
:103CF000D805002010B50446002010BD18B50446B4
:103D00000023042221466846FFF7F4FF009818BDFF
:103D10001CB504460023082221466846FFF7EAFF47
:103D2000DDE900011CBD000002460848007810B122
:103D30004FF0FF3070470220044B18700020D8600D
:103D40001846426081600020F4E70000D80500209A
:103D50002DE9F04105460E461248007802281ED192
:103D600010488068B04202D20E48806800E03046B9
:103D70000746002408E0295D0A48103001F0FEF8EB
:103D8000002800DA02E0641CBC42F4D300BF0548FE
:103D90008068001B034988602046BDE8F0814FF031
:103DA000FF30FAE7D805002010B54FF400300D4978
:103DB000086010210C48016002F0FCFD01F052F98E
:103DC0000A48C07850B10A4890ED000A00F094FC0F
:103DD000084908800846008801F004FA02200149D9
:103DE000086010BD18040048887401409811002034
:103DF0002C0400202004002010B50020FEF76AFFEC
:103E000010BD10B50120FEF765FF10BD1048006819
:103E1000092803D300200E49086004E00C4800681C
:103E2000401C0B4908600A4800680A490968884232
:103E300006D20948006840F004000749086005E020
:103E40000548006820F0040003490860704700003E
:103E5000A4020020A8020020140C004813480068A7
:103E600000F4807040B112480068642804DA1048F9
:103E70000068401C0E4908600C48006800F400709F
:103E800080B10C480068012808D10B4800686428FC
:103E900004DA09480068401C074908600020054909
:103EA000086002E0012003490860704710080048DC
:103EB000B8020020C0020020BC02002070B52DED29
:103EC000028B3B4804683B4805680020384908607D
:103ED000384908603848006898B1642C01DB642DCB
:103EE0000FDA01203549086000F044FC002000F0A2
:103EF000EDF800203049086031490860BDEC028BC4
:103F000070BD2E48006860B12D480068401C2C49E7
:103F10000860084600680F2848D300202749086039
:103F200044E0284890ED340A2748D0ED000AB4EE6A
:103F3000E00AF1EE10FA04DC2248D0F8D40001289F
:103F400029D1204890ED0B0A10EE101A084603F014
:103F5000E3FD41EC180B9FED1D0B53EC102B03F010
:103F6000BBFC05D91748D0F8C800B0F5006F0BDDD1
:103F7000B2EE040A144880ED000A0A2000F0A6F808
:103F800001200D49086011E0002000F09FF800209A
:103F9000094908600AE0B3EE0F0A0B4880ED000AF9
:103FA000002000F093F800200349086000BFA5E757
:103FB000B8020020BC020020CC020020D002002069
:103FC000D4020020BC060020B40200200000000043
:103FD0000000000002480068012121EA50007047FB
:103FE000100400480348006800F0010080F0010060
:103FF0007047000010080048034890ED1F0ABDEE0E
:10400000C00A10EE100A7047100000200348006834
:1040100000F0010080F0010070470000100400482B
:104020001D48406940F4E0101B4948611B48006886
:1040300020F47040194908600846006840F4A04028
:1040400008601748006820F03000154908600846ED
:10405000006840F0100008601048006820F47020EC
:104060000E49086000200F4908600F49086064206D
:104070000E4908600E49086000200E4908600E498C
:1040800008600E4908600E4908600E49086001206A
:104090000D49086070470000001002400008004809
:1040A000000C0048B0020020AC020020B802002042
:1040B000BC020020CC020020D0020020C40200205C
:1040C000C8020020D4020020C00200200A2802D822
:1040D0000349086002E00A21014A116070470000AC
:1040E000A8020020024602FB01F303F50063181347
:1040F0007047000010B5FFF793FF002403E00A208B
:1041000000F0AEFF641CB4F57A7FF8D34FF4C060C2
:10411000FCF7B6FB00F050FF01F010FBFDF7D6FAFC
:1041200000F0C2FD00F086FC00F010FD00F090FDF4
:1041300000F05EF800F06EFDFFF776FB00F0EEFC9D
:10414000FDF73CFB00F02CFBFEF778F902F026FDB2
:1041500002490869FCF794FB10BD00001000002024
:1041600010B501F0EBFAFDF7B1FAFCF783FB04465A
:10417000FCF786FBFEF762F9FDF71EFFFFF73CFC3C
:1041800010BD70B505460C46641B002C01DA604278
:1041900000E02046B0F5FA7F07DC002C01DA6D1E46
:1041A00008E0002C06DD6D1C04E021460820FFF726
:1041B00099FF0544284670BD70B505460C46641B42
:1041C000002C01DA604200E02046052807DC002CC4
:1041D00001DA6D1E09E0002C07DD6D1C05E02146AB
:1041E00040F23330FFF77EFF0544284670BD0000E3
:1041F00010B52DED068B7648006A76490860744844
:10420000C0694860744890ED2A0A10EE101A0846FA
:1042100003F082FC41EC1A0B9FED700B53EC102B5A
:1042200003F054F841EC190B9FED6E0B53EC102B7F
:1042300003F054FA41EC180B03F0A0F96549C8608B
:104240009FED6A0A084680ED040A6148806A886129
:104250005F48416A5F48C161002141629FED640A85
:1042600080ED0A0A5A48006B5A4908635848C16AE7
:1042700058484163584890ED290A10EE101A084634
:1042800003F04AFC41EC1A0B9FED5A0B53EC102B38
:1042900003F01CF841EC190B9FED520B53EC102B63
:1042A00003F01CFA41EC180B03F068F94949C863A4
:1042B0009FED520A084680ED100A4548806B404247
:1042C00088644348406B41424248C16400214165D3
:1042D0009FED470A80ED160A3D48006C3D4908668F
:1042E0003B48C16B3B4841660021C1663848806C41
:1042F000384908673648416C364841670021C16734
:104300003348006D3349C1F880003148C16C3148F1
:10431000C0F8841040F6C411C0F88C102C48806D91
:104320002C49C1F890002A48416D2A48C0F89410E1
:104330000021C0F89C1000202649C1F8A0009FED84
:10434000300A084680ED290A0020C1F8AC009FED34
:104350002B0A084680ED2C0A0020C1F8C8009FED0A
:10436000290A084680ED330A0020C1F8D4004FF432
:10437000C830C1F8B8009FED240A084680ED2F0A26
:104380000020C1F8C400C1F8D800084690ED0A0A20
:10439000F0EE000A80EE201A11EE104A204603F0DB
:1043A000BBFB41EC190B9FED190B53EC102B02F0EA
:1043B0008DFF41EC180B02F0A3FE00EE100A054839
:1043C00080ED370A012013490860BDEC068B10BD53
:1043D00010000020BC060020940000200000000017
:1043E00000E06F40000000000000B04000007F3D92
:1043F0000080843D0000000000C072400000963D37
:1044000000469B410000203D0000C83C0000000029
:104410000020AC40B801002001490860704700004E
:10442000B801002010B55348C06800EE100A524889
:1044300080ED050A90ED050AD0ED040A80EE201A01
:10444000BDEEC10A10EE100A4B498860084680682C
:10445000C8604848806800EE100A084680ED0B0AE4
:1044600090ED0B0AD0ED0A0A80EE201ABDEEC10ACB
:1044700010EE100A08620846016A41623D48406831
:1044800000EE100A3C4880ED110A90ED110AD0EDC3
:10449000100A80EE201ABDEEC10A10EE100A36494D
:1044A00088633648006830B10A46916BD06BFFF7DD
:1044B00068FE3149C8632F48006800EE100A2E4894
:1044C00080ED170A90ED170AD0ED160A80EE201A3B
:1044D000BDEEC10A10EE100A274908650846016DB5
:1044E00041652748406900EE100ABDEEC00A10EE93
:1044F000100A214988661F48406900EE100ABDEE87
:10450000C00A10EE100AC86600211B48C167C0F837
:104510008C10C0F89C109FED1B0A80ED2D0A002026
:104520001549C1F8C4001648806A00EE100ABDEEB5
:10453000C00A10EE100AC1F8C8000E48806A00EEEA
:10454000100A084680ED340A0020C1F8D4000B4858
:10455000006870B10A46116D906BFFF7C3FD044609
:104560000549D1F8A0002146FFF70BFE0249C1F82A
:10457000A00010BD68110020BC060020B80100207A
:1045800038110020000000000448D0F8D810406A1C
:1045900008440249C1F8D80070470000BC0600205A
:1045A0002DE9F04100F04EFB0746781C40B94FF46E
:1045B00080603B49C1F8B8000120C1F8C40016E092
:1045C00000F040FBA0F58848A8F149084FEA083000
:1045D000C11700EB91618911642291FBF2F1304A1D
:1045E000C2F8B81000201146C1F8C40000BF2C4822
:1045F000D0F8B80000EE100AB8EEC00A2848D0ED96
:104600002F0A20EE200A80ED300AD0F88C4040F6C8
:104610001C40844208DD4FF420702149C1F8C800D5
:104620000120C1F8D4002AE000201D49C1F8D400BF
:10463000552C01DA552404E040F6D520844200DDF3
:104640000446A4F15500C11700EB91618D116E1C59
:10465000144951F82610134A52F82520891A0246A7
:10466000A2EB851201FB02F0C11700EB91610D4A2C
:1046700052F8252002EBA111094AC2F8C8100848D7
:10468000D0F8C80000EE100AB8EEC00A0448D0ED19
:10469000330A20EE200A80ED340ABDE8F0810000E4
:1046A000BC060020907C000810B5FEF71DF8FFF74F
:1046B000D5FB10BD70B505462C46B4F5805F01DB17
:1046C00040F6FF74282C00DA282400EE104AB8EED9
:1046D000400ADFED060A20EE200A054880ED000AB8
:1046E00090ED000A02F052FA70BD00000000963D05
:1046F000F8020020704700001A48406800EE900A57
:10470000F4EEC00AF1EE10FA02D26FF0090000E0F8
:104710000A2015490880154800880988084413496B
:104720000880002012490872C87110480088B0F54E
:10473000074F07DB4FF407400C49088001200C4964
:10474000C8710BE009480088B0F5346F06DC4FF4FF
:104750003460064908800120054908720348008832
:10476000704700006811002024040020200400206D
:10477000981100200348006840F04000014908609B
:1047800070470000A00700200448006820F04000A7
:1047900008B1012070470020FCE70000A0070020BE
:1047A00010B50020054948608860C860086148610C
:1047B0008861C861086200F0F3FB10BDA00700200B
:1047C00001460348006801228A40104070470000FB
:1047D000A007002010B52DED088B40F677703B49FF
:1047E00008604FF47B703A49086040F26F503949D5
:1047F0000860394890ED2B0AF0EE080A30EE200AE6
:1048000010EE101A084603F087F941EC1A0B9FEDE1
:10481000330B53EC102B02F059FD41EC190B9FEDBB
:10482000310B53EC102B02F059FF41EC180B02F046
:10483000A5FE2E490860284890ED2A0A10EE101AAD
:10484000084603F069F941EC1A0B9FED240B53EC79
:10485000102B02F03BFD41EC190B9FED220B53ECAA
:10486000102B02F03BFF41EC180B02F087FE2049B1
:104870000860194890ED2D0A10EE101A084603F052
:104880004BF941EC1B0B9FED1B0B53EC102B02F073
:1048900025FF41EC1A0B9FED110B53EC102B02F08E
:1048A00015FD41EC190B9FED0F0B53EC102B02F093
:1048B00015FF41EC180B02F061FE104908604FF43F
:1048C0007B700F490860BDEC088B10BDBC01002057
:1048D000C0010020C401002094000020000000005E
:1048E00000E06F40000000000000B040CC0100205C
:1048F000D0010020CDCCCCCCCCCCEC3FD4010020DE
:10490000C801002010B52DED088B40F699103B49E9
:10491000086040F221503A49086040F26F5039492E
:104920000860394890ED2B0AF0EE080A30EE200AB4
:1049300010EE101A084603F0EFF841EC1A0B9FED49
:10494000330B53EC102B02F0C1FC41EC190B9FED23
:10495000310B53EC102B02F0C1FE41EC180B02F0AE
:104960000DFE2E490860284890ED2A0A10EE101A14
:10497000084603F0D1F841EC1A0B9FED240B53ECE1
:10498000102B02F0A3FC41EC190B9FED220B53EC12
:10499000102B02F0A3FE41EC180B02F0EFFD2049B2
:1049A0000860194890ED2D0A10EE101A084603F021
:1049B000B3F841EC1B0B9FED1B0B53EC102B02F0DB
:1049C0008DFE41EC1A0B9FED110B53EC102B02F0F6
:1049D0007DFC41EC190B9FED0F0B53EC102B02F0FB
:1049E0007DFE41EC180B02F0C9FD1049086040F251
:1049F00021500F490860BDEC088B10BDBC010020A0
:104A0000C0010020C401002094000020000000002C
:104A100000E06F40000000000000B040CC0100202A
:104A2000D0010020CDCCCCCCCCCCEC3FD4010020AC
:104A3000C8010020002003490860142002490860D2
:104A400070470000F8030020F403002070B52148EF
:104A5000056800201F490860002435E004EB44008D
:104A60001D4901EB80004068401B04EB44011A4AD9
:104A700002EB8101486004EB4400114601EB800029
:104A8000406800281FDC04EB440102EB81018868C8
:104A9000804710E004EB44000F4901EB80004068C0
:104AA00004EB44010C4A52F82110084404EB440181
:104AB00002EB8101486004EB4400074901EB8000F0
:104AC00040680028E6DD641C044800688442C5D3C1
:104AD00070BD0000F803002004030020F403002050
:104AE00001460020704700000B4890F80C010A496D
:104AF00091F8101140EA4101074890F81401064A64
:104B000092F81C21104341EA8000034991F81811E2
:104B100040EAC100C0B27047C80700200020064923
:104B2000C1F80C01C1F81401C1F81801C1F81C0149
:104B30000120C1F810017047C8070020704700002D
:104B4000014903C970470000D80200200021024A31
:104B50001160516070470000D80200202DE9F0413B
:104B600000242BE0174850F8240030B3A2000F2592
:104B7000002628463146FBF716FC0A46C143D043BF
:104B8000114AD2E90032194010400F4AC2E9001020
:104B90000C4951F82400804700210F2200EA020747
:104BA00001EA0108A20038464146FBF7FCFB064B30
:104BB0000CCB10431943044A03C2641C102CD1D3FC
:104BC000BDE8F081407D0008D8020020024800685E
:104BD000401E014908607047000000200548006839
:104BE00040F47000034908604FF0006001498039CB
:104BF0000860704788ED00E0054800680449C9680E
:104C000009B1012100E0002140EA4100C0B2704733
:104C1000F010002000200949086048608860C860E2
:104C20004FF4C03088614FF40010C8610846C06975
:104C30008969401A0149886270470000F01000201D
:104C40007047000001480068704700000C04002015
:104C500010B5002007490860074908600749086047
:104C6000FFF7B8F90649086044F68920054908604D
:104C700010BD0000FC0300200004002004040020FC
:104C8000080400200C04002010B56FF00100024958
:104C90000860FFF709FD10BD1004004001490868D5
:104CA00049687047E0010020002007490860074973
:104CB00008600021064A11605160064A1160516087
:104CC0000120054908607047F8010020E801002034
:104CD000E0010020F0010020EC01002070B5044646
:104CE0000D460448006818B92046294600F004F82B
:104CF00070BD0000F80100202DE9F04104460D468A
:104D00000D48046045600D4A002301460868496863
:104D1000FBF7D2FA094B0022A0FB036701FB0371EA
:104D200000FB02100649C1E9006001200549086046
:104D3000FEF77EFFBDE8F081E0010020005C260563
:104D4000F0010020F801002070B56B4A126802F0F3
:104D5000400252B3684A1C3A126822F04002664B85
:104D60001C3B1A60654A1278032A05D01A4612685D
:104D700022F040021A6024E0614A1278614B1B68FD
:104D80009A4213D25C4A1C3A126842F040025A4BD3
:104D90001C3B1A605A4A13781278521C584D2A70DC
:104DA000594AD25C544B0C331A800AE00022534B10
:104DB0001A70514A1C3A126822F040024E4B1C3BBA
:104DC0001A604D4A126802F02002002A79D04A4A3D
:104DD0001C3A126822F02002474B1C3B1A60464ADC
:104DE00008321288D4B2454A1278022A79D0434A4E
:104DF0001278032A75D0FFF751FF444AD2E90052D6
:104E00004FF47A73EB1842F100021B1A8A4106D361
:104E10003E4AD2E90032C31A71EB020205D20022E7
:104E2000364B1A70FF223A4B1A70384A03C2022CD2
:104E300010D1374A1278102A0CD1364B1A70022240
:104E40005A70354B1A700022344B1A7001222B4BCA
:104E50001A7046E0294A1278012A3BD12E4A13786B
:104E60001278521C2C4D2A702A4AD4542A461278A1
:104E7000042A10DC2A461278032A01D1102C07D10B
:104E8000254A1278042A2CD1214A1278102A28D1D6
:104E9000224A147025E0204A1278204B1B789A424F
:104EA00014DC1B4A1278102A1BD1032C19D11A4A80
:104EB00012781A4B1B789A4204D102220F4B1A70B7
:104EC0000FE018E000220D4B1A700AE000220B4B95
:104ED0001A7006E0102C04D10D4A1278102A00D165
:104EE000FF240B4A1470044A1C3A126842F0200254
:104EF000014B1C3B1A6070BD1C38014004020020AD
:104F00000002002018020020F008002010020020FB
:104F100003020020EE09002001020020020200200E
:104F200010B502460B460020002102E0545C2044EC
:104F3000491C9942FAD310BD30B5014642F21072B5
:104F4000002004240DE0914207D3B1FBF2F3A50049
:104F500003FA05F5284403FB12110A25B2FBF5F20A
:104F6000641E002CEFDA30BD084400E0801A904245
:104F7000FCDA00E010440028FCDB704702464FF0EA
:104F8000FF30704710B505480079032802DAFDF7B5
:104F900071FB01E0FDF748FB10BD0000340200206A
:104FA00010B50448407910B9FFF7ACFC01E0FFF7F9
:104FB00011FC10BD340200207047002809DB00F00E
:104FC0001F02012191404209920002F1E022C2F841
:104FD0000011704710B5002804DB0A07130E054ABC
:104FE000135406E00A07140E034A00F00F031B1FB8
:104FF000D45410BD00E400E018ED00E04FF0904004
:10500000006840F0FF004FF0904108600846C0681B
:1050100060F0FF00C8600F4800680F4908430D4961
:1050200008600C480C3000680B49C9430843094923
:105030000C3108600948006840F0FC00074908602E
:1050400006480C30006860F0FC0004490C31086030
:105050007047000000040048300000F300080048DA
:105060007047000070B52DED048B5248807810B960
:10507000BDEC048B70BD504C504D206900EE100A01
:10508000F0EE080AC0EE808A9FED4D0A28EE800AF5
:10509000DFED4C0A20EE209A606800EE100A20EE48
:1050A000280ADFED490A20EE200A10EE100A686097
:1050B000E06800EE100A20EE280ADFED440A20EE38
:1050C000200A10EE100AE860206800EE100ADFEDFA
:1050D000400A30EE608AB5EEC08AF1EE10FA02DBCB
:1050E00028EE090A01E09FED3B0A10EE100A286045
:1050F000A06800EE100ADFED360A30EE600AB0EE6E
:10510000408AB5EEC08AF1EE10FA02DB28EE090AF9
:1051100001E09FED300A10EE100AA860E06900EE91
:10512000100ADFED2B0A30EE600AB0EE408AB5EED1
:10513000C08AF1EE10FA02DB28EE090A01E09FEDC9
:10514000250A10EE100AE861606900EE100A20EEF0
:10515000280ADFED210A20EE200A10EE100A68610D
:10516000206900EE100A20EE280A10EE100A2861CD
:105170001048407958B100200E4948710871C87034
:105180004FF4FA701549088000F062F80DE0094804
:10519000007950B101200749C870002008714FF410
:1051A000346000F05BF80E490880002001498870E7
:1051B00000BF5DE798110020381100206811002021
:1051C000000048425655D53FC644F842AB31BC4278
:1051D0000040E74400000000BD8496402604002003
:1051E0002004002001460448016001F59060024A55
:1051F00008321060002070479C7401404FF09040CE
:10520000006820F470204FF0904108600846006864
:1052100040F4202008600846406820F44070486050
:105220000846C06820F47020C8600846806840F4D2
:10523000702088600846406A20F0FF014FF09040DF
:105240004162406A40F0DD014FF09040416270479A
:1052500003210148016070479877014005490860C3
:1052600000F59061034A08321160032202490A6086
:10527000704700009C7401409477014010B5FFF71F
:10528000BDFE5948406940F0805057494861084682
:10529000C06A20F4F870C8624FF0A040806820F027
:1052A00040504FF0A04188600846806840F0805030
:1052B00088604E48006820F04050C1F80801084658
:1052C000D0F8080140F08050C1F808014848006853
:1052D0004849B0FBF1F000EB8000840000BF601E85
:1052E000041EFCD14448454908604FF0A040806846
:1052F00040F000404FF0A041886000BF4FF0A04058
:10530000806800F000400028F8D13848006840F07C
:1053100000404FF0A041C1F8080100BF33480068C9
:1053200000F000400028F9D14FF0A040806840F024
:1053300001004FF0A041886000BF4FF0A04000681E
:1053400000F001000028F8D02848006840F0010073
:105350004FF0A041C1F8080100BF24480838006898
:1053600000F001000028F8D04FF0A040C0682449A8
:1053700008434FF0A041C8602248086340F247202C
:10538000486308464069204908434FF0A0414861FE
:105390001E481649283108604FF491604FF0A04133
:1053A000C1F834010846D0F8140140F04070C1F84B
:1053B00014010E4810300068154908430B4910319C
:1053C000086088204FF0A0410860802048600846AF
:1053D000806840F00400886001211220FFF7FAFD88
:1053E0001220FFF7EAFD10BD001002400801005036
:1053F0000400002040420F0006A0420008030050B5
:10540000C005C00C85300404D836601885F3300D13
:10541000C0B601031648006820F4704014490860C3
:105420000846006840F4A0400860081D006820F0AD
:10543000C000091D0860081D006820F47040091DA7
:105440000860C0200A49283108600A48006820F036
:105450000C00084908600846006840F00400086035
:10546000081D006820F00200091D08607047000058
:10547000000800480004004870B505460C460B487B
:10548000406940F00100094948610948094908613B
:1054900008464561C46042F6A320886001210B20C4
:1054A000FFF798FD0B20FFF788FD70BD001002404C
:1054B0000C0300500000024010B54548006B40F45A
:1054C0008050434908630846806940F00050886175
:1054D0004048006840F00E013E48016000BF3D4872
:1054E0004438006800F480300028F8D03A483B493E
:1054F00008600021394818300160102137480C300D
:1055000001604FF461413548143001604FF434615B
:1055100032481C300160042130483C3001600821D1
:10552000001D01604CF680212C48243001604FF4AE
:10553000803028494C3908608111264810380160B4
:1055400026486430006820F00A1124486430016065
:10555000006840F480712148643001601F48383091
:1055600000681F4908431D49383108600321194864
:1055700034380160022117484838016017488038E4
:10558000006840F40030154980390860442000214B
:10559000002804DB0A07130E124A135406E00A0718
:1055A000140E114A00F00F031B1FD45400BF4420F7
:1055B000002809DB00F01F020121914042099200FE
:1055C00002F1E022C2F8001100BFFFF717FE10BD84
:1055D00000100240CC7701400A00040880740140AA
:1055E000404C404000E400E018ED00E010B51A48DF
:1055F000C06940F002001849C86147201749086097
:105600004815091D0860012014491C3908601D2037
:105610000F21002804DB0A07130E114A135406E079
:105620000A07140E0F4A00F00F031B1FD45400BFCB
:105630001D20002809DB00F01F02012191404209D2
:10564000920002F1E022C2F8001100BF01200349DC
:105650002839086010BD00000010024028040040F6
:1056600000E400E018ED00E010B502460B46002112
:1056700006E0585C545CA04201D0012010BD491CDA
:105680004029F6DB0020F9E77047000010B5064816
:10569000006838B10548007820B900200249086048
:1056A00000F078FD10BD00005402002044020020EC
:1056B00010B502460124002105E0505CFF2801D00E
:1056C000002402E0491C4029F7DB00BF0CB1002098
:1056D00010BD0023022102E050584340891C3F299D
:1056E000FADB1068184408B90120F1E70020EFE761
:1056F00010B508220B490C48FAF7DEFE08220949CA
:10570000083109480830FAF7D7FE0822054907484A
:10571000FAF7D2FE08220349083104480830FAF7A4
:10572000CBFE10BD380B0020F00A00207C0C0020BE
:105730000321014A117070474402002070B54FF4F4
:1057400086564FF0FF305F49086000205E490860D0
:1057500002235E4A3C214FF4903000F019FB58B907
:1057600000F0ACFA00225A48D0E90E1062F3820130
:10577000574AC2E90E1008E001225549D1E90E014D
:1057800062F38200524AC2E90E010223514A742197
:105790004FF4983000F0FCFA58B900F041F90022BB
:1057A0004B48D0E90E1062F30001494AC2E90E10DD
:1057B00008E001224648D0E90E1062F30001444A95
:1057C000C2E90E1000F0C6F9FFF792FF0223424A29
:1057D00080214FF4A03000F0DBFA58B900F08CF8CB
:1057E00000223B48D0E90E1062F30411384AC2E9A6
:1057F0000E1008E001223648D0E90E1062F30411C1
:10580000334AC2E90E100223344A14214FF4B03057
:1058100000F0BEFA58B900F081F900222C48D0E916
:105820000E1062F386112A4AC2E90E1008E0012226
:105830002748D0E90E1062F38611254AC2E90E10FE
:105840000223274A04214FF4B83000F0A1FA08B926
:1058500000F07AF900F0C4FC00F00AFF1F4800884D
:10586000204908601D4890ED010A1F4880ED000A9C
:105870001A4890ED020A1D4880ED000A144800788D
:105880001B4908703046FFF713FF054600234022EE
:105890004FF4A8311748FEF72DFA1648FFF708FF16
:1058A000044645B124B113493046FFF7DDFE10B17F
:1058B00000F0F6FB04E01DB914B10E4800F092FAB6
:1058C00070BD00003C02002040020020AC0B002014
:1058D000F00A0020380B0020E80B0020AC0C002060
:1058E00030020020680100206C01002070010020BF
:1058F00064010020040E002001203C49088042F28F
:105900001070C8609FED3A0A084680ED020A9FEDCC
:10591000390A80ED010A0120088242F210713348F1
:10592000C1619FED340A80ED060A9FED330A80EDD8
:10593000050A01202D49088442F210712B48C162EA
:105940009FED2E0A80ED0A0A9FED2D0A80ED090ACF
:1059500001202649088642F210712448C1639FED58
:10596000290A80ED0E0A9FED280A80ED0D0A01201C
:105970001E49A1F8400042F210711C48C1649FED1D
:10598000230A80ED120A9FED220A80ED110A012000
:105990001649A1F850004EF660211448C1659FEDEC
:1059A0001D0A80ED160A9FED1C0A80ED150A0120E4
:1059B0000E49A1F86000A1F86200A1F86400A1F806
:1059C0006600A1F86800A1F86A00A1F86C00A1F8CF
:1059D0006E00A1F87000A1F8740010490348C16777
:1059E000B3EE040A80ED1E0A70470000E80B0020A9
:1059F00000003042000028420000204200007C42AB
:105A00000000824200007042000074420080F743B0
:105A10000000FA430000BE420000C84200EB410013
:105A200010B537A13848FAF7DEFC38A136480830FF
:105A3000FAF7D9FCB7EE000A334880ED040A9FED6F
:105A4000350A80ED050AB7EE000A80ED080A9FEDE1
:105A5000310A80ED090AB7EE000A80ED060A9FEDD3
:105A60002D0A80ED070AB7EE000A80ED0A0A9FEDC5
:105A7000290A80ED0B0AB7EE000A80ED140AB7EE92
:105A8000000A80ED150AB7EE000A80ED100A9FEDBE
:105A9000210A80ED110AB7EE000A80ED0C0A9FED95
:105AA0001D0A80ED0D0AB7EE000A80ED0E0A9FED8B
:105AB000190A80ED0F0AB7EE000A80ED180A9FED73
:105AC000150A80ED190AB7EE000A80ED120A9FED63
:105AD000110A80ED130AB7EE000A80ED160A9FED59
